{
	"Contracts/WarrantCanary v2.0.sol": {
		"WarrantCanary": {
			"abi": [
				{
					"inputs": [],
					"stateMutability": "nonpayable",
					"type": "constructor"
				},
				{
					"anonymous": false,
					"inputs": [
						{
							"indexed": true,
							"internalType": "uint8",
							"name": "canaryID",
							"type": "uint8"
						},
						{
							"indexed": false,
							"internalType": "string",
							"name": "canaryName",
							"type": "string"
						}
					],
					"name": "REVIVED",
					"type": "event"
				},
				{
					"anonymous": false,
					"inputs": [
						{
							"indexed": true,
							"internalType": "uint8",
							"name": "canaryID",
							"type": "uint8"
						},
						{
							"indexed": false,
							"internalType": "string",
							"name": "canaryName",
							"type": "string"
						}
					],
					"name": "RIP",
					"type": "event"
				},
				{
					"inputs": [],
					"name": "getAliveCanaries",
					"outputs": [
						{
							"internalType": "string[]",
							"name": "",
							"type": "string[]"
						}
					],
					"stateMutability": "view",
					"type": "function"
				},
				{
					"inputs": [
						{
							"internalType": "uint8",
							"name": "canaryID",
							"type": "uint8"
						}
					],
					"name": "getCanaryStatus",
					"outputs": [
						{
							"internalType": "bool",
							"name": "",
							"type": "bool"
						}
					],
					"stateMutability": "view",
					"type": "function"
				},
				{
					"inputs": [],
					"name": "getDeadCanaries",
					"outputs": [
						{
							"internalType": "string[]",
							"name": "",
							"type": "string[]"
						}
					],
					"stateMutability": "view",
					"type": "function"
				},
				{
					"inputs": [],
					"name": "getOwner",
					"outputs": [
						{
							"internalType": "address",
							"name": "",
							"type": "address"
						}
					],
					"stateMutability": "view",
					"type": "function"
				},
				{
					"inputs": [
						{
							"internalType": "uint8",
							"name": "canaryID",
							"type": "uint8"
						}
					],
					"name": "killCanary",
					"outputs": [],
					"stateMutability": "nonpayable",
					"type": "function"
				},
				{
					"inputs": [
						{
							"internalType": "uint8",
							"name": "canaryID",
							"type": "uint8"
						}
					],
					"name": "reviveCanary",
					"outputs": [],
					"stateMutability": "nonpayable",
					"type": "function"
				}
			],
			"devdoc": {
				"kind": "dev",
				"methods": {},
				"version": 1
			},
			"evm": {
				"assembly": "    /* \"Contracts/WarrantCanary v2.0.sol\":253:4408  contract WarrantCanary {\r... */\n  mstore(0x40, 0x80)\n    /* \"Contracts/WarrantCanary v2.0.sol\":353:921  string[] private canaryNames = [\r... */\n  mload(0x40)\n  dup1\n  0x0140\n  add\n  0x40\n  mstore\n  dup1\n  mload(0x40)\n  dup1\n  0x40\n  add\n  0x40\n  mstore\n  dup1\n  0x03\n  dup2\n  mstore\n  0x20\n  add\n  0x5741520000000000000000000000000000000000000000000000000000000000\n  dup2\n  mstore\n  pop\n  dup2\n  mstore\n  0x20\n  add\n  mload(0x40)\n  dup1\n  0x40\n  add\n  0x40\n  mstore\n  dup1\n  0x03\n  dup2\n  mstore\n  0x20\n  add\n  0x4741470000000000000000000000000000000000000000000000000000000000\n  dup2\n  mstore\n  pop\n  dup2\n  mstore\n  0x20\n  add\n  mload(0x40)\n  dup1\n  0x40\n  add\n  0x40\n  mstore\n  dup1\n  0x04\n  dup2\n  mstore\n  0x20\n  add\n  0x5355425000000000000000000000000000000000000000000000000000000000\n  dup2\n  mstore\n  pop\n  dup2\n  mstore\n  0x20\n  add\n  mload(0x40)\n  dup1\n  0x40\n  add\n  0x40\n  mstore\n  dup1\n  0x04\n  dup2\n  mstore\n  0x20\n  add\n  0x5452415000000000000000000000000000000000000000000000000000000000\n  dup2\n  mstore\n  pop\n  dup2\n  mstore\n  0x20\n  add\n  mload(0x40)\n  dup1\n  0x40\n  add\n  0x40\n  mstore\n  dup1\n  0x05\n  dup2\n  mstore\n  0x20\n  add\n  0x4345415345000000000000000000000000000000000000000000000000000000\n  dup2\n  mstore\n  pop\n  dup2\n  mstore\n  0x20\n  add\n  mload(0x40)\n  dup1\n  0x40\n  add\n  0x40\n  mstore\n  dup1\n  0x06\n  dup2\n  mstore\n  0x20\n  add\n  0x4455524553530000000000000000000000000000000000000000000000000000\n  dup2\n  mstore\n  pop\n  dup2\n  mstore\n  0x20\n  add\n  mload(0x40)\n  dup1\n  0x40\n  add\n  0x40\n  mstore\n  dup1\n  0x04\n  dup2\n  mstore\n  0x20\n  add\n  0x5241494400000000000000000000000000000000000000000000000000000000\n  dup2\n  mstore\n  pop\n  dup2\n  mstore\n  0x20\n  add\n  mload(0x40)\n  dup1\n  0x40\n  add\n  0x40\n  mstore\n  dup1\n  0x05\n  dup2\n  mstore\n  0x20\n  add\n  0x5345495a45000000000000000000000000000000000000000000000000000000\n  dup2\n  mstore\n  pop\n  dup2\n  mstore\n  0x20\n  add\n  mload(0x40)\n  dup1\n  0x40\n  add\n  0x40\n  mstore\n  dup1\n  0x05\n  dup2\n  mstore\n  0x20\n  add\n  0x5843524544000000000000000000000000000000000000000000000000000000\n  dup2\n  mstore\n  pop\n  dup2\n  mstore\n  0x20\n  add\n  mload(0x40)\n  dup1\n  0x40\n  add\n  0x40\n  mstore\n  dup1\n  0x06\n  dup2\n  mstore\n  0x20\n  add\n  0x584f504552530000000000000000000000000000000000000000000000000000\n  dup2\n  mstore\n  pop\n  dup2\n  mstore\n  pop\n  0x00\n  swap1\n  0x0a\n  tag_1\n  swap3\n  swap2\n  swap1\n  tag_2\n  jump\t// in\ntag_1:\n  pop\n    /* \"Contracts/WarrantCanary v2.0.sol\":1293:1492  constructor() {\r... */\n  callvalue\n  dup1\n  iszero\n  tag_3\n  jumpi\n  0x00\n  dup1\n  revert\ntag_3:\n  pop\n    /* \"Contracts/WarrantCanary v2.0.sol\":1326:1336  msg.sender */\n  caller\n    /* \"Contracts/WarrantCanary v2.0.sol\":1318:1323  owner */\n  0x01\n  0x00\n    /* \"Contracts/WarrantCanary v2.0.sol\":1318:1336  owner = msg.sender */\n  0x0100\n  exp\n  dup2\n  sload\n  dup2\n  0xffffffffffffffffffffffffffffffffffffffff\n  mul\n  not\n  and\n  swap1\n  dup4\n  0xffffffffffffffffffffffffffffffffffffffff\n  and\n  mul\n  or\n  swap1\n  sstore\n  pop\n    /* \"Contracts/WarrantCanary v2.0.sol\":1353:1360  uint8 i */\n  0x00\n    /* \"Contracts/WarrantCanary v2.0.sol\":1349:1485  for(uint8 i = 0; i < 10; ++i) {\r... */\ntag_6:\n    /* \"Contracts/WarrantCanary v2.0.sol\":1370:1372  10 */\n  0x0a\n    /* \"Contracts/WarrantCanary v2.0.sol\":1366:1367  i */\n  dup2\n    /* \"Contracts/WarrantCanary v2.0.sol\":1366:1372  i < 10 */\n  0xff\n  and\n  lt\n    /* \"Contracts/WarrantCanary v2.0.sol\":1349:1485  for(uint8 i = 0; i < 10; ++i) {\r... */\n  iszero\n  tag_7\n  jumpi\n    /* \"Contracts/WarrantCanary v2.0.sol\":1394:1409  canary memory c */\n  0x00\n    /* \"Contracts/WarrantCanary v2.0.sol\":1412:1443  canary(canaryNames[i], true, 0) */\n  mload(0x40)\n  dup1\n  0x60\n  add\n  0x40\n  mstore\n  dup1\n    /* \"Contracts/WarrantCanary v2.0.sol\":1419:1430  canaryNames */\n  0x00\n    /* \"Contracts/WarrantCanary v2.0.sol\":1431:1432  i */\n  dup5\n    /* \"Contracts/WarrantCanary v2.0.sol\":1419:1433  canaryNames[i] */\n  0xff\n  and\n  dup2\n  sload\n  dup2\n  lt\n  tag_9\n  jumpi\n  tag_10\n  tag_11\n  jump\t// in\ntag_10:\ntag_9:\n  swap1\n  0x00\n  mstore\n  keccak256(0x00, 0x20)\n  add\n    /* \"Contracts/WarrantCanary v2.0.sol\":1412:1443  canary(canaryNames[i], true, 0) */\n  dup1\n  sload\n  tag_13\n  swap1\n  tag_14\n  jump\t// in\ntag_13:\n  dup1\n  0x1f\n  add\n  0x20\n  dup1\n  swap2\n  div\n  mul\n  0x20\n  add\n  mload(0x40)\n  swap1\n  dup2\n  add\n  0x40\n  mstore\n  dup1\n  swap3\n  swap2\n  swap1\n  dup2\n  dup2\n  mstore\n  0x20\n  add\n  dup3\n  dup1\n  sload\n  tag_15\n  swap1\n  tag_14\n  jump\t// in\ntag_15:\n  dup1\n  iszero\n  tag_16\n  jumpi\n  dup1\n  0x1f\n  lt\n  tag_17\n  jumpi\n  0x0100\n  dup1\n  dup4\n  sload\n  div\n  mul\n  dup4\n  mstore\n  swap2\n  0x20\n  add\n  swap2\n  jump(tag_16)\ntag_17:\n  dup3\n  add\n  swap2\n  swap1\n  0x00\n  mstore\n  keccak256(0x00, 0x20)\n  swap1\ntag_18:\n  dup2\n  sload\n  dup2\n  mstore\n  swap1\n  0x01\n  add\n  swap1\n  0x20\n  add\n  dup1\n  dup4\n  gt\n  tag_18\n  jumpi\n  dup3\n  swap1\n  sub\n  0x1f\n  and\n  dup3\n  add\n  swap2\ntag_16:\n  pop\n  pop\n  pop\n  pop\n  pop\n  dup2\n  mstore\n  0x20\n  add\n    /* \"Contracts/WarrantCanary v2.0.sol\":1435:1439  true */\n  0x01\n    /* \"Contracts/WarrantCanary v2.0.sol\":1412:1443  canary(canaryNames[i], true, 0) */\n  iszero\n  iszero\n  dup2\n  mstore\n  0x20\n  add\n    /* \"Contracts/WarrantCanary v2.0.sol\":1441:1442  0 */\n  0x00\n    /* \"Contracts/WarrantCanary v2.0.sol\":1412:1443  canary(canaryNames[i], true, 0) */\n  dup2\n  mstore\n  pop\n    /* \"Contracts/WarrantCanary v2.0.sol\":1394:1443  canary memory c = canary(canaryNames[i], true, 0) */\n  swap1\n  pop\n    /* \"Contracts/WarrantCanary v2.0.sol\":1472:1473  c */\n  dup1\n    /* \"Contracts/WarrantCanary v2.0.sol\":1458:1466  canaries */\n  0x02\n    /* \"Contracts/WarrantCanary v2.0.sol\":1458:1469  canaries[i] */\n  0x00\n    /* \"Contracts/WarrantCanary v2.0.sol\":1467:1468  i */\n  dup5\n    /* \"Contracts/WarrantCanary v2.0.sol\":1458:1469  canaries[i] */\n  0xff\n  and\n  0xff\n  and\n  dup2\n  mstore\n  0x20\n  add\n  swap1\n  dup2\n  mstore\n  0x20\n  add\n  0x00\n  keccak256\n    /* \"Contracts/WarrantCanary v2.0.sol\":1458:1473  canaries[i] = c */\n  0x00\n  dup3\n  add\n  mload\n  dup2\n  0x00\n  add\n  swap1\n  dup1\n  mload\n  swap1\n  0x20\n  add\n  swap1\n  tag_19\n  swap3\n  swap2\n  swap1\n  tag_20\n  jump\t// in\ntag_19:\n  pop\n  0x20\n  dup3\n  add\n  mload\n  dup2\n  0x01\n  add\n  exp(0x0100, 0x00)\n  dup2\n  sload\n  dup2\n  0xff\n  mul\n  not\n  and\n  swap1\n  dup4\n  iszero\n  iszero\n  mul\n  or\n  swap1\n  sstore\n  pop\n  0x40\n  dup3\n  add\n  mload\n  dup2\n  0x02\n  add\n  sstore\n  swap1\n  pop\n  pop\n    /* \"Contracts/WarrantCanary v2.0.sol\":1379:1485  {\r... */\n  pop\n    /* \"Contracts/WarrantCanary v2.0.sol\":1374:1377  ++i */\n  dup1\n  tag_21\n  swap1\n  tag_22\n  jump\t// in\ntag_21:\n  swap1\n  pop\n    /* \"Contracts/WarrantCanary v2.0.sol\":1349:1485  for(uint8 i = 0; i < 10; ++i) {\r... */\n  jump(tag_6)\ntag_7:\n  pop\n    /* \"Contracts/WarrantCanary v2.0.sol\":253:4408  contract WarrantCanary {\r... */\n  jump(tag_23)\ntag_2:\n  dup3\n  dup1\n  sload\n  dup3\n  dup3\n  sstore\n  swap1\n  0x00\n  mstore\n  keccak256(0x00, 0x20)\n  swap1\n  dup2\n  add\n  swap3\n  dup3\n  iszero\n  tag_24\n  jumpi\n  swap2\n  0x20\n  mul\n  dup3\n  add\ntag_25:\n  dup3\n  dup2\n  gt\n  iszero\n  tag_26\n  jumpi\n  dup3\n  mload\n  dup3\n  swap1\n  dup1\n  mload\n  swap1\n  0x20\n  add\n  swap1\n  tag_27\n  swap3\n  swap2\n  swap1\n  tag_20\n  jump\t// in\ntag_27:\n  pop\n  swap2\n  0x20\n  add\n  swap2\n  swap1\n  0x01\n  add\n  swap1\n  jump(tag_25)\ntag_26:\ntag_24:\n  pop\n  swap1\n  pop\n  tag_28\n  swap2\n  swap1\n  tag_29\n  jump\t// in\ntag_28:\n  pop\n  swap1\n  jump\t// out\ntag_20:\n  dup3\n  dup1\n  sload\n  tag_30\n  swap1\n  tag_14\n  jump\t// in\ntag_30:\n  swap1\n  0x00\n  mstore\n  keccak256(0x00, 0x20)\n  swap1\n  0x1f\n  add\n  0x20\n  swap1\n  div\n  dup2\n  add\n  swap3\n  dup3\n  tag_32\n  jumpi\n  0x00\n  dup6\n  sstore\n  jump(tag_31)\ntag_32:\n  dup3\n  0x1f\n  lt\n  tag_33\n  jumpi\n  dup1\n  mload\n  not(0xff)\n  and\n  dup4\n  dup1\n  add\n  or\n  dup6\n  sstore\n  jump(tag_31)\ntag_33:\n  dup3\n  dup1\n  add\n  0x01\n  add\n  dup6\n  sstore\n  dup3\n  iszero\n  tag_31\n  jumpi\n  swap2\n  dup3\n  add\ntag_34:\n  dup3\n  dup2\n  gt\n  iszero\n  tag_35\n  jumpi\n  dup3\n  mload\n  dup3\n  sstore\n  swap2\n  0x20\n  add\n  swap2\n  swap1\n  0x01\n  add\n  swap1\n  jump(tag_34)\ntag_35:\ntag_31:\n  pop\n  swap1\n  pop\n  tag_36\n  swap2\n  swap1\n  tag_37\n  jump\t// in\ntag_36:\n  pop\n  swap1\n  jump\t// out\ntag_29:\ntag_38:\n  dup1\n  dup3\n  gt\n  iszero\n  tag_39\n  jumpi\n  0x00\n  dup2\n  dup2\n  tag_40\n  swap2\n  swap1\n  tag_41\n  jump\t// in\ntag_40:\n  pop\n  0x01\n  add\n  jump(tag_38)\ntag_39:\n  pop\n  swap1\n  jump\t// out\ntag_37:\ntag_42:\n  dup1\n  dup3\n  gt\n  iszero\n  tag_43\n  jumpi\n  0x00\n  dup2\n  0x00\n  swap1\n  sstore\n  pop\n  0x01\n  add\n  jump(tag_42)\ntag_43:\n  pop\n  swap1\n  jump\t// out\ntag_41:\n  pop\n  dup1\n  sload\n  tag_44\n  swap1\n  tag_14\n  jump\t// in\ntag_44:\n  0x00\n  dup3\n  sstore\n  dup1\n  0x1f\n  lt\n  tag_46\n  jumpi\n  pop\n  jump(tag_45)\ntag_46:\n  0x1f\n  add\n  0x20\n  swap1\n  div\n  swap1\n  0x00\n  mstore\n  keccak256(0x00, 0x20)\n  swap1\n  dup2\n  add\n  swap1\n  tag_47\n  swap2\n  swap1\n  tag_37\n  jump\t// in\ntag_47:\ntag_45:\n  pop\n  jump\t// out\n    /* \"#utility.yul\":7:93   */\ntag_49:\n    /* \"#utility.yul\":42:49   */\n  0x00\n    /* \"#utility.yul\":82:86   */\n  0xff\n    /* \"#utility.yul\":75:80   */\n  dup3\n    /* \"#utility.yul\":71:87   */\n  and\n    /* \"#utility.yul\":60:87   */\n  swap1\n  pop\n    /* \"#utility.yul\":7:93   */\n  swap2\n  swap1\n  pop\n  jump\t// out\n    /* \"#utility.yul\":99:419   */\ntag_14:\n    /* \"#utility.yul\":143:149   */\n  0x00\n    /* \"#utility.yul\":180:181   */\n  0x02\n    /* \"#utility.yul\":174:178   */\n  dup3\n    /* \"#utility.yul\":170:182   */\n  div\n    /* \"#utility.yul\":160:182   */\n  swap1\n  pop\n    /* \"#utility.yul\":227:228   */\n  0x01\n    /* \"#utility.yul\":221:225   */\n  dup3\n    /* \"#utility.yul\":217:229   */\n  and\n    /* \"#utility.yul\":248:266   */\n  dup1\n    /* \"#utility.yul\":238:319   */\n  tag_52\n  jumpi\n    /* \"#utility.yul\":304:308   */\n  0x7f\n    /* \"#utility.yul\":296:302   */\n  dup3\n    /* \"#utility.yul\":292:309   */\n  and\n    /* \"#utility.yul\":282:309   */\n  swap2\n  pop\n    /* \"#utility.yul\":238:319   */\ntag_52:\n    /* \"#utility.yul\":366:368   */\n  0x20\n    /* \"#utility.yul\":358:364   */\n  dup3\n    /* \"#utility.yul\":355:369   */\n  lt\n    /* \"#utility.yul\":335:353   */\n  dup2\n    /* \"#utility.yul\":332:370   */\n  eq\n    /* \"#utility.yul\":329:413   */\n  iszero\n  tag_53\n  jumpi\n    /* \"#utility.yul\":385:403   */\n  tag_54\n  tag_55\n  jump\t// in\ntag_54:\n    /* \"#utility.yul\":329:413   */\ntag_53:\n    /* \"#utility.yul\":150:419   */\n  pop\n    /* \"#utility.yul\":99:419   */\n  swap2\n  swap1\n  pop\n  jump\t// out\n    /* \"#utility.yul\":425:592   */\ntag_22:\n    /* \"#utility.yul\":462:465   */\n  0x00\n    /* \"#utility.yul\":485:507   */\n  tag_57\n    /* \"#utility.yul\":501:506   */\n  dup3\n    /* \"#utility.yul\":485:507   */\n  tag_49\n  jump\t// in\ntag_57:\n    /* \"#utility.yul\":476:507   */\n  swap2\n  pop\n    /* \"#utility.yul\":529:533   */\n  0xff\n    /* \"#utility.yul\":522:527   */\n  dup3\n    /* \"#utility.yul\":519:534   */\n  eq\n    /* \"#utility.yul\":516:557   */\n  iszero\n  tag_58\n  jumpi\n    /* \"#utility.yul\":537:555   */\n  tag_59\n  tag_60\n  jump\t// in\ntag_59:\n    /* \"#utility.yul\":516:557   */\ntag_58:\n    /* \"#utility.yul\":584:585   */\n  0x01\n    /* \"#utility.yul\":577:582   */\n  dup3\n    /* \"#utility.yul\":573:586   */\n  add\n    /* \"#utility.yul\":566:586   */\n  swap1\n  pop\n    /* \"#utility.yul\":425:592   */\n  swap2\n  swap1\n  pop\n  jump\t// out\n    /* \"#utility.yul\":598:778   */\ntag_60:\n    /* \"#utility.yul\":646:723   */\n  0x4e487b7100000000000000000000000000000000000000000000000000000000\n    /* \"#utility.yul\":643:644   */\n  0x00\n    /* \"#utility.yul\":636:724   */\n  mstore\n    /* \"#utility.yul\":743:747   */\n  0x11\n    /* \"#utility.yul\":740:741   */\n  0x04\n    /* \"#utility.yul\":733:748   */\n  mstore\n    /* \"#utility.yul\":767:771   */\n  0x24\n    /* \"#utility.yul\":764:765   */\n  0x00\n    /* \"#utility.yul\":757:772   */\n  revert\n    /* \"#utility.yul\":784:964   */\ntag_55:\n    /* \"#utility.yul\":832:909   */\n  0x4e487b7100000000000000000000000000000000000000000000000000000000\n    /* \"#utility.yul\":829:830   */\n  0x00\n    /* \"#utility.yul\":822:910   */\n  mstore\n    /* \"#utility.yul\":929:933   */\n  0x22\n    /* \"#utility.yul\":926:927   */\n  0x04\n    /* \"#utility.yul\":919:934   */\n  mstore\n    /* \"#utility.yul\":953:957   */\n  0x24\n    /* \"#utility.yul\":950:951   */\n  0x00\n    /* \"#utility.yul\":943:958   */\n  revert\n    /* \"#utility.yul\":970:1150   */\ntag_11:\n    /* \"#utility.yul\":1018:1095   */\n  0x4e487b7100000000000000000000000000000000000000000000000000000000\n    /* \"#utility.yul\":1015:1016   */\n  0x00\n    /* \"#utility.yul\":1008:1096   */\n  mstore\n    /* \"#utility.yul\":1115:1119   */\n  0x32\n    /* \"#utility.yul\":1112:1113   */\n  0x04\n    /* \"#utility.yul\":1105:1120   */\n  mstore\n    /* \"#utility.yul\":1139:1143   */\n  0x24\n    /* \"#utility.yul\":1136:1137   */\n  0x00\n    /* \"#utility.yul\":1129:1144   */\n  revert\n    /* \"Contracts/WarrantCanary v2.0.sol\":253:4408  contract WarrantCanary {\r... */\ntag_23:\n  dataSize(sub_0)\n  dup1\n  dataOffset(sub_0)\n  0x00\n  codecopy\n  0x00\n  return\nstop\n\nsub_0: assembly {\n        /* \"Contracts/WarrantCanary v2.0.sol\":253:4408  contract WarrantCanary {\r... */\n      mstore(0x40, 0x80)\n      callvalue\n      dup1\n      iszero\n      tag_1\n      jumpi\n      0x00\n      dup1\n      revert\n    tag_1:\n      pop\n      jumpi(tag_2, lt(calldatasize, 0x04))\n      shr(0xe0, calldataload(0x00))\n      dup1\n      0x20171645\n      eq\n      tag_3\n      jumpi\n      dup1\n      0x893d20e8\n      eq\n      tag_4\n      jumpi\n      dup1\n      0x89df6576\n      eq\n      tag_5\n      jumpi\n      dup1\n      0xb17564bf\n      eq\n      tag_6\n      jumpi\n      dup1\n      0xbb5cb5f5\n      eq\n      tag_7\n      jumpi\n      dup1\n      0xfa30aea2\n      eq\n      tag_8\n      jumpi\n    tag_2:\n      0x00\n      dup1\n      revert\n        /* \"Contracts/WarrantCanary v2.0.sol\":1548:1969  function killCanary(uint8 canaryID) public {\r... */\n    tag_3:\n      tag_9\n      0x04\n      dup1\n      calldatasize\n      sub\n      dup2\n      add\n      swap1\n      tag_10\n      swap2\n      swap1\n      tag_11\n      jump\t// in\n    tag_10:\n      tag_12\n      jump\t// in\n    tag_9:\n      stop\n        /* \"Contracts/WarrantCanary v2.0.sol\":2665:2746  function getOwner() view public returns (address) {\r... */\n    tag_4:\n      tag_13\n      tag_14\n      jump\t// in\n    tag_13:\n      mload(0x40)\n      tag_15\n      swap2\n      swap1\n      tag_16\n      jump\t// in\n    tag_15:\n      mload(0x40)\n      dup1\n      swap2\n      sub\n      swap1\n      return\n        /* \"Contracts/WarrantCanary v2.0.sol\":2455:2627  function getCanaryStatus(uint8 canaryID) view public returns (bool) {\r... */\n    tag_5:\n      tag_17\n      0x04\n      dup1\n      calldatasize\n      sub\n      dup2\n      add\n      swap1\n      tag_18\n      swap2\n      swap1\n      tag_11\n      jump\t// in\n    tag_18:\n      tag_19\n      jump\t// in\n    tag_17:\n      mload(0x40)\n      tag_20\n      swap2\n      swap1\n      tag_21\n      jump\t// in\n    tag_20:\n      mload(0x40)\n      dup1\n      swap2\n      sub\n      swap1\n      return\n        /* \"Contracts/WarrantCanary v2.0.sol\":2792:3461  function getAliveCanaries() view public returns (string[] memory) {\r... */\n    tag_6:\n      tag_22\n      tag_23\n      jump\t// in\n    tag_22:\n      mload(0x40)\n      tag_24\n      swap2\n      swap1\n      tag_25\n      jump\t// in\n    tag_24:\n      mload(0x40)\n      dup1\n      swap2\n      sub\n      swap1\n      return\n        /* \"Contracts/WarrantCanary v2.0.sol\":2032:2403  function reviveCanary(uint8 canaryID) public {\r... */\n    tag_7:\n      tag_26\n      0x04\n      dup1\n      calldatasize\n      sub\n      dup2\n      add\n      swap1\n      tag_27\n      swap2\n      swap1\n      tag_11\n      jump\t// in\n    tag_27:\n      tag_28\n      jump\t// in\n    tag_26:\n      stop\n        /* \"Contracts/WarrantCanary v2.0.sol\":3507:4173  function getDeadCanaries() view public returns (string[] memory) {\r... */\n    tag_8:\n      tag_29\n      tag_30\n      jump\t// in\n    tag_29:\n      mload(0x40)\n      tag_31\n      swap2\n      swap1\n      tag_25\n      jump\t// in\n    tag_31:\n      mload(0x40)\n      dup1\n      swap2\n      sub\n      swap1\n      return\n        /* \"Contracts/WarrantCanary v2.0.sol\":1548:1969  function killCanary(uint8 canaryID) public {\r... */\n    tag_12:\n        /* \"Contracts/WarrantCanary v2.0.sol\":1624:1629  owner */\n      0x01\n      0x00\n      swap1\n      sload\n      swap1\n      0x0100\n      exp\n      swap1\n      div\n      0xffffffffffffffffffffffffffffffffffffffff\n      and\n        /* \"Contracts/WarrantCanary v2.0.sol\":1610:1629  msg.sender == owner */\n      0xffffffffffffffffffffffffffffffffffffffff\n      and\n        /* \"Contracts/WarrantCanary v2.0.sol\":1610:1620  msg.sender */\n      caller\n        /* \"Contracts/WarrantCanary v2.0.sol\":1610:1629  msg.sender == owner */\n      0xffffffffffffffffffffffffffffffffffffffff\n      and\n      eq\n        /* \"Contracts/WarrantCanary v2.0.sol\":1602:1683  require(msg.sender == owner, \"Only the contract deployer can call this function\") */\n      tag_33\n      jumpi\n      mload(0x40)\n      0x08c379a000000000000000000000000000000000000000000000000000000000\n      dup2\n      mstore\n      0x04\n      add\n      tag_34\n      swap1\n      tag_35\n      jump\t// in\n    tag_34:\n      mload(0x40)\n      dup1\n      swap2\n      sub\n      swap1\n      revert\n    tag_33:\n        /* \"Contracts/WarrantCanary v2.0.sol\":1713:1715  10 */\n      0x0a\n        /* \"Contracts/WarrantCanary v2.0.sol\":1702:1710  canaryID */\n      dup2\n        /* \"Contracts/WarrantCanary v2.0.sol\":1702:1715  canaryID < 10 */\n      0xff\n      and\n      lt\n        /* \"Contracts/WarrantCanary v2.0.sol\":1694:1737  require(canaryID < 10, \"Invalid canary id\") */\n      tag_36\n      jumpi\n      mload(0x40)\n      0x08c379a000000000000000000000000000000000000000000000000000000000\n      dup2\n      mstore\n      0x04\n      add\n      tag_37\n      swap1\n      tag_38\n      jump\t// in\n    tag_37:\n      mload(0x40)\n      dup1\n      swap2\n      sub\n      swap1\n      revert\n    tag_36:\n        /* \"Contracts/WarrantCanary v2.0.sol\":1756:1764  canaries */\n      0x02\n        /* \"Contracts/WarrantCanary v2.0.sol\":1756:1774  canaries[canaryID] */\n      0x00\n        /* \"Contracts/WarrantCanary v2.0.sol\":1765:1773  canaryID */\n      dup3\n        /* \"Contracts/WarrantCanary v2.0.sol\":1756:1774  canaries[canaryID] */\n      0xff\n      and\n      0xff\n      and\n      dup2\n      mstore\n      0x20\n      add\n      swap1\n      dup2\n      mstore\n      0x20\n      add\n      0x00\n      keccak256\n        /* \"Contracts/WarrantCanary v2.0.sol\":1756:1780  canaries[canaryID].alive */\n      0x01\n      add\n      0x00\n      swap1\n      sload\n      swap1\n      0x0100\n      exp\n      swap1\n      div\n      0xff\n      and\n        /* \"Contracts/WarrantCanary v2.0.sol\":1748:1807  require(canaries[canaryID].alive, \"Canary is already dead\") */\n      tag_39\n      jumpi\n      mload(0x40)\n      0x08c379a000000000000000000000000000000000000000000000000000000000\n      dup2\n      mstore\n      0x04\n      add\n      tag_40\n      swap1\n      tag_41\n      jump\t// in\n    tag_40:\n      mload(0x40)\n      dup1\n      swap2\n      sub\n      swap1\n      revert\n    tag_39:\n        /* \"Contracts/WarrantCanary v2.0.sol\":1845:1850  false */\n      0x00\n        /* \"Contracts/WarrantCanary v2.0.sol\":1818:1826  canaries */\n      0x02\n        /* \"Contracts/WarrantCanary v2.0.sol\":1818:1836  canaries[canaryID] */\n      0x00\n        /* \"Contracts/WarrantCanary v2.0.sol\":1827:1835  canaryID */\n      dup4\n        /* \"Contracts/WarrantCanary v2.0.sol\":1818:1836  canaries[canaryID] */\n      0xff\n      and\n      0xff\n      and\n      dup2\n      mstore\n      0x20\n      add\n      swap1\n      dup2\n      mstore\n      0x20\n      add\n      0x00\n      keccak256\n        /* \"Contracts/WarrantCanary v2.0.sol\":1818:1842  canaries[canaryID].alive */\n      0x01\n      add\n      0x00\n        /* \"Contracts/WarrantCanary v2.0.sol\":1818:1850  canaries[canaryID].alive = false */\n      0x0100\n      exp\n      dup2\n      sload\n      dup2\n      0xff\n      mul\n      not\n      and\n      swap1\n      dup4\n      iszero\n      iszero\n      mul\n      or\n      swap1\n      sstore\n      pop\n        /* \"Contracts/WarrantCanary v2.0.sol\":1895:1907  block.number */\n      number\n        /* \"Contracts/WarrantCanary v2.0.sol\":1861:1869  canaries */\n      0x02\n        /* \"Contracts/WarrantCanary v2.0.sol\":1861:1879  canaries[canaryID] */\n      0x00\n        /* \"Contracts/WarrantCanary v2.0.sol\":1870:1878  canaryID */\n      dup4\n        /* \"Contracts/WarrantCanary v2.0.sol\":1861:1879  canaries[canaryID] */\n      0xff\n      and\n      0xff\n      and\n      dup2\n      mstore\n      0x20\n      add\n      swap1\n      dup2\n      mstore\n      0x20\n      add\n      0x00\n      keccak256\n        /* \"Contracts/WarrantCanary v2.0.sol\":1861:1892  canaries[canaryID].blockOfDeath */\n      0x02\n      add\n        /* \"Contracts/WarrantCanary v2.0.sol\":1861:1907  canaries[canaryID].blockOfDeath = block.number */\n      dup2\n      swap1\n      sstore\n      pop\n        /* \"Contracts/WarrantCanary v2.0.sol\":1927:1935  canaryID */\n      dup1\n        /* \"Contracts/WarrantCanary v2.0.sol\":1923:1961  RIP(canaryID, canaries[canaryID].name) */\n      0xff\n      and\n      0x7e6f4cbdcbccda9a2c35b312b52a640ec0fbd3f7c205e40d369a4b1861155646\n        /* \"Contracts/WarrantCanary v2.0.sol\":1937:1945  canaries */\n      0x02\n        /* \"Contracts/WarrantCanary v2.0.sol\":1937:1955  canaries[canaryID] */\n      0x00\n        /* \"Contracts/WarrantCanary v2.0.sol\":1946:1954  canaryID */\n      dup5\n        /* \"Contracts/WarrantCanary v2.0.sol\":1937:1955  canaries[canaryID] */\n      0xff\n      and\n      0xff\n      and\n      dup2\n      mstore\n      0x20\n      add\n      swap1\n      dup2\n      mstore\n      0x20\n      add\n      0x00\n      keccak256\n        /* \"Contracts/WarrantCanary v2.0.sol\":1937:1960  canaries[canaryID].name */\n      0x00\n      add\n        /* \"Contracts/WarrantCanary v2.0.sol\":1923:1961  RIP(canaryID, canaries[canaryID].name) */\n      mload(0x40)\n      tag_42\n      swap2\n      swap1\n      tag_43\n      jump\t// in\n    tag_42:\n      mload(0x40)\n      dup1\n      swap2\n      sub\n      swap1\n      log2\n        /* \"Contracts/WarrantCanary v2.0.sol\":1548:1969  function killCanary(uint8 canaryID) public {\r... */\n      pop\n      jump\t// out\n        /* \"Contracts/WarrantCanary v2.0.sol\":2665:2746  function getOwner() view public returns (address) {\r... */\n    tag_14:\n        /* \"Contracts/WarrantCanary v2.0.sol\":2706:2713  address */\n      0x00\n        /* \"Contracts/WarrantCanary v2.0.sol\":2733:2738  owner */\n      0x01\n      0x00\n      swap1\n      sload\n      swap1\n      0x0100\n      exp\n      swap1\n      div\n      0xffffffffffffffffffffffffffffffffffffffff\n      and\n        /* \"Contracts/WarrantCanary v2.0.sol\":2726:2738  return owner */\n      swap1\n      pop\n        /* \"Contracts/WarrantCanary v2.0.sol\":2665:2746  function getOwner() view public returns (address) {\r... */\n      swap1\n      jump\t// out\n        /* \"Contracts/WarrantCanary v2.0.sol\":2455:2627  function getCanaryStatus(uint8 canaryID) view public returns (bool) {\r... */\n    tag_19:\n        /* \"Contracts/WarrantCanary v2.0.sol\":2517:2521  bool */\n      0x00\n        /* \"Contracts/WarrantCanary v2.0.sol\":2553:2555  10 */\n      0x0a\n        /* \"Contracts/WarrantCanary v2.0.sol\":2542:2550  canaryID */\n      dup3\n        /* \"Contracts/WarrantCanary v2.0.sol\":2542:2555  canaryID < 10 */\n      0xff\n      and\n      lt\n        /* \"Contracts/WarrantCanary v2.0.sol\":2534:2577  require(canaryID < 10, \"Invalid canary id\") */\n      tag_46\n      jumpi\n      mload(0x40)\n      0x08c379a000000000000000000000000000000000000000000000000000000000\n      dup2\n      mstore\n      0x04\n      add\n      tag_47\n      swap1\n      tag_38\n      jump\t// in\n    tag_47:\n      mload(0x40)\n      dup1\n      swap2\n      sub\n      swap1\n      revert\n    tag_46:\n        /* \"Contracts/WarrantCanary v2.0.sol\":2595:2603  canaries */\n      0x02\n        /* \"Contracts/WarrantCanary v2.0.sol\":2595:2613  canaries[canaryID] */\n      0x00\n        /* \"Contracts/WarrantCanary v2.0.sol\":2604:2612  canaryID */\n      dup4\n        /* \"Contracts/WarrantCanary v2.0.sol\":2595:2613  canaries[canaryID] */\n      0xff\n      and\n      0xff\n      and\n      dup2\n      mstore\n      0x20\n      add\n      swap1\n      dup2\n      mstore\n      0x20\n      add\n      0x00\n      keccak256\n        /* \"Contracts/WarrantCanary v2.0.sol\":2595:2619  canaries[canaryID].alive */\n      0x01\n      add\n      0x00\n      swap1\n      sload\n      swap1\n      0x0100\n      exp\n      swap1\n      div\n      0xff\n      and\n        /* \"Contracts/WarrantCanary v2.0.sol\":2588:2619  return canaries[canaryID].alive */\n      swap1\n      pop\n        /* \"Contracts/WarrantCanary v2.0.sol\":2455:2627  function getCanaryStatus(uint8 canaryID) view public returns (bool) {\r... */\n      swap2\n      swap1\n      pop\n      jump\t// out\n        /* \"Contracts/WarrantCanary v2.0.sol\":2792:3461  function getAliveCanaries() view public returns (string[] memory) {\r... */\n    tag_23:\n        /* \"Contracts/WarrantCanary v2.0.sol\":2841:2856  string[] memory */\n      0x60\n        /* \"Contracts/WarrantCanary v2.0.sol\":2869:2896  string[] memory tmpCanaries */\n      0x00\n        /* \"Contracts/WarrantCanary v2.0.sol\":2912:2914  10 */\n      0x0a\n        /* \"Contracts/WarrantCanary v2.0.sol\":2899:2915  new string[](10) */\n      0xffffffffffffffff\n      dup2\n      gt\n      iszero\n      tag_49\n      jumpi\n      tag_50\n      tag_51\n      jump\t// in\n    tag_50:\n    tag_49:\n      mload(0x40)\n      swap1\n      dup1\n      dup3\n      mstore\n      dup1\n      0x20\n      mul\n      0x20\n      add\n      dup3\n      add\n      0x40\n      mstore\n      dup1\n      iszero\n      tag_52\n      jumpi\n      dup2\n      0x20\n      add\n    tag_53:\n      0x60\n      dup2\n      mstore\n      0x20\n      add\n      swap1\n      0x01\n      swap1\n      sub\n      swap1\n      dup2\n      tag_53\n      jumpi\n      swap1\n      pop\n    tag_52:\n      pop\n        /* \"Contracts/WarrantCanary v2.0.sol\":2869:2915  string[] memory tmpCanaries = new string[](10) */\n      swap1\n      pop\n        /* \"Contracts/WarrantCanary v2.0.sol\":2926:2937  uint8 count */\n      0x00\n        /* \"Contracts/WarrantCanary v2.0.sol\":2959:2966  uint8 i */\n      dup1\n        /* \"Contracts/WarrantCanary v2.0.sol\":2954:3128  for (uint8 i = 0; i < 10; ++i) {\r... */\n    tag_54:\n        /* \"Contracts/WarrantCanary v2.0.sol\":2976:2978  10 */\n      0x0a\n        /* \"Contracts/WarrantCanary v2.0.sol\":2972:2973  i */\n      dup2\n        /* \"Contracts/WarrantCanary v2.0.sol\":2972:2978  i < 10 */\n      0xff\n      and\n      lt\n        /* \"Contracts/WarrantCanary v2.0.sol\":2954:3128  for (uint8 i = 0; i < 10; ++i) {\r... */\n      iszero\n      tag_55\n      jumpi\n        /* \"Contracts/WarrantCanary v2.0.sol\":3004:3012  canaries */\n      0x02\n        /* \"Contracts/WarrantCanary v2.0.sol\":3004:3015  canaries[i] */\n      0x00\n        /* \"Contracts/WarrantCanary v2.0.sol\":3013:3014  i */\n      dup3\n        /* \"Contracts/WarrantCanary v2.0.sol\":3004:3015  canaries[i] */\n      0xff\n      and\n      0xff\n      and\n      dup2\n      mstore\n      0x20\n      add\n      swap1\n      dup2\n      mstore\n      0x20\n      add\n      0x00\n      keccak256\n        /* \"Contracts/WarrantCanary v2.0.sol\":3004:3021  canaries[i].alive */\n      0x01\n      add\n      0x00\n      swap1\n      sload\n      swap1\n      0x0100\n      exp\n      swap1\n      div\n      0xff\n      and\n        /* \"Contracts/WarrantCanary v2.0.sol\":3000:3117  if (canaries[i].alive) {\r... */\n      iszero\n      tag_57\n      jumpi\n        /* \"Contracts/WarrantCanary v2.0.sol\":3059:3067  canaries */\n      0x02\n        /* \"Contracts/WarrantCanary v2.0.sol\":3059:3070  canaries[i] */\n      0x00\n        /* \"Contracts/WarrantCanary v2.0.sol\":3068:3069  i */\n      dup3\n        /* \"Contracts/WarrantCanary v2.0.sol\":3059:3070  canaries[i] */\n      0xff\n      and\n      0xff\n      and\n      dup2\n      mstore\n      0x20\n      add\n      swap1\n      dup2\n      mstore\n      0x20\n      add\n      0x00\n      keccak256\n        /* \"Contracts/WarrantCanary v2.0.sol\":3059:3075  canaries[i].name */\n      0x00\n      add\n        /* \"Contracts/WarrantCanary v2.0.sol\":3042:3075  tmpCanaries[i] = canaries[i].name */\n      dup1\n      sload\n      tag_58\n      swap1\n      tag_59\n      jump\t// in\n    tag_58:\n      dup1\n      0x1f\n      add\n      0x20\n      dup1\n      swap2\n      div\n      mul\n      0x20\n      add\n      mload(0x40)\n      swap1\n      dup2\n      add\n      0x40\n      mstore\n      dup1\n      swap3\n      swap2\n      swap1\n      dup2\n      dup2\n      mstore\n      0x20\n      add\n      dup3\n      dup1\n      sload\n      tag_60\n      swap1\n      tag_59\n      jump\t// in\n    tag_60:\n      dup1\n      iszero\n      tag_61\n      jumpi\n      dup1\n      0x1f\n      lt\n      tag_62\n      jumpi\n      0x0100\n      dup1\n      dup4\n      sload\n      div\n      mul\n      dup4\n      mstore\n      swap2\n      0x20\n      add\n      swap2\n      jump(tag_61)\n    tag_62:\n      dup3\n      add\n      swap2\n      swap1\n      0x00\n      mstore\n      keccak256(0x00, 0x20)\n      swap1\n    tag_63:\n      dup2\n      sload\n      dup2\n      mstore\n      swap1\n      0x01\n      add\n      swap1\n      0x20\n      add\n      dup1\n      dup4\n      gt\n      tag_63\n      jumpi\n      dup3\n      swap1\n      sub\n      0x1f\n      and\n      dup3\n      add\n      swap2\n    tag_61:\n      pop\n      pop\n      pop\n      pop\n      pop\n        /* \"Contracts/WarrantCanary v2.0.sol\":3042:3053  tmpCanaries */\n      dup4\n        /* \"Contracts/WarrantCanary v2.0.sol\":3054:3055  i */\n      dup3\n        /* \"Contracts/WarrantCanary v2.0.sol\":3042:3056  tmpCanaries[i] */\n      0xff\n      and\n      dup2\n      mload\n      dup2\n      lt\n      tag_64\n      jumpi\n      tag_65\n      tag_66\n      jump\t// in\n    tag_65:\n    tag_64:\n      0x20\n      mul\n      0x20\n      add\n      add\n        /* \"Contracts/WarrantCanary v2.0.sol\":3042:3075  tmpCanaries[i] = canaries[i].name */\n      dup2\n      swap1\n      mstore\n      pop\n        /* \"Contracts/WarrantCanary v2.0.sol\":3094:3101  ++count */\n      dup2\n      tag_67\n      swap1\n      tag_68\n      jump\t// in\n    tag_67:\n      swap2\n      pop\n        /* \"Contracts/WarrantCanary v2.0.sol\":3000:3117  if (canaries[i].alive) {\r... */\n    tag_57:\n        /* \"Contracts/WarrantCanary v2.0.sol\":2980:2983  ++i */\n      dup1\n      tag_69\n      swap1\n      tag_68\n      jump\t// in\n    tag_69:\n      swap1\n      pop\n        /* \"Contracts/WarrantCanary v2.0.sol\":2954:3128  for (uint8 i = 0; i < 10; ++i) {\r... */\n      jump(tag_54)\n    tag_55:\n      pop\n        /* \"Contracts/WarrantCanary v2.0.sol\":3140:3169  string[] memory aliveCanaries */\n      0x00\n        /* \"Contracts/WarrantCanary v2.0.sol\":3185:3190  count */\n      dup2\n        /* \"Contracts/WarrantCanary v2.0.sol\":3172:3191  new string[](count) */\n      0xff\n      and\n      0xffffffffffffffff\n      dup2\n      gt\n      iszero\n      tag_70\n      jumpi\n      tag_71\n      tag_51\n      jump\t// in\n    tag_71:\n    tag_70:\n      mload(0x40)\n      swap1\n      dup1\n      dup3\n      mstore\n      dup1\n      0x20\n      mul\n      0x20\n      add\n      dup3\n      add\n      0x40\n      mstore\n      dup1\n      iszero\n      tag_72\n      jumpi\n      dup2\n      0x20\n      add\n    tag_73:\n      0x60\n      dup2\n      mstore\n      0x20\n      add\n      swap1\n      0x01\n      swap1\n      sub\n      swap1\n      dup2\n      tag_73\n      jumpi\n      swap1\n      pop\n    tag_72:\n      pop\n        /* \"Contracts/WarrantCanary v2.0.sol\":3140:3191  string[] memory aliveCanaries = new string[](count) */\n      swap1\n      pop\n        /* \"Contracts/WarrantCanary v2.0.sol\":3210:3211  0 */\n      0x00\n        /* \"Contracts/WarrantCanary v2.0.sol\":3202:3211  count = 0 */\n      swap2\n      pop\n        /* \"Contracts/WarrantCanary v2.0.sol\":3229:3236  uint8 i */\n      0x00\n        /* \"Contracts/WarrantCanary v2.0.sol\":3224:3417  for (uint8 i = 0; i < 10; ++i) {\r... */\n    tag_74:\n        /* \"Contracts/WarrantCanary v2.0.sol\":3246:3248  10 */\n      0x0a\n        /* \"Contracts/WarrantCanary v2.0.sol\":3242:3243  i */\n      dup2\n        /* \"Contracts/WarrantCanary v2.0.sol\":3242:3248  i < 10 */\n      0xff\n      and\n      lt\n        /* \"Contracts/WarrantCanary v2.0.sol\":3224:3417  for (uint8 i = 0; i < 10; ++i) {\r... */\n      iszero\n      tag_75\n      jumpi\n        /* \"Contracts/WarrantCanary v2.0.sol\":3305:3306  0 */\n      0x00\n        /* \"Contracts/WarrantCanary v2.0.sol\":3280:3291  tmpCanaries */\n      dup5\n        /* \"Contracts/WarrantCanary v2.0.sol\":3292:3293  i */\n      dup3\n        /* \"Contracts/WarrantCanary v2.0.sol\":3280:3294  tmpCanaries[i] */\n      0xff\n      and\n      dup2\n      mload\n      dup2\n      lt\n      tag_77\n      jumpi\n      tag_78\n      tag_66\n      jump\t// in\n    tag_78:\n    tag_77:\n      0x20\n      mul\n      0x20\n      add\n      add\n      mload\n        /* \"Contracts/WarrantCanary v2.0.sol\":3274:3302  bytes(tmpCanaries[i]).length */\n      mload\n        /* \"Contracts/WarrantCanary v2.0.sol\":3274:3306  bytes(tmpCanaries[i]).length > 0 */\n      gt\n        /* \"Contracts/WarrantCanary v2.0.sol\":3270:3406  if (bytes(tmpCanaries[i]).length > 0) {\r... */\n      iszero\n      tag_79\n      jumpi\n        /* \"Contracts/WarrantCanary v2.0.sol\":3350:3361  tmpCanaries */\n      dup4\n        /* \"Contracts/WarrantCanary v2.0.sol\":3362:3363  i */\n      dup2\n        /* \"Contracts/WarrantCanary v2.0.sol\":3350:3364  tmpCanaries[i] */\n      0xff\n      and\n      dup2\n      mload\n      dup2\n      lt\n      tag_80\n      jumpi\n      tag_81\n      tag_66\n      jump\t// in\n    tag_81:\n    tag_80:\n      0x20\n      mul\n      0x20\n      add\n      add\n      mload\n        /* \"Contracts/WarrantCanary v2.0.sol\":3327:3340  aliveCanaries */\n      dup3\n        /* \"Contracts/WarrantCanary v2.0.sol\":3341:3346  count */\n      dup5\n        /* \"Contracts/WarrantCanary v2.0.sol\":3327:3347  aliveCanaries[count] */\n      0xff\n      and\n      dup2\n      mload\n      dup2\n      lt\n      tag_82\n      jumpi\n      tag_83\n      tag_66\n      jump\t// in\n    tag_83:\n    tag_82:\n      0x20\n      mul\n      0x20\n      add\n      add\n        /* \"Contracts/WarrantCanary v2.0.sol\":3327:3364  aliveCanaries[count] = tmpCanaries[i] */\n      dup2\n      swap1\n      mstore\n      pop\n        /* \"Contracts/WarrantCanary v2.0.sol\":3383:3390  ++count */\n      dup3\n      tag_84\n      swap1\n      tag_68\n      jump\t// in\n    tag_84:\n      swap3\n      pop\n        /* \"Contracts/WarrantCanary v2.0.sol\":3270:3406  if (bytes(tmpCanaries[i]).length > 0) {\r... */\n    tag_79:\n        /* \"Contracts/WarrantCanary v2.0.sol\":3250:3253  ++i */\n      dup1\n      tag_85\n      swap1\n      tag_68\n      jump\t// in\n    tag_85:\n      swap1\n      pop\n        /* \"Contracts/WarrantCanary v2.0.sol\":3224:3417  for (uint8 i = 0; i < 10; ++i) {\r... */\n      jump(tag_74)\n    tag_75:\n      pop\n        /* \"Contracts/WarrantCanary v2.0.sol\":3440:3453  aliveCanaries */\n      dup1\n        /* \"Contracts/WarrantCanary v2.0.sol\":3433:3453  return aliveCanaries */\n      swap4\n      pop\n      pop\n      pop\n      pop\n        /* \"Contracts/WarrantCanary v2.0.sol\":2792:3461  function getAliveCanaries() view public returns (string[] memory) {\r... */\n      swap1\n      jump\t// out\n        /* \"Contracts/WarrantCanary v2.0.sol\":2032:2403  function reviveCanary(uint8 canaryID) public {\r... */\n    tag_28:\n        /* \"Contracts/WarrantCanary v2.0.sol\":2110:2115  owner */\n      0x01\n      0x00\n      swap1\n      sload\n      swap1\n      0x0100\n      exp\n      swap1\n      div\n      0xffffffffffffffffffffffffffffffffffffffff\n      and\n        /* \"Contracts/WarrantCanary v2.0.sol\":2096:2115  msg.sender == owner */\n      0xffffffffffffffffffffffffffffffffffffffff\n      and\n        /* \"Contracts/WarrantCanary v2.0.sol\":2096:2106  msg.sender */\n      caller\n        /* \"Contracts/WarrantCanary v2.0.sol\":2096:2115  msg.sender == owner */\n      0xffffffffffffffffffffffffffffffffffffffff\n      and\n      eq\n        /* \"Contracts/WarrantCanary v2.0.sol\":2088:2169  require(msg.sender == owner, \"Only the contract deployer can call this function\") */\n      tag_87\n      jumpi\n      mload(0x40)\n      0x08c379a000000000000000000000000000000000000000000000000000000000\n      dup2\n      mstore\n      0x04\n      add\n      tag_88\n      swap1\n      tag_35\n      jump\t// in\n    tag_88:\n      mload(0x40)\n      dup1\n      swap2\n      sub\n      swap1\n      revert\n    tag_87:\n        /* \"Contracts/WarrantCanary v2.0.sol\":2199:2201  10 */\n      0x0a\n        /* \"Contracts/WarrantCanary v2.0.sol\":2188:2196  canaryID */\n      dup2\n        /* \"Contracts/WarrantCanary v2.0.sol\":2188:2201  canaryID < 10 */\n      0xff\n      and\n      lt\n        /* \"Contracts/WarrantCanary v2.0.sol\":2180:2223  require(canaryID < 10, \"Invalid canary id\") */\n      tag_89\n      jumpi\n      mload(0x40)\n      0x08c379a000000000000000000000000000000000000000000000000000000000\n      dup2\n      mstore\n      0x04\n      add\n      tag_90\n      swap1\n      tag_38\n      jump\t// in\n    tag_90:\n      mload(0x40)\n      dup1\n      swap2\n      sub\n      swap1\n      revert\n    tag_89:\n        /* \"Contracts/WarrantCanary v2.0.sol\":2243:2251  canaries */\n      0x02\n        /* \"Contracts/WarrantCanary v2.0.sol\":2243:2261  canaries[canaryID] */\n      0x00\n        /* \"Contracts/WarrantCanary v2.0.sol\":2252:2260  canaryID */\n      dup3\n        /* \"Contracts/WarrantCanary v2.0.sol\":2243:2261  canaries[canaryID] */\n      0xff\n      and\n      0xff\n      and\n      dup2\n      mstore\n      0x20\n      add\n      swap1\n      dup2\n      mstore\n      0x20\n      add\n      0x00\n      keccak256\n        /* \"Contracts/WarrantCanary v2.0.sol\":2243:2267  canaries[canaryID].alive */\n      0x01\n      add\n      0x00\n      swap1\n      sload\n      swap1\n      0x0100\n      exp\n      swap1\n      div\n      0xff\n      and\n        /* \"Contracts/WarrantCanary v2.0.sol\":2242:2267  !canaries[canaryID].alive */\n      iszero\n        /* \"Contracts/WarrantCanary v2.0.sol\":2234:2295  require(!canaries[canaryID].alive, \"Canary is already alive\") */\n      tag_91\n      jumpi\n      mload(0x40)\n      0x08c379a000000000000000000000000000000000000000000000000000000000\n      dup2\n      mstore\n      0x04\n      add\n      tag_92\n      swap1\n      tag_93\n      jump\t// in\n    tag_92:\n      mload(0x40)\n      dup1\n      swap2\n      sub\n      swap1\n      revert\n    tag_91:\n        /* \"Contracts/WarrantCanary v2.0.sol\":2333:2337  true */\n      0x01\n        /* \"Contracts/WarrantCanary v2.0.sol\":2306:2314  canaries */\n      0x02\n        /* \"Contracts/WarrantCanary v2.0.sol\":2306:2324  canaries[canaryID] */\n      0x00\n        /* \"Contracts/WarrantCanary v2.0.sol\":2315:2323  canaryID */\n      dup4\n        /* \"Contracts/WarrantCanary v2.0.sol\":2306:2324  canaries[canaryID] */\n      0xff\n      and\n      0xff\n      and\n      dup2\n      mstore\n      0x20\n      add\n      swap1\n      dup2\n      mstore\n      0x20\n      add\n      0x00\n      keccak256\n        /* \"Contracts/WarrantCanary v2.0.sol\":2306:2330  canaries[canaryID].alive */\n      0x01\n      add\n      0x00\n        /* \"Contracts/WarrantCanary v2.0.sol\":2306:2337  canaries[canaryID].alive = true */\n      0x0100\n      exp\n      dup2\n      sload\n      dup2\n      0xff\n      mul\n      not\n      and\n      swap1\n      dup4\n      iszero\n      iszero\n      mul\n      or\n      swap1\n      sstore\n      pop\n        /* \"Contracts/WarrantCanary v2.0.sol\":2361:2369  canaryID */\n      dup1\n        /* \"Contracts/WarrantCanary v2.0.sol\":2353:2395  REVIVED(canaryID, canaries[canaryID].name) */\n      0xff\n      and\n      0xf51aa7c1a8a302a35b139f6ac186cfeaf3d5db207064b76ec7aacca01f29bf3c\n        /* \"Contracts/WarrantCanary v2.0.sol\":2371:2379  canaries */\n      0x02\n        /* \"Contracts/WarrantCanary v2.0.sol\":2371:2389  canaries[canaryID] */\n      0x00\n        /* \"Contracts/WarrantCanary v2.0.sol\":2380:2388  canaryID */\n      dup5\n        /* \"Contracts/WarrantCanary v2.0.sol\":2371:2389  canaries[canaryID] */\n      0xff\n      and\n      0xff\n      and\n      dup2\n      mstore\n      0x20\n      add\n      swap1\n      dup2\n      mstore\n      0x20\n      add\n      0x00\n      keccak256\n        /* \"Contracts/WarrantCanary v2.0.sol\":2371:2394  canaries[canaryID].name */\n      0x00\n      add\n        /* \"Contracts/WarrantCanary v2.0.sol\":2353:2395  REVIVED(canaryID, canaries[canaryID].name) */\n      mload(0x40)\n      tag_94\n      swap2\n      swap1\n      tag_43\n      jump\t// in\n    tag_94:\n      mload(0x40)\n      dup1\n      swap2\n      sub\n      swap1\n      log2\n        /* \"Contracts/WarrantCanary v2.0.sol\":2032:2403  function reviveCanary(uint8 canaryID) public {\r... */\n      pop\n      jump\t// out\n        /* \"Contracts/WarrantCanary v2.0.sol\":3507:4173  function getDeadCanaries() view public returns (string[] memory) {\r... */\n    tag_30:\n        /* \"Contracts/WarrantCanary v2.0.sol\":3555:3570  string[] memory */\n      0x60\n        /* \"Contracts/WarrantCanary v2.0.sol\":3583:3610  string[] memory tmpCanaries */\n      0x00\n        /* \"Contracts/WarrantCanary v2.0.sol\":3626:3628  10 */\n      0x0a\n        /* \"Contracts/WarrantCanary v2.0.sol\":3613:3629  new string[](10) */\n      0xffffffffffffffff\n      dup2\n      gt\n      iszero\n      tag_96\n      jumpi\n      tag_97\n      tag_51\n      jump\t// in\n    tag_97:\n    tag_96:\n      mload(0x40)\n      swap1\n      dup1\n      dup3\n      mstore\n      dup1\n      0x20\n      mul\n      0x20\n      add\n      dup3\n      add\n      0x40\n      mstore\n      dup1\n      iszero\n      tag_98\n      jumpi\n      dup2\n      0x20\n      add\n    tag_99:\n      0x60\n      dup2\n      mstore\n      0x20\n      add\n      swap1\n      0x01\n      swap1\n      sub\n      swap1\n      dup2\n      tag_99\n      jumpi\n      swap1\n      pop\n    tag_98:\n      pop\n        /* \"Contracts/WarrantCanary v2.0.sol\":3583:3629  string[] memory tmpCanaries = new string[](10) */\n      swap1\n      pop\n        /* \"Contracts/WarrantCanary v2.0.sol\":3640:3651  uint8 count */\n      0x00\n        /* \"Contracts/WarrantCanary v2.0.sol\":3673:3680  uint8 i */\n      dup1\n        /* \"Contracts/WarrantCanary v2.0.sol\":3668:3843  for (uint8 i = 0; i < 10; ++i) {\r... */\n    tag_100:\n        /* \"Contracts/WarrantCanary v2.0.sol\":3690:3692  10 */\n      0x0a\n        /* \"Contracts/WarrantCanary v2.0.sol\":3686:3687  i */\n      dup2\n        /* \"Contracts/WarrantCanary v2.0.sol\":3686:3692  i < 10 */\n      0xff\n      and\n      lt\n        /* \"Contracts/WarrantCanary v2.0.sol\":3668:3843  for (uint8 i = 0; i < 10; ++i) {\r... */\n      iszero\n      tag_101\n      jumpi\n        /* \"Contracts/WarrantCanary v2.0.sol\":3719:3727  canaries */\n      0x02\n        /* \"Contracts/WarrantCanary v2.0.sol\":3719:3730  canaries[i] */\n      0x00\n        /* \"Contracts/WarrantCanary v2.0.sol\":3728:3729  i */\n      dup3\n        /* \"Contracts/WarrantCanary v2.0.sol\":3719:3730  canaries[i] */\n      0xff\n      and\n      0xff\n      and\n      dup2\n      mstore\n      0x20\n      add\n      swap1\n      dup2\n      mstore\n      0x20\n      add\n      0x00\n      keccak256\n        /* \"Contracts/WarrantCanary v2.0.sol\":3719:3736  canaries[i].alive */\n      0x01\n      add\n      0x00\n      swap1\n      sload\n      swap1\n      0x0100\n      exp\n      swap1\n      div\n      0xff\n      and\n        /* \"Contracts/WarrantCanary v2.0.sol\":3714:3832  if (!canaries[i].alive) {\r... */\n      tag_103\n      jumpi\n        /* \"Contracts/WarrantCanary v2.0.sol\":3774:3782  canaries */\n      0x02\n        /* \"Contracts/WarrantCanary v2.0.sol\":3774:3785  canaries[i] */\n      0x00\n        /* \"Contracts/WarrantCanary v2.0.sol\":3783:3784  i */\n      dup3\n        /* \"Contracts/WarrantCanary v2.0.sol\":3774:3785  canaries[i] */\n      0xff\n      and\n      0xff\n      and\n      dup2\n      mstore\n      0x20\n      add\n      swap1\n      dup2\n      mstore\n      0x20\n      add\n      0x00\n      keccak256\n        /* \"Contracts/WarrantCanary v2.0.sol\":3774:3790  canaries[i].name */\n      0x00\n      add\n        /* \"Contracts/WarrantCanary v2.0.sol\":3757:3790  tmpCanaries[i] = canaries[i].name */\n      dup1\n      sload\n      tag_104\n      swap1\n      tag_59\n      jump\t// in\n    tag_104:\n      dup1\n      0x1f\n      add\n      0x20\n      dup1\n      swap2\n      div\n      mul\n      0x20\n      add\n      mload(0x40)\n      swap1\n      dup2\n      add\n      0x40\n      mstore\n      dup1\n      swap3\n      swap2\n      swap1\n      dup2\n      dup2\n      mstore\n      0x20\n      add\n      dup3\n      dup1\n      sload\n      tag_105\n      swap1\n      tag_59\n      jump\t// in\n    tag_105:\n      dup1\n      iszero\n      tag_106\n      jumpi\n      dup1\n      0x1f\n      lt\n      tag_107\n      jumpi\n      0x0100\n      dup1\n      dup4\n      sload\n      div\n      mul\n      dup4\n      mstore\n      swap2\n      0x20\n      add\n      swap2\n      jump(tag_106)\n    tag_107:\n      dup3\n      add\n      swap2\n      swap1\n      0x00\n      mstore\n      keccak256(0x00, 0x20)\n      swap1\n    tag_108:\n      dup2\n      sload\n      dup2\n      mstore\n      swap1\n      0x01\n      add\n      swap1\n      0x20\n      add\n      dup1\n      dup4\n      gt\n      tag_108\n      jumpi\n      dup3\n      swap1\n      sub\n      0x1f\n      and\n      dup3\n      add\n      swap2\n    tag_106:\n      pop\n      pop\n      pop\n      pop\n      pop\n        /* \"Contracts/WarrantCanary v2.0.sol\":3757:3768  tmpCanaries */\n      dup4\n        /* \"Contracts/WarrantCanary v2.0.sol\":3769:3770  i */\n      dup3\n        /* \"Contracts/WarrantCanary v2.0.sol\":3757:3771  tmpCanaries[i] */\n      0xff\n      and\n      dup2\n      mload\n      dup2\n      lt\n      tag_109\n      jumpi\n      tag_110\n      tag_66\n      jump\t// in\n    tag_110:\n    tag_109:\n      0x20\n      mul\n      0x20\n      add\n      add\n        /* \"Contracts/WarrantCanary v2.0.sol\":3757:3790  tmpCanaries[i] = canaries[i].name */\n      dup2\n      swap1\n      mstore\n      pop\n        /* \"Contracts/WarrantCanary v2.0.sol\":3809:3816  ++count */\n      dup2\n      tag_111\n      swap1\n      tag_68\n      jump\t// in\n    tag_111:\n      swap2\n      pop\n        /* \"Contracts/WarrantCanary v2.0.sol\":3714:3832  if (!canaries[i].alive) {\r... */\n    tag_103:\n        /* \"Contracts/WarrantCanary v2.0.sol\":3694:3697  ++i */\n      dup1\n      tag_112\n      swap1\n      tag_68\n      jump\t// in\n    tag_112:\n      swap1\n      pop\n        /* \"Contracts/WarrantCanary v2.0.sol\":3668:3843  for (uint8 i = 0; i < 10; ++i) {\r... */\n      jump(tag_100)\n    tag_101:\n      pop\n        /* \"Contracts/WarrantCanary v2.0.sol\":3855:3883  string[] memory deadCanaries */\n      0x00\n        /* \"Contracts/WarrantCanary v2.0.sol\":3899:3904  count */\n      dup2\n        /* \"Contracts/WarrantCanary v2.0.sol\":3886:3905  new string[](count) */\n      0xff\n      and\n      0xffffffffffffffff\n      dup2\n      gt\n      iszero\n      tag_113\n      jumpi\n      tag_114\n      tag_51\n      jump\t// in\n    tag_114:\n    tag_113:\n      mload(0x40)\n      swap1\n      dup1\n      dup3\n      mstore\n      dup1\n      0x20\n      mul\n      0x20\n      add\n      dup3\n      add\n      0x40\n      mstore\n      dup1\n      iszero\n      tag_115\n      jumpi\n      dup2\n      0x20\n      add\n    tag_116:\n      0x60\n      dup2\n      mstore\n      0x20\n      add\n      swap1\n      0x01\n      swap1\n      sub\n      swap1\n      dup2\n      tag_116\n      jumpi\n      swap1\n      pop\n    tag_115:\n      pop\n        /* \"Contracts/WarrantCanary v2.0.sol\":3855:3905  string[] memory deadCanaries = new string[](count) */\n      swap1\n      pop\n        /* \"Contracts/WarrantCanary v2.0.sol\":3924:3925  0 */\n      0x00\n        /* \"Contracts/WarrantCanary v2.0.sol\":3916:3925  count = 0 */\n      swap2\n      pop\n        /* \"Contracts/WarrantCanary v2.0.sol\":3943:3950  uint8 i */\n      0x00\n        /* \"Contracts/WarrantCanary v2.0.sol\":3938:4130  for (uint8 i = 0; i < 10; ++i) {\r... */\n    tag_117:\n        /* \"Contracts/WarrantCanary v2.0.sol\":3960:3962  10 */\n      0x0a\n        /* \"Contracts/WarrantCanary v2.0.sol\":3956:3957  i */\n      dup2\n        /* \"Contracts/WarrantCanary v2.0.sol\":3956:3962  i < 10 */\n      0xff\n      and\n      lt\n        /* \"Contracts/WarrantCanary v2.0.sol\":3938:4130  for (uint8 i = 0; i < 10; ++i) {\r... */\n      iszero\n      tag_118\n      jumpi\n        /* \"Contracts/WarrantCanary v2.0.sol\":4019:4020  0 */\n      0x00\n        /* \"Contracts/WarrantCanary v2.0.sol\":3994:4005  tmpCanaries */\n      dup5\n        /* \"Contracts/WarrantCanary v2.0.sol\":4006:4007  i */\n      dup3\n        /* \"Contracts/WarrantCanary v2.0.sol\":3994:4008  tmpCanaries[i] */\n      0xff\n      and\n      dup2\n      mload\n      dup2\n      lt\n      tag_120\n      jumpi\n      tag_121\n      tag_66\n      jump\t// in\n    tag_121:\n    tag_120:\n      0x20\n      mul\n      0x20\n      add\n      add\n      mload\n        /* \"Contracts/WarrantCanary v2.0.sol\":3988:4016  bytes(tmpCanaries[i]).length */\n      mload\n        /* \"Contracts/WarrantCanary v2.0.sol\":3988:4020  bytes(tmpCanaries[i]).length > 0 */\n      gt\n        /* \"Contracts/WarrantCanary v2.0.sol\":3984:4119  if (bytes(tmpCanaries[i]).length > 0) {\r... */\n      iszero\n      tag_122\n      jumpi\n        /* \"Contracts/WarrantCanary v2.0.sol\":4063:4074  tmpCanaries */\n      dup4\n        /* \"Contracts/WarrantCanary v2.0.sol\":4075:4076  i */\n      dup2\n        /* \"Contracts/WarrantCanary v2.0.sol\":4063:4077  tmpCanaries[i] */\n      0xff\n      and\n      dup2\n      mload\n      dup2\n      lt\n      tag_123\n      jumpi\n      tag_124\n      tag_66\n      jump\t// in\n    tag_124:\n    tag_123:\n      0x20\n      mul\n      0x20\n      add\n      add\n      mload\n        /* \"Contracts/WarrantCanary v2.0.sol\":4041:4053  deadCanaries */\n      dup3\n        /* \"Contracts/WarrantCanary v2.0.sol\":4054:4059  count */\n      dup5\n        /* \"Contracts/WarrantCanary v2.0.sol\":4041:4060  deadCanaries[count] */\n      0xff\n      and\n      dup2\n      mload\n      dup2\n      lt\n      tag_125\n      jumpi\n      tag_126\n      tag_66\n      jump\t// in\n    tag_126:\n    tag_125:\n      0x20\n      mul\n      0x20\n      add\n      add\n        /* \"Contracts/WarrantCanary v2.0.sol\":4041:4077  deadCanaries[count] = tmpCanaries[i] */\n      dup2\n      swap1\n      mstore\n      pop\n        /* \"Contracts/WarrantCanary v2.0.sol\":4096:4103  ++count */\n      dup3\n      tag_127\n      swap1\n      tag_68\n      jump\t// in\n    tag_127:\n      swap3\n      pop\n        /* \"Contracts/WarrantCanary v2.0.sol\":3984:4119  if (bytes(tmpCanaries[i]).length > 0) {\r... */\n    tag_122:\n        /* \"Contracts/WarrantCanary v2.0.sol\":3964:3967  ++i */\n      dup1\n      tag_128\n      swap1\n      tag_68\n      jump\t// in\n    tag_128:\n      swap1\n      pop\n        /* \"Contracts/WarrantCanary v2.0.sol\":3938:4130  for (uint8 i = 0; i < 10; ++i) {\r... */\n      jump(tag_117)\n    tag_118:\n      pop\n        /* \"Contracts/WarrantCanary v2.0.sol\":4153:4165  deadCanaries */\n      dup1\n        /* \"Contracts/WarrantCanary v2.0.sol\":4146:4165  return deadCanaries */\n      swap4\n      pop\n      pop\n      pop\n      pop\n        /* \"Contracts/WarrantCanary v2.0.sol\":3507:4173  function getDeadCanaries() view public returns (string[] memory) {\r... */\n      swap1\n      jump\t// out\n        /* \"#utility.yul\":7:142   */\n    tag_130:\n        /* \"#utility.yul\":51:56   */\n      0x00\n        /* \"#utility.yul\":89:95   */\n      dup2\n        /* \"#utility.yul\":76:96   */\n      calldataload\n        /* \"#utility.yul\":67:96   */\n      swap1\n      pop\n        /* \"#utility.yul\":105:136   */\n      tag_132\n        /* \"#utility.yul\":130:135   */\n      dup2\n        /* \"#utility.yul\":105:136   */\n      tag_133\n      jump\t// in\n    tag_132:\n        /* \"#utility.yul\":7:142   */\n      swap3\n      swap2\n      pop\n      pop\n      jump\t// out\n        /* \"#utility.yul\":148:473   */\n    tag_11:\n        /* \"#utility.yul\":205:211   */\n      0x00\n        /* \"#utility.yul\":254:256   */\n      0x20\n        /* \"#utility.yul\":242:251   */\n      dup3\n        /* \"#utility.yul\":233:240   */\n      dup5\n        /* \"#utility.yul\":229:252   */\n      sub\n        /* \"#utility.yul\":225:257   */\n      slt\n        /* \"#utility.yul\":222:341   */\n      iszero\n      tag_135\n      jumpi\n        /* \"#utility.yul\":260:339   */\n      tag_136\n      tag_137\n      jump\t// in\n    tag_136:\n        /* \"#utility.yul\":222:341   */\n    tag_135:\n        /* \"#utility.yul\":380:381   */\n      0x00\n        /* \"#utility.yul\":405:456   */\n      tag_138\n        /* \"#utility.yul\":448:455   */\n      dup5\n        /* \"#utility.yul\":439:445   */\n      dup3\n        /* \"#utility.yul\":428:437   */\n      dup6\n        /* \"#utility.yul\":424:446   */\n      add\n        /* \"#utility.yul\":405:456   */\n      tag_130\n      jump\t// in\n    tag_138:\n        /* \"#utility.yul\":395:456   */\n      swap2\n      pop\n        /* \"#utility.yul\":351:466   */\n      pop\n        /* \"#utility.yul\":148:473   */\n      swap3\n      swap2\n      pop\n      pop\n      jump\t// out\n        /* \"#utility.yul\":479:675   */\n    tag_139:\n        /* \"#utility.yul\":568:578   */\n      0x00\n        /* \"#utility.yul\":603:669   */\n      tag_141\n        /* \"#utility.yul\":665:668   */\n      dup4\n        /* \"#utility.yul\":657:663   */\n      dup4\n        /* \"#utility.yul\":603:669   */\n      tag_142\n      jump\t// in\n    tag_141:\n        /* \"#utility.yul\":589:669   */\n      swap1\n      pop\n        /* \"#utility.yul\":479:675   */\n      swap3\n      swap2\n      pop\n      pop\n      jump\t// out\n        /* \"#utility.yul\":681:799   */\n    tag_143:\n        /* \"#utility.yul\":768:792   */\n      tag_145\n        /* \"#utility.yul\":786:791   */\n      dup2\n        /* \"#utility.yul\":768:792   */\n      tag_146\n      jump\t// in\n    tag_145:\n        /* \"#utility.yul\":763:766   */\n      dup3\n        /* \"#utility.yul\":756:793   */\n      mstore\n        /* \"#utility.yul\":681:799   */\n      pop\n      pop\n      jump\t// out\n        /* \"#utility.yul\":833:1824   */\n    tag_147:\n        /* \"#utility.yul\":972:975   */\n      0x00\n        /* \"#utility.yul\":1001:1065   */\n      tag_149\n        /* \"#utility.yul\":1059:1064   */\n      dup3\n        /* \"#utility.yul\":1001:1065   */\n      tag_150\n      jump\t// in\n    tag_149:\n        /* \"#utility.yul\":1081:1177   */\n      tag_151\n        /* \"#utility.yul\":1170:1176   */\n      dup2\n        /* \"#utility.yul\":1165:1168   */\n      dup6\n        /* \"#utility.yul\":1081:1177   */\n      tag_152\n      jump\t// in\n    tag_151:\n        /* \"#utility.yul\":1074:1177   */\n      swap4\n      pop\n        /* \"#utility.yul\":1203:1206   */\n      dup4\n        /* \"#utility.yul\":1248:1252   */\n      0x20\n        /* \"#utility.yul\":1240:1246   */\n      dup3\n        /* \"#utility.yul\":1236:1253   */\n      mul\n        /* \"#utility.yul\":1231:1234   */\n      dup6\n        /* \"#utility.yul\":1227:1254   */\n      add\n        /* \"#utility.yul\":1278:1344   */\n      tag_153\n        /* \"#utility.yul\":1338:1343   */\n      dup6\n        /* \"#utility.yul\":1278:1344   */\n      tag_154\n      jump\t// in\n    tag_153:\n        /* \"#utility.yul\":1367:1374   */\n      dup1\n        /* \"#utility.yul\":1398:1399   */\n      0x00\n        /* \"#utility.yul\":1383:1779   */\n    tag_155:\n        /* \"#utility.yul\":1408:1414   */\n      dup6\n        /* \"#utility.yul\":1405:1406   */\n      dup2\n        /* \"#utility.yul\":1402:1415   */\n      lt\n        /* \"#utility.yul\":1383:1779   */\n      iszero\n      tag_157\n      jumpi\n        /* \"#utility.yul\":1479:1488   */\n      dup5\n        /* \"#utility.yul\":1473:1477   */\n      dup5\n        /* \"#utility.yul\":1469:1489   */\n      sub\n        /* \"#utility.yul\":1464:1467   */\n      dup10\n        /* \"#utility.yul\":1457:1490   */\n      mstore\n        /* \"#utility.yul\":1530:1536   */\n      dup2\n        /* \"#utility.yul\":1524:1537   */\n      mload\n        /* \"#utility.yul\":1558:1642   */\n      tag_158\n        /* \"#utility.yul\":1637:1641   */\n      dup6\n        /* \"#utility.yul\":1622:1635   */\n      dup3\n        /* \"#utility.yul\":1558:1642   */\n      tag_139\n      jump\t// in\n    tag_158:\n        /* \"#utility.yul\":1550:1642   */\n      swap5\n      pop\n        /* \"#utility.yul\":1665:1735   */\n      tag_159\n        /* \"#utility.yul\":1728:1734   */\n      dup4\n        /* \"#utility.yul\":1665:1735   */\n      tag_160\n      jump\t// in\n    tag_159:\n        /* \"#utility.yul\":1655:1735   */\n      swap3\n      pop\n        /* \"#utility.yul\":1764:1768   */\n      0x20\n        /* \"#utility.yul\":1759:1762   */\n      dup11\n        /* \"#utility.yul\":1755:1769   */\n      add\n        /* \"#utility.yul\":1748:1769   */\n      swap10\n      pop\n        /* \"#utility.yul\":1443:1779   */\n      pop\n        /* \"#utility.yul\":1430:1431   */\n      0x01\n        /* \"#utility.yul\":1427:1428   */\n      dup2\n        /* \"#utility.yul\":1423:1432   */\n      add\n        /* \"#utility.yul\":1418:1432   */\n      swap1\n      pop\n        /* \"#utility.yul\":1383:1779   */\n      jump(tag_155)\n    tag_157:\n        /* \"#utility.yul\":1387:1401   */\n      pop\n        /* \"#utility.yul\":1795:1799   */\n      dup3\n        /* \"#utility.yul\":1788:1799   */\n      swap8\n      pop\n        /* \"#utility.yul\":1815:1818   */\n      dup8\n        /* \"#utility.yul\":1808:1818   */\n      swap6\n      pop\n        /* \"#utility.yul\":977:1824   */\n      pop\n      pop\n      pop\n      pop\n      pop\n        /* \"#utility.yul\":833:1824   */\n      swap3\n      swap2\n      pop\n      pop\n      jump\t// out\n        /* \"#utility.yul\":1830:1939   */\n    tag_161:\n        /* \"#utility.yul\":1911:1932   */\n      tag_163\n        /* \"#utility.yul\":1926:1931   */\n      dup2\n        /* \"#utility.yul\":1911:1932   */\n      tag_164\n      jump\t// in\n    tag_163:\n        /* \"#utility.yul\":1906:1909   */\n      dup3\n        /* \"#utility.yul\":1899:1933   */\n      mstore\n        /* \"#utility.yul\":1830:1939   */\n      pop\n      pop\n      jump\t// out\n        /* \"#utility.yul\":1945:2289   */\n    tag_142:\n        /* \"#utility.yul\":2023:2026   */\n      0x00\n        /* \"#utility.yul\":2051:2090   */\n      tag_166\n        /* \"#utility.yul\":2084:2089   */\n      dup3\n        /* \"#utility.yul\":2051:2090   */\n      tag_167\n      jump\t// in\n    tag_166:\n        /* \"#utility.yul\":2106:2167   */\n      tag_168\n        /* \"#utility.yul\":2160:2166   */\n      dup2\n        /* \"#utility.yul\":2155:2158   */\n      dup6\n        /* \"#utility.yul\":2106:2167   */\n      tag_169\n      jump\t// in\n    tag_168:\n        /* \"#utility.yul\":2099:2167   */\n      swap4\n      pop\n        /* \"#utility.yul\":2176:2228   */\n      tag_170\n        /* \"#utility.yul\":2221:2227   */\n      dup2\n        /* \"#utility.yul\":2216:2219   */\n      dup6\n        /* \"#utility.yul\":2209:2213   */\n      0x20\n        /* \"#utility.yul\":2202:2207   */\n      dup7\n        /* \"#utility.yul\":2198:2214   */\n      add\n        /* \"#utility.yul\":2176:2228   */\n      tag_171\n      jump\t// in\n    tag_170:\n        /* \"#utility.yul\":2253:2282   */\n      tag_172\n        /* \"#utility.yul\":2275:2281   */\n      dup2\n        /* \"#utility.yul\":2253:2282   */\n      tag_173\n      jump\t// in\n    tag_172:\n        /* \"#utility.yul\":2248:2251   */\n      dup5\n        /* \"#utility.yul\":2244:2283   */\n      add\n        /* \"#utility.yul\":2237:2283   */\n      swap2\n      pop\n        /* \"#utility.yul\":2027:2289   */\n      pop\n        /* \"#utility.yul\":1945:2289   */\n      swap3\n      swap2\n      pop\n      pop\n      jump\t// out\n        /* \"#utility.yul\":2319:3121   */\n    tag_174:\n        /* \"#utility.yul\":2404:2407   */\n      0x00\n        /* \"#utility.yul\":2441:2446   */\n      dup2\n        /* \"#utility.yul\":2435:2447   */\n      sload\n        /* \"#utility.yul\":2470:2506   */\n      tag_176\n        /* \"#utility.yul\":2496:2505   */\n      dup2\n        /* \"#utility.yul\":2470:2506   */\n      tag_59\n      jump\t// in\n    tag_176:\n        /* \"#utility.yul\":2522:2593   */\n      tag_177\n        /* \"#utility.yul\":2586:2592   */\n      dup2\n        /* \"#utility.yul\":2581:2584   */\n      dup7\n        /* \"#utility.yul\":2522:2593   */\n      tag_178\n      jump\t// in\n    tag_177:\n        /* \"#utility.yul\":2515:2593   */\n      swap5\n      pop\n        /* \"#utility.yul\":2624:2625   */\n      0x01\n        /* \"#utility.yul\":2613:2622   */\n      dup3\n        /* \"#utility.yul\":2609:2626   */\n      and\n        /* \"#utility.yul\":2640:2641   */\n      0x00\n        /* \"#utility.yul\":2635:2770   */\n      dup2\n      eq\n      tag_180\n      jumpi\n        /* \"#utility.yul\":2784:2785   */\n      0x01\n        /* \"#utility.yul\":2779:3115   */\n      dup2\n      eq\n      tag_181\n      jumpi\n        /* \"#utility.yul\":2602:3115   */\n      jump(tag_179)\n        /* \"#utility.yul\":2635:2770   */\n    tag_180:\n        /* \"#utility.yul\":2719:2723   */\n      0xff\n        /* \"#utility.yul\":2715:2724   */\n      not\n        /* \"#utility.yul\":2704:2713   */\n      dup4\n        /* \"#utility.yul\":2700:2725   */\n      and\n        /* \"#utility.yul\":2695:2698   */\n      dup7\n        /* \"#utility.yul\":2688:2726   */\n      mstore\n        /* \"#utility.yul\":2755:2759   */\n      0x20\n        /* \"#utility.yul\":2750:2753   */\n      dup7\n        /* \"#utility.yul\":2746:2760   */\n      add\n        /* \"#utility.yul\":2739:2760   */\n      swap4\n      pop\n        /* \"#utility.yul\":2635:2770   */\n      jump(tag_179)\n        /* \"#utility.yul\":2779:3115   */\n    tag_181:\n        /* \"#utility.yul\":2846:2884   */\n      tag_182\n        /* \"#utility.yul\":2878:2883   */\n      dup6\n        /* \"#utility.yul\":2846:2884   */\n      tag_183\n      jump\t// in\n    tag_182:\n        /* \"#utility.yul\":2906:2907   */\n      0x00\n        /* \"#utility.yul\":2920:3074   */\n    tag_184:\n        /* \"#utility.yul\":2934:2940   */\n      dup4\n        /* \"#utility.yul\":2931:2932   */\n      dup2\n        /* \"#utility.yul\":2928:2941   */\n      lt\n        /* \"#utility.yul\":2920:3074   */\n      iszero\n      tag_186\n      jumpi\n        /* \"#utility.yul\":3008:3015   */\n      dup2\n        /* \"#utility.yul\":3002:3016   */\n      sload\n        /* \"#utility.yul\":2998:2999   */\n      dup2\n        /* \"#utility.yul\":2993:2996   */\n      dup10\n        /* \"#utility.yul\":2989:3000   */\n      add\n        /* \"#utility.yul\":2982:3017   */\n      mstore\n        /* \"#utility.yul\":3058:3059   */\n      0x01\n        /* \"#utility.yul\":3049:3056   */\n      dup3\n        /* \"#utility.yul\":3045:3060   */\n      add\n        /* \"#utility.yul\":3034:3060   */\n      swap2\n      pop\n        /* \"#utility.yul\":2956:2960   */\n      0x20\n        /* \"#utility.yul\":2953:2954   */\n      dup2\n        /* \"#utility.yul\":2949:2961   */\n      add\n        /* \"#utility.yul\":2944:2961   */\n      swap1\n      pop\n        /* \"#utility.yul\":2920:3074   */\n      jump(tag_184)\n    tag_186:\n        /* \"#utility.yul\":3103:3104   */\n      dup1\n        /* \"#utility.yul\":3098:3101   */\n      dup9\n        /* \"#utility.yul\":3094:3105   */\n      add\n        /* \"#utility.yul\":3087:3105   */\n      swap6\n      pop\n        /* \"#utility.yul\":2786:3115   */\n      pop\n      pop\n        /* \"#utility.yul\":2602:3115   */\n    tag_179:\n      pop\n        /* \"#utility.yul\":2408:3121   */\n      pop\n      pop\n        /* \"#utility.yul\":2319:3121   */\n      swap3\n      swap2\n      pop\n      pop\n      jump\t// out\n        /* \"#utility.yul\":3127:3493   */\n    tag_187:\n        /* \"#utility.yul\":3269:3272   */\n      0x00\n        /* \"#utility.yul\":3290:3357   */\n      tag_189\n        /* \"#utility.yul\":3354:3356   */\n      0x17\n        /* \"#utility.yul\":3349:3352   */\n      dup4\n        /* \"#utility.yul\":3290:3357   */\n      tag_178\n      jump\t// in\n    tag_189:\n        /* \"#utility.yul\":3283:3357   */\n      swap2\n      pop\n        /* \"#utility.yul\":3366:3459   */\n      tag_190\n        /* \"#utility.yul\":3455:3458   */\n      dup3\n        /* \"#utility.yul\":3366:3459   */\n      tag_191\n      jump\t// in\n    tag_190:\n        /* \"#utility.yul\":3484:3486   */\n      0x20\n        /* \"#utility.yul\":3479:3482   */\n      dup3\n        /* \"#utility.yul\":3475:3487   */\n      add\n        /* \"#utility.yul\":3468:3487   */\n      swap1\n      pop\n        /* \"#utility.yul\":3127:3493   */\n      swap2\n      swap1\n      pop\n      jump\t// out\n        /* \"#utility.yul\":3499:3865   */\n    tag_192:\n        /* \"#utility.yul\":3641:3644   */\n      0x00\n        /* \"#utility.yul\":3662:3729   */\n      tag_194\n        /* \"#utility.yul\":3726:3728   */\n      0x31\n        /* \"#utility.yul\":3721:3724   */\n      dup4\n        /* \"#utility.yul\":3662:3729   */\n      tag_178\n      jump\t// in\n    tag_194:\n        /* \"#utility.yul\":3655:3729   */\n      swap2\n      pop\n        /* \"#utility.yul\":3738:3831   */\n      tag_195\n        /* \"#utility.yul\":3827:3830   */\n      dup3\n        /* \"#utility.yul\":3738:3831   */\n      tag_196\n      jump\t// in\n    tag_195:\n        /* \"#utility.yul\":3856:3858   */\n      0x40\n        /* \"#utility.yul\":3851:3854   */\n      dup3\n        /* \"#utility.yul\":3847:3859   */\n      add\n        /* \"#utility.yul\":3840:3859   */\n      swap1\n      pop\n        /* \"#utility.yul\":3499:3865   */\n      swap2\n      swap1\n      pop\n      jump\t// out\n        /* \"#utility.yul\":3871:4237   */\n    tag_197:\n        /* \"#utility.yul\":4013:4016   */\n      0x00\n        /* \"#utility.yul\":4034:4101   */\n      tag_199\n        /* \"#utility.yul\":4098:4100   */\n      0x11\n        /* \"#utility.yul\":4093:4096   */\n      dup4\n        /* \"#utility.yul\":4034:4101   */\n      tag_178\n      jump\t// in\n    tag_199:\n        /* \"#utility.yul\":4027:4101   */\n      swap2\n      pop\n        /* \"#utility.yul\":4110:4203   */\n      tag_200\n        /* \"#utility.yul\":4199:4202   */\n      dup3\n        /* \"#utility.yul\":4110:4203   */\n      tag_201\n      jump\t// in\n    tag_200:\n        /* \"#utility.yul\":4228:4230   */\n      0x20\n        /* \"#utility.yul\":4223:4226   */\n      dup3\n        /* \"#utility.yul\":4219:4231   */\n      add\n        /* \"#utility.yul\":4212:4231   */\n      swap1\n      pop\n        /* \"#utility.yul\":3871:4237   */\n      swap2\n      swap1\n      pop\n      jump\t// out\n        /* \"#utility.yul\":4243:4609   */\n    tag_202:\n        /* \"#utility.yul\":4385:4388   */\n      0x00\n        /* \"#utility.yul\":4406:4473   */\n      tag_204\n        /* \"#utility.yul\":4470:4472   */\n      0x16\n        /* \"#utility.yul\":4465:4468   */\n      dup4\n        /* \"#utility.yul\":4406:4473   */\n      tag_178\n      jump\t// in\n    tag_204:\n        /* \"#utility.yul\":4399:4473   */\n      swap2\n      pop\n        /* \"#utility.yul\":4482:4575   */\n      tag_205\n        /* \"#utility.yul\":4571:4574   */\n      dup3\n        /* \"#utility.yul\":4482:4575   */\n      tag_206\n      jump\t// in\n    tag_205:\n        /* \"#utility.yul\":4600:4602   */\n      0x20\n        /* \"#utility.yul\":4595:4598   */\n      dup3\n        /* \"#utility.yul\":4591:4603   */\n      add\n        /* \"#utility.yul\":4584:4603   */\n      swap1\n      pop\n        /* \"#utility.yul\":4243:4609   */\n      swap2\n      swap1\n      pop\n      jump\t// out\n        /* \"#utility.yul\":4615:4837   */\n    tag_16:\n        /* \"#utility.yul\":4708:4712   */\n      0x00\n        /* \"#utility.yul\":4746:4748   */\n      0x20\n        /* \"#utility.yul\":4735:4744   */\n      dup3\n        /* \"#utility.yul\":4731:4749   */\n      add\n        /* \"#utility.yul\":4723:4749   */\n      swap1\n      pop\n        /* \"#utility.yul\":4759:4830   */\n      tag_208\n        /* \"#utility.yul\":4827:4828   */\n      0x00\n        /* \"#utility.yul\":4816:4825   */\n      dup4\n        /* \"#utility.yul\":4812:4829   */\n      add\n        /* \"#utility.yul\":4803:4809   */\n      dup5\n        /* \"#utility.yul\":4759:4830   */\n      tag_143\n      jump\t// in\n    tag_208:\n        /* \"#utility.yul\":4615:4837   */\n      swap3\n      swap2\n      pop\n      pop\n      jump\t// out\n        /* \"#utility.yul\":4843:5256   */\n    tag_25:\n        /* \"#utility.yul\":5006:5010   */\n      0x00\n        /* \"#utility.yul\":5044:5046   */\n      0x20\n        /* \"#utility.yul\":5033:5042   */\n      dup3\n        /* \"#utility.yul\":5029:5047   */\n      add\n        /* \"#utility.yul\":5021:5047   */\n      swap1\n      pop\n        /* \"#utility.yul\":5093:5102   */\n      dup2\n        /* \"#utility.yul\":5087:5091   */\n      dup2\n        /* \"#utility.yul\":5083:5103   */\n      sub\n        /* \"#utility.yul\":5079:5080   */\n      0x00\n        /* \"#utility.yul\":5068:5077   */\n      dup4\n        /* \"#utility.yul\":5064:5081   */\n      add\n        /* \"#utility.yul\":5057:5104   */\n      mstore\n        /* \"#utility.yul\":5121:5249   */\n      tag_210\n        /* \"#utility.yul\":5244:5248   */\n      dup2\n        /* \"#utility.yul\":5235:5241   */\n      dup5\n        /* \"#utility.yul\":5121:5249   */\n      tag_147\n      jump\t// in\n    tag_210:\n        /* \"#utility.yul\":5113:5249   */\n      swap1\n      pop\n        /* \"#utility.yul\":4843:5256   */\n      swap3\n      swap2\n      pop\n      pop\n      jump\t// out\n        /* \"#utility.yul\":5262:5472   */\n    tag_21:\n        /* \"#utility.yul\":5349:5353   */\n      0x00\n        /* \"#utility.yul\":5387:5389   */\n      0x20\n        /* \"#utility.yul\":5376:5385   */\n      dup3\n        /* \"#utility.yul\":5372:5390   */\n      add\n        /* \"#utility.yul\":5364:5390   */\n      swap1\n      pop\n        /* \"#utility.yul\":5400:5465   */\n      tag_212\n        /* \"#utility.yul\":5462:5463   */\n      0x00\n        /* \"#utility.yul\":5451:5460   */\n      dup4\n        /* \"#utility.yul\":5447:5464   */\n      add\n        /* \"#utility.yul\":5438:5444   */\n      dup5\n        /* \"#utility.yul\":5400:5465   */\n      tag_161\n      jump\t// in\n    tag_212:\n        /* \"#utility.yul\":5262:5472   */\n      swap3\n      swap2\n      pop\n      pop\n      jump\t// out\n        /* \"#utility.yul\":5478:5785   */\n    tag_43:\n        /* \"#utility.yul\":5588:5592   */\n      0x00\n        /* \"#utility.yul\":5626:5628   */\n      0x20\n        /* \"#utility.yul\":5615:5624   */\n      dup3\n        /* \"#utility.yul\":5611:5629   */\n      add\n        /* \"#utility.yul\":5603:5629   */\n      swap1\n      pop\n        /* \"#utility.yul\":5675:5684   */\n      dup2\n        /* \"#utility.yul\":5669:5673   */\n      dup2\n        /* \"#utility.yul\":5665:5685   */\n      sub\n        /* \"#utility.yul\":5661:5662   */\n      0x00\n        /* \"#utility.yul\":5650:5659   */\n      dup4\n        /* \"#utility.yul\":5646:5663   */\n      add\n        /* \"#utility.yul\":5639:5686   */\n      mstore\n        /* \"#utility.yul\":5703:5778   */\n      tag_214\n        /* \"#utility.yul\":5773:5777   */\n      dup2\n        /* \"#utility.yul\":5764:5770   */\n      dup5\n        /* \"#utility.yul\":5703:5778   */\n      tag_174\n      jump\t// in\n    tag_214:\n        /* \"#utility.yul\":5695:5778   */\n      swap1\n      pop\n        /* \"#utility.yul\":5478:5785   */\n      swap3\n      swap2\n      pop\n      pop\n      jump\t// out\n        /* \"#utility.yul\":5791:6210   */\n    tag_93:\n        /* \"#utility.yul\":5957:5961   */\n      0x00\n        /* \"#utility.yul\":5995:5997   */\n      0x20\n        /* \"#utility.yul\":5984:5993   */\n      dup3\n        /* \"#utility.yul\":5980:5998   */\n      add\n        /* \"#utility.yul\":5972:5998   */\n      swap1\n      pop\n        /* \"#utility.yul\":6044:6053   */\n      dup2\n        /* \"#utility.yul\":6038:6042   */\n      dup2\n        /* \"#utility.yul\":6034:6054   */\n      sub\n        /* \"#utility.yul\":6030:6031   */\n      0x00\n        /* \"#utility.yul\":6019:6028   */\n      dup4\n        /* \"#utility.yul\":6015:6032   */\n      add\n        /* \"#utility.yul\":6008:6055   */\n      mstore\n        /* \"#utility.yul\":6072:6203   */\n      tag_216\n        /* \"#utility.yul\":6198:6202   */\n      dup2\n        /* \"#utility.yul\":6072:6203   */\n      tag_187\n      jump\t// in\n    tag_216:\n        /* \"#utility.yul\":6064:6203   */\n      swap1\n      pop\n        /* \"#utility.yul\":5791:6210   */\n      swap2\n      swap1\n      pop\n      jump\t// out\n        /* \"#utility.yul\":6216:6635   */\n    tag_35:\n        /* \"#utility.yul\":6382:6386   */\n      0x00\n        /* \"#utility.yul\":6420:6422   */\n      0x20\n        /* \"#utility.yul\":6409:6418   */\n      dup3\n        /* \"#utility.yul\":6405:6423   */\n      add\n        /* \"#utility.yul\":6397:6423   */\n      swap1\n      pop\n        /* \"#utility.yul\":6469:6478   */\n      dup2\n        /* \"#utility.yul\":6463:6467   */\n      dup2\n        /* \"#utility.yul\":6459:6479   */\n      sub\n        /* \"#utility.yul\":6455:6456   */\n      0x00\n        /* \"#utility.yul\":6444:6453   */\n      dup4\n        /* \"#utility.yul\":6440:6457   */\n      add\n        /* \"#utility.yul\":6433:6480   */\n      mstore\n        /* \"#utility.yul\":6497:6628   */\n      tag_218\n        /* \"#utility.yul\":6623:6627   */\n      dup2\n        /* \"#utility.yul\":6497:6628   */\n      tag_192\n      jump\t// in\n    tag_218:\n        /* \"#utility.yul\":6489:6628   */\n      swap1\n      pop\n        /* \"#utility.yul\":6216:6635   */\n      swap2\n      swap1\n      pop\n      jump\t// out\n        /* \"#utility.yul\":6641:7060   */\n    tag_38:\n        /* \"#utility.yul\":6807:6811   */\n      0x00\n        /* \"#utility.yul\":6845:6847   */\n      0x20\n        /* \"#utility.yul\":6834:6843   */\n      dup3\n        /* \"#utility.yul\":6830:6848   */\n      add\n        /* \"#utility.yul\":6822:6848   */\n      swap1\n      pop\n        /* \"#utility.yul\":6894:6903   */\n      dup2\n        /* \"#utility.yul\":6888:6892   */\n      dup2\n        /* \"#utility.yul\":6884:6904   */\n      sub\n        /* \"#utility.yul\":6880:6881   */\n      0x00\n        /* \"#utility.yul\":6869:6878   */\n      dup4\n        /* \"#utility.yul\":6865:6882   */\n      add\n        /* \"#utility.yul\":6858:6905   */\n      mstore\n        /* \"#utility.yul\":6922:7053   */\n      tag_220\n        /* \"#utility.yul\":7048:7052   */\n      dup2\n        /* \"#utility.yul\":6922:7053   */\n      tag_197\n      jump\t// in\n    tag_220:\n        /* \"#utility.yul\":6914:7053   */\n      swap1\n      pop\n        /* \"#utility.yul\":6641:7060   */\n      swap2\n      swap1\n      pop\n      jump\t// out\n        /* \"#utility.yul\":7066:7485   */\n    tag_41:\n        /* \"#utility.yul\":7232:7236   */\n      0x00\n        /* \"#utility.yul\":7270:7272   */\n      0x20\n        /* \"#utility.yul\":7259:7268   */\n      dup3\n        /* \"#utility.yul\":7255:7273   */\n      add\n        /* \"#utility.yul\":7247:7273   */\n      swap1\n      pop\n        /* \"#utility.yul\":7319:7328   */\n      dup2\n        /* \"#utility.yul\":7313:7317   */\n      dup2\n        /* \"#utility.yul\":7309:7329   */\n      sub\n        /* \"#utility.yul\":7305:7306   */\n      0x00\n        /* \"#utility.yul\":7294:7303   */\n      dup4\n        /* \"#utility.yul\":7290:7307   */\n      add\n        /* \"#utility.yul\":7283:7330   */\n      mstore\n        /* \"#utility.yul\":7347:7478   */\n      tag_222\n        /* \"#utility.yul\":7473:7477   */\n      dup2\n        /* \"#utility.yul\":7347:7478   */\n      tag_202\n      jump\t// in\n    tag_222:\n        /* \"#utility.yul\":7339:7478   */\n      swap1\n      pop\n        /* \"#utility.yul\":7066:7485   */\n      swap2\n      swap1\n      pop\n      jump\t// out\n        /* \"#utility.yul\":7572:7714   */\n    tag_154:\n        /* \"#utility.yul\":7649:7653   */\n      0x00\n        /* \"#utility.yul\":7672:7675   */\n      dup2\n        /* \"#utility.yul\":7664:7675   */\n      swap1\n      pop\n        /* \"#utility.yul\":7702:7706   */\n      0x20\n        /* \"#utility.yul\":7697:7700   */\n      dup3\n        /* \"#utility.yul\":7693:7707   */\n      add\n        /* \"#utility.yul\":7685:7707   */\n      swap1\n      pop\n        /* \"#utility.yul\":7572:7714   */\n      swap2\n      swap1\n      pop\n      jump\t// out\n        /* \"#utility.yul\":7720:7861   */\n    tag_183:\n        /* \"#utility.yul\":7769:7773   */\n      0x00\n        /* \"#utility.yul\":7792:7795   */\n      dup2\n        /* \"#utility.yul\":7784:7795   */\n      swap1\n      pop\n        /* \"#utility.yul\":7815:7818   */\n      dup2\n        /* \"#utility.yul\":7812:7813   */\n      0x00\n        /* \"#utility.yul\":7805:7819   */\n      mstore\n        /* \"#utility.yul\":7849:7853   */\n      0x20\n        /* \"#utility.yul\":7846:7847   */\n      0x00\n        /* \"#utility.yul\":7836:7854   */\n      keccak256\n        /* \"#utility.yul\":7828:7854   */\n      swap1\n      pop\n        /* \"#utility.yul\":7720:7861   */\n      swap2\n      swap1\n      pop\n      jump\t// out\n        /* \"#utility.yul\":7867:7991   */\n    tag_150:\n        /* \"#utility.yul\":7944:7950   */\n      0x00\n        /* \"#utility.yul\":7978:7983   */\n      dup2\n        /* \"#utility.yul\":7972:7984   */\n      mload\n        /* \"#utility.yul\":7962:7984   */\n      swap1\n      pop\n        /* \"#utility.yul\":7867:7991   */\n      swap2\n      swap1\n      pop\n      jump\t// out\n        /* \"#utility.yul\":7997:8096   */\n    tag_167:\n        /* \"#utility.yul\":8049:8055   */\n      0x00\n        /* \"#utility.yul\":8083:8088   */\n      dup2\n        /* \"#utility.yul\":8077:8089   */\n      mload\n        /* \"#utility.yul\":8067:8089   */\n      swap1\n      pop\n        /* \"#utility.yul\":7997:8096   */\n      swap2\n      swap1\n      pop\n      jump\t// out\n        /* \"#utility.yul\":8102:8225   */\n    tag_160:\n        /* \"#utility.yul\":8182:8186   */\n      0x00\n        /* \"#utility.yul\":8214:8218   */\n      0x20\n        /* \"#utility.yul\":8209:8212   */\n      dup3\n        /* \"#utility.yul\":8205:8219   */\n      add\n        /* \"#utility.yul\":8197:8219   */\n      swap1\n      pop\n        /* \"#utility.yul\":8102:8225   */\n      swap2\n      swap1\n      pop\n      jump\t// out\n        /* \"#utility.yul\":8231:8425   */\n    tag_152:\n        /* \"#utility.yul\":8340:8351   */\n      0x00\n        /* \"#utility.yul\":8374:8380   */\n      dup3\n        /* \"#utility.yul\":8369:8372   */\n      dup3\n        /* \"#utility.yul\":8362:8381   */\n      mstore\n        /* \"#utility.yul\":8414:8418   */\n      0x20\n        /* \"#utility.yul\":8409:8412   */\n      dup3\n        /* \"#utility.yul\":8405:8419   */\n      add\n        /* \"#utility.yul\":8390:8419   */\n      swap1\n      pop\n        /* \"#utility.yul\":8231:8425   */\n      swap3\n      swap2\n      pop\n      pop\n      jump\t// out\n        /* \"#utility.yul\":8431:8590   */\n    tag_169:\n        /* \"#utility.yul\":8505:8516   */\n      0x00\n        /* \"#utility.yul\":8539:8545   */\n      dup3\n        /* \"#utility.yul\":8534:8537   */\n      dup3\n        /* \"#utility.yul\":8527:8546   */\n      mstore\n        /* \"#utility.yul\":8579:8583   */\n      0x20\n        /* \"#utility.yul\":8574:8577   */\n      dup3\n        /* \"#utility.yul\":8570:8584   */\n      add\n        /* \"#utility.yul\":8555:8584   */\n      swap1\n      pop\n        /* \"#utility.yul\":8431:8590   */\n      swap3\n      swap2\n      pop\n      pop\n      jump\t// out\n        /* \"#utility.yul\":8596:8765   */\n    tag_178:\n        /* \"#utility.yul\":8680:8691   */\n      0x00\n        /* \"#utility.yul\":8714:8720   */\n      dup3\n        /* \"#utility.yul\":8709:8712   */\n      dup3\n        /* \"#utility.yul\":8702:8721   */\n      mstore\n        /* \"#utility.yul\":8754:8758   */\n      0x20\n        /* \"#utility.yul\":8749:8752   */\n      dup3\n        /* \"#utility.yul\":8745:8759   */\n      add\n        /* \"#utility.yul\":8730:8759   */\n      swap1\n      pop\n        /* \"#utility.yul\":8596:8765   */\n      swap3\n      swap2\n      pop\n      pop\n      jump\t// out\n        /* \"#utility.yul\":8771:8867   */\n    tag_146:\n        /* \"#utility.yul\":8808:8815   */\n      0x00\n        /* \"#utility.yul\":8837:8861   */\n      tag_234\n        /* \"#utility.yul\":8855:8860   */\n      dup3\n        /* \"#utility.yul\":8837:8861   */\n      tag_235\n      jump\t// in\n    tag_234:\n        /* \"#utility.yul\":8826:8861   */\n      swap1\n      pop\n        /* \"#utility.yul\":8771:8867   */\n      swap2\n      swap1\n      pop\n      jump\t// out\n        /* \"#utility.yul\":8873:8963   */\n    tag_164:\n        /* \"#utility.yul\":8907:8914   */\n      0x00\n        /* \"#utility.yul\":8950:8955   */\n      dup2\n        /* \"#utility.yul\":8943:8956   */\n      iszero\n        /* \"#utility.yul\":8936:8957   */\n      iszero\n        /* \"#utility.yul\":8925:8957   */\n      swap1\n      pop\n        /* \"#utility.yul\":8873:8963   */\n      swap2\n      swap1\n      pop\n      jump\t// out\n        /* \"#utility.yul\":8969:9095   */\n    tag_235:\n        /* \"#utility.yul\":9006:9013   */\n      0x00\n        /* \"#utility.yul\":9046:9088   */\n      0xffffffffffffffffffffffffffffffffffffffff\n        /* \"#utility.yul\":9039:9044   */\n      dup3\n        /* \"#utility.yul\":9035:9089   */\n      and\n        /* \"#utility.yul\":9024:9089   */\n      swap1\n      pop\n        /* \"#utility.yul\":8969:9095   */\n      swap2\n      swap1\n      pop\n      jump\t// out\n        /* \"#utility.yul\":9101:9187   */\n    tag_238:\n        /* \"#utility.yul\":9136:9143   */\n      0x00\n        /* \"#utility.yul\":9176:9180   */\n      0xff\n        /* \"#utility.yul\":9169:9174   */\n      dup3\n        /* \"#utility.yul\":9165:9181   */\n      and\n        /* \"#utility.yul\":9154:9181   */\n      swap1\n      pop\n        /* \"#utility.yul\":9101:9187   */\n      swap2\n      swap1\n      pop\n      jump\t// out\n        /* \"#utility.yul\":9193:9500   */\n    tag_171:\n        /* \"#utility.yul\":9261:9262   */\n      0x00\n        /* \"#utility.yul\":9271:9384   */\n    tag_241:\n        /* \"#utility.yul\":9285:9291   */\n      dup4\n        /* \"#utility.yul\":9282:9283   */\n      dup2\n        /* \"#utility.yul\":9279:9292   */\n      lt\n        /* \"#utility.yul\":9271:9384   */\n      iszero\n      tag_243\n      jumpi\n        /* \"#utility.yul\":9370:9371   */\n      dup1\n        /* \"#utility.yul\":9365:9368   */\n      dup3\n        /* \"#utility.yul\":9361:9372   */\n      add\n        /* \"#utility.yul\":9355:9373   */\n      mload\n        /* \"#utility.yul\":9351:9352   */\n      dup2\n        /* \"#utility.yul\":9346:9349   */\n      dup5\n        /* \"#utility.yul\":9342:9353   */\n      add\n        /* \"#utility.yul\":9335:9374   */\n      mstore\n        /* \"#utility.yul\":9307:9309   */\n      0x20\n        /* \"#utility.yul\":9304:9305   */\n      dup2\n        /* \"#utility.yul\":9300:9310   */\n      add\n        /* \"#utility.yul\":9295:9310   */\n      swap1\n      pop\n        /* \"#utility.yul\":9271:9384   */\n      jump(tag_241)\n    tag_243:\n        /* \"#utility.yul\":9402:9408   */\n      dup4\n        /* \"#utility.yul\":9399:9400   */\n      dup2\n        /* \"#utility.yul\":9396:9409   */\n      gt\n        /* \"#utility.yul\":9393:9494   */\n      iszero\n      tag_244\n      jumpi\n        /* \"#utility.yul\":9482:9483   */\n      0x00\n        /* \"#utility.yul\":9473:9479   */\n      dup5\n        /* \"#utility.yul\":9468:9471   */\n      dup5\n        /* \"#utility.yul\":9464:9480   */\n      add\n        /* \"#utility.yul\":9457:9484   */\n      mstore\n        /* \"#utility.yul\":9393:9494   */\n    tag_244:\n        /* \"#utility.yul\":9242:9500   */\n      pop\n        /* \"#utility.yul\":9193:9500   */\n      pop\n      pop\n      pop\n      jump\t// out\n        /* \"#utility.yul\":9506:9826   */\n    tag_59:\n        /* \"#utility.yul\":9550:9556   */\n      0x00\n        /* \"#utility.yul\":9587:9588   */\n      0x02\n        /* \"#utility.yul\":9581:9585   */\n      dup3\n        /* \"#utility.yul\":9577:9589   */\n      div\n        /* \"#utility.yul\":9567:9589   */\n      swap1\n      pop\n        /* \"#utility.yul\":9634:9635   */\n      0x01\n        /* \"#utility.yul\":9628:9632   */\n      dup3\n        /* \"#utility.yul\":9624:9636   */\n      and\n        /* \"#utility.yul\":9655:9673   */\n      dup1\n        /* \"#utility.yul\":9645:9726   */\n      tag_246\n      jumpi\n        /* \"#utility.yul\":9711:9715   */\n      0x7f\n        /* \"#utility.yul\":9703:9709   */\n      dup3\n        /* \"#utility.yul\":9699:9716   */\n      and\n        /* \"#utility.yul\":9689:9716   */\n      swap2\n      pop\n        /* \"#utility.yul\":9645:9726   */\n    tag_246:\n        /* \"#utility.yul\":9773:9775   */\n      0x20\n        /* \"#utility.yul\":9765:9771   */\n      dup3\n        /* \"#utility.yul\":9762:9776   */\n      lt\n        /* \"#utility.yul\":9742:9760   */\n      dup2\n        /* \"#utility.yul\":9739:9777   */\n      eq\n        /* \"#utility.yul\":9736:9820   */\n      iszero\n      tag_247\n      jumpi\n        /* \"#utility.yul\":9792:9810   */\n      tag_248\n      tag_249\n      jump\t// in\n    tag_248:\n        /* \"#utility.yul\":9736:9820   */\n    tag_247:\n        /* \"#utility.yul\":9557:9826   */\n      pop\n        /* \"#utility.yul\":9506:9826   */\n      swap2\n      swap1\n      pop\n      jump\t// out\n        /* \"#utility.yul\":9832:9999   */\n    tag_68:\n        /* \"#utility.yul\":9869:9872   */\n      0x00\n        /* \"#utility.yul\":9892:9914   */\n      tag_251\n        /* \"#utility.yul\":9908:9913   */\n      dup3\n        /* \"#utility.yul\":9892:9914   */\n      tag_238\n      jump\t// in\n    tag_251:\n        /* \"#utility.yul\":9883:9914   */\n      swap2\n      pop\n        /* \"#utility.yul\":9936:9940   */\n      0xff\n        /* \"#utility.yul\":9929:9934   */\n      dup3\n        /* \"#utility.yul\":9926:9941   */\n      eq\n        /* \"#utility.yul\":9923:9964   */\n      iszero\n      tag_252\n      jumpi\n        /* \"#utility.yul\":9944:9962   */\n      tag_253\n      tag_254\n      jump\t// in\n    tag_253:\n        /* \"#utility.yul\":9923:9964   */\n    tag_252:\n        /* \"#utility.yul\":9991:9992   */\n      0x01\n        /* \"#utility.yul\":9984:9989   */\n      dup3\n        /* \"#utility.yul\":9980:9993   */\n      add\n        /* \"#utility.yul\":9973:9993   */\n      swap1\n      pop\n        /* \"#utility.yul\":9832:9999   */\n      swap2\n      swap1\n      pop\n      jump\t// out\n        /* \"#utility.yul\":10005:10185   */\n    tag_254:\n        /* \"#utility.yul\":10053:10130   */\n      0x4e487b7100000000000000000000000000000000000000000000000000000000\n        /* \"#utility.yul\":10050:10051   */\n      0x00\n        /* \"#utility.yul\":10043:10131   */\n      mstore\n        /* \"#utility.yul\":10150:10154   */\n      0x11\n        /* \"#utility.yul\":10147:10148   */\n      0x04\n        /* \"#utility.yul\":10140:10155   */\n      mstore\n        /* \"#utility.yul\":10174:10178   */\n      0x24\n        /* \"#utility.yul\":10171:10172   */\n      0x00\n        /* \"#utility.yul\":10164:10179   */\n      revert\n        /* \"#utility.yul\":10191:10371   */\n    tag_249:\n        /* \"#utility.yul\":10239:10316   */\n      0x4e487b7100000000000000000000000000000000000000000000000000000000\n        /* \"#utility.yul\":10236:10237   */\n      0x00\n        /* \"#utility.yul\":10229:10317   */\n      mstore\n        /* \"#utility.yul\":10336:10340   */\n      0x22\n        /* \"#utility.yul\":10333:10334   */\n      0x04\n        /* \"#utility.yul\":10326:10341   */\n      mstore\n        /* \"#utility.yul\":10360:10364   */\n      0x24\n        /* \"#utility.yul\":10357:10358   */\n      0x00\n        /* \"#utility.yul\":10350:10365   */\n      revert\n        /* \"#utility.yul\":10377:10557   */\n    tag_66:\n        /* \"#utility.yul\":10425:10502   */\n      0x4e487b7100000000000000000000000000000000000000000000000000000000\n        /* \"#utility.yul\":10422:10423   */\n      0x00\n        /* \"#utility.yul\":10415:10503   */\n      mstore\n        /* \"#utility.yul\":10522:10526   */\n      0x32\n        /* \"#utility.yul\":10519:10520   */\n      0x04\n        /* \"#utility.yul\":10512:10527   */\n      mstore\n        /* \"#utility.yul\":10546:10550   */\n      0x24\n        /* \"#utility.yul\":10543:10544   */\n      0x00\n        /* \"#utility.yul\":10536:10551   */\n      revert\n        /* \"#utility.yul\":10563:10743   */\n    tag_51:\n        /* \"#utility.yul\":10611:10688   */\n      0x4e487b7100000000000000000000000000000000000000000000000000000000\n        /* \"#utility.yul\":10608:10609   */\n      0x00\n        /* \"#utility.yul\":10601:10689   */\n      mstore\n        /* \"#utility.yul\":10708:10712   */\n      0x41\n        /* \"#utility.yul\":10705:10706   */\n      0x04\n        /* \"#utility.yul\":10698:10713   */\n      mstore\n        /* \"#utility.yul\":10732:10736   */\n      0x24\n        /* \"#utility.yul\":10729:10730   */\n      0x00\n        /* \"#utility.yul\":10722:10737   */\n      revert\n        /* \"#utility.yul\":10872:10989   */\n    tag_137:\n        /* \"#utility.yul\":10981:10982   */\n      0x00\n        /* \"#utility.yul\":10978:10979   */\n      dup1\n        /* \"#utility.yul\":10971:10983   */\n      revert\n        /* \"#utility.yul\":10995:11097   */\n    tag_173:\n        /* \"#utility.yul\":11036:11042   */\n      0x00\n        /* \"#utility.yul\":11087:11089   */\n      0x1f\n        /* \"#utility.yul\":11083:11090   */\n      not\n        /* \"#utility.yul\":11078:11080   */\n      0x1f\n        /* \"#utility.yul\":11071:11076   */\n      dup4\n        /* \"#utility.yul\":11067:11081   */\n      add\n        /* \"#utility.yul\":11063:11091   */\n      and\n        /* \"#utility.yul\":11053:11091   */\n      swap1\n      pop\n        /* \"#utility.yul\":10995:11097   */\n      swap2\n      swap1\n      pop\n      jump\t// out\n        /* \"#utility.yul\":11103:11276   */\n    tag_191:\n        /* \"#utility.yul\":11243:11268   */\n      0x43616e61727920697320616c726561647920616c697665000000000000000000\n        /* \"#utility.yul\":11239:11240   */\n      0x00\n        /* \"#utility.yul\":11231:11237   */\n      dup3\n        /* \"#utility.yul\":11227:11241   */\n      add\n        /* \"#utility.yul\":11220:11269   */\n      mstore\n        /* \"#utility.yul\":11103:11276   */\n      pop\n      jump\t// out\n        /* \"#utility.yul\":11282:11518   */\n    tag_196:\n        /* \"#utility.yul\":11422:11456   */\n      0x4f6e6c792074686520636f6e7472616374206465706c6f7965722063616e2063\n        /* \"#utility.yul\":11418:11419   */\n      0x00\n        /* \"#utility.yul\":11410:11416   */\n      dup3\n        /* \"#utility.yul\":11406:11420   */\n      add\n        /* \"#utility.yul\":11399:11457   */\n      mstore\n        /* \"#utility.yul\":11491:11510   */\n      0x616c6c20746869732066756e6374696f6e000000000000000000000000000000\n        /* \"#utility.yul\":11486:11488   */\n      0x20\n        /* \"#utility.yul\":11478:11484   */\n      dup3\n        /* \"#utility.yul\":11474:11489   */\n      add\n        /* \"#utility.yul\":11467:11511   */\n      mstore\n        /* \"#utility.yul\":11282:11518   */\n      pop\n      jump\t// out\n        /* \"#utility.yul\":11524:11691   */\n    tag_201:\n        /* \"#utility.yul\":11664:11683   */\n      0x496e76616c69642063616e617279206964000000000000000000000000000000\n        /* \"#utility.yul\":11660:11661   */\n      0x00\n        /* \"#utility.yul\":11652:11658   */\n      dup3\n        /* \"#utility.yul\":11648:11662   */\n      add\n        /* \"#utility.yul\":11641:11684   */\n      mstore\n        /* \"#utility.yul\":11524:11691   */\n      pop\n      jump\t// out\n        /* \"#utility.yul\":11697:11869   */\n    tag_206:\n        /* \"#utility.yul\":11837:11861   */\n      0x43616e61727920697320616c7265616479206465616400000000000000000000\n        /* \"#utility.yul\":11833:11834   */\n      0x00\n        /* \"#utility.yul\":11825:11831   */\n      dup3\n        /* \"#utility.yul\":11821:11835   */\n      add\n        /* \"#utility.yul\":11814:11862   */\n      mstore\n        /* \"#utility.yul\":11697:11869   */\n      pop\n      jump\t// out\n        /* \"#utility.yul\":11875:11993   */\n    tag_133:\n        /* \"#utility.yul\":11946:11968   */\n      tag_268\n        /* \"#utility.yul\":11962:11967   */\n      dup2\n        /* \"#utility.yul\":11946:11968   */\n      tag_238\n      jump\t// in\n    tag_268:\n        /* \"#utility.yul\":11939:11944   */\n      dup2\n        /* \"#utility.yul\":11936:11969   */\n      eq\n        /* \"#utility.yul\":11926:11987   */\n      tag_269\n      jumpi\n        /* \"#utility.yul\":11983:11984   */\n      0x00\n        /* \"#utility.yul\":11980:11981   */\n      dup1\n        /* \"#utility.yul\":11973:11985   */\n      revert\n        /* \"#utility.yul\":11926:11987   */\n    tag_269:\n        /* \"#utility.yul\":11875:11993   */\n      pop\n      jump\t// out\n\n    auxdata: 0xa2646970667358221220da85173104cfe11bc08971591ddffaf8aedf89a7dbb318bcba4cab22ac61948b64736f6c63430008070033\n}\n",
				"bytecode": {
					"linkReferences": {},
					"object": "60806040526040518061014001604052806040518060400160405280600381526020017f574152000000000000000000000000000000000000000000000000000000000081525081526020016040518060400160405280600381526020017f474147000000000000000000000000000000000000000000000000000000000081525081526020016040518060400160405280600481526020017f535542500000000000000000000000000000000000000000000000000000000081525081526020016040518060400160405280600481526020017f545241500000000000000000000000000000000000000000000000000000000081525081526020016040518060400160405280600581526020017f434541534500000000000000000000000000000000000000000000000000000081525081526020016040518060400160405280600681526020017f445552455353000000000000000000000000000000000000000000000000000081525081526020016040518060400160405280600481526020017f524149440000000000000000000000000000000000000000000000000000000081525081526020016040518060400160405280600581526020017f5345495a4500000000000000000000000000000000000000000000000000000081525081526020016040518060400160405280600581526020017f584352454400000000000000000000000000000000000000000000000000000081525081526020016040518060400160405280600681526020017f584f504552530000000000000000000000000000000000000000000000000000815250815250600090600a6200026e92919062000427565b503480156200027c57600080fd5b5033600160006101000a81548173ffffffffffffffffffffffffffffffffffffffff021916908373ffffffffffffffffffffffffffffffffffffffff16021790555060005b600a8160ff16101562000420576000604051806060016040528060008460ff1681548110620002f557620002f46200067c565b5b9060005260206000200180546200030c90620005b9565b80601f01602080910402602001604051908101604052809291908181526020018280546200033a90620005b9565b80156200038b5780601f106200035f576101008083540402835291602001916200038b565b820191906000526020600020905b8154815290600101906020018083116200036d57829003601f168201915b505050505081526020016001151581526020016000815250905080600260008460ff1660ff1681526020019081526020016000206000820151816000019080519060200190620003dd9291906200048e565b5060208201518160010160006101000a81548160ff0219169083151502179055506040820151816002015590505050806200041890620005ef565b9050620002c1565b50620006ab565b8280548282559060005260206000209081019282156200047b579160200282015b828111156200047a578251829080519060200190620004699291906200048e565b509160200191906001019062000448565b5b5090506200048a91906200051f565b5090565b8280546200049c90620005b9565b90600052602060002090601f016020900481019282620004c057600085556200050c565b82601f10620004db57805160ff19168380011785556200050c565b828001600101855582156200050c579182015b828111156200050b578251825591602001919060010190620004ee565b5b5090506200051b919062000547565b5090565b5b8082111562000543576000818162000539919062000566565b5060010162000520565b5090565b5b808211156200056257600081600090555060010162000548565b5090565b5080546200057490620005b9565b6000825580601f10620005885750620005a9565b601f016020900490600052602060002090810190620005a8919062000547565b5b50565b600060ff82169050919050565b60006002820490506001821680620005d257607f821691505b60208210811415620005e957620005e86200064d565b5b50919050565b6000620005fc82620005ac565b915060ff8214156200061357620006126200061e565b5b600182019050919050565b7f4e487b7100000000000000000000000000000000000000000000000000000000600052601160045260246000fd5b7f4e487b7100000000000000000000000000000000000000000000000000000000600052602260045260246000fd5b7f4e487b7100000000000000000000000000000000000000000000000000000000600052603260045260246000fd5b6110cb80620006bb6000396000f3fe608060405234801561001057600080fd5b50600436106100625760003560e01c80632017164514610067578063893d20e81461008357806389df6576146100a1578063b17564bf146100d1578063bb5cb5f5146100ef578063fa30aea21461010b575b600080fd5b610081600480360381019061007c9190610a7a565b610129565b005b61008b610317565b6040516100989190610c93565b60405180910390f35b6100bb60048036038101906100b69190610a7a565b610341565b6040516100c89190610cd0565b60405180910390f35b6100d96103ba565b6040516100e69190610cae565b60405180910390f35b61010960048036038101906101049190610a7a565b610629565b005b6101136107f7565b6040516101209190610cae565b60405180910390f35b600160009054906101000a900473ffffffffffffffffffffffffffffffffffffffff1673ffffffffffffffffffffffffffffffffffffffff163373ffffffffffffffffffffffffffffffffffffffff16146101b9576040517f08c379a00000000000000000000000000000000000000000000000000000000081526004016101b090610d2d565b60405180910390fd5b600a8160ff16106101ff576040517f08c379a00000000000000000000000000000000000000000000000000000000081526004016101f690610d4d565b60405180910390fd5b600260008260ff1660ff16815260200190815260200160002060010160009054906101000a900460ff16610268576040517f08c379a000000000000000000000000000000000000000000000000000000000815260040161025f90610d6d565b60405180910390fd5b6000600260008360ff1660ff16815260200190815260200160002060010160006101000a81548160ff02191690831515021790555043600260008360ff1660ff168152602001908152602001600020600201819055508060ff167f7e6f4cbdcbccda9a2c35b312b52a640ec0fbd3f7c205e40d369a4b1861155646600260008460ff1660ff16815260200190815260200160002060000160405161030c9190610ceb565b60405180910390a250565b6000600160009054906101000a900473ffffffffffffffffffffffffffffffffffffffff16905090565b6000600a8260ff1610610389576040517f08c379a000000000000000000000000000000000000000000000000000000000815260040161038090610d4d565b60405180910390fd5b600260008360ff1660ff16815260200190815260200160002060010160009054906101000a900460ff169050919050565b60606000600a67ffffffffffffffff8111156103d9576103d8610f6f565b5b60405190808252806020026020018201604052801561040c57816020015b60608152602001906001900390816103f75790505b5090506000805b600a8160ff16101561053257600260008260ff1660ff16815260200190815260200160002060010160009054906101000a900460ff161561052157600260008260ff1660ff168152602001908152602001600020600001805461047590610e86565b80601f01602080910402602001604051908101604052809291908181526020018280546104a190610e86565b80156104ee5780601f106104c3576101008083540402835291602001916104ee565b820191906000526020600020905b8154815290600101906020018083116104d157829003601f168201915b5050505050838260ff168151811061050957610508610f40565b5b60200260200101819052508161051e90610eb8565b91505b8061052b90610eb8565b9050610413565b5060008160ff1667ffffffffffffffff81111561055257610551610f6f565b5b60405190808252806020026020018201604052801561058557816020015b60608152602001906001900390816105705790505b5090506000915060005b600a8160ff16101561061f576000848260ff16815181106105b3576105b2610f40565b5b602002602001015151111561060e57838160ff16815181106105d8576105d7610f40565b5b6020026020010151828460ff16815181106105f6576105f5610f40565b5b60200260200101819052508261060b90610eb8565b92505b8061061890610eb8565b905061058f565b5080935050505090565b600160009054906101000a900473ffffffffffffffffffffffffffffffffffffffff1673ffffffffffffffffffffffffffffffffffffffff163373ffffffffffffffffffffffffffffffffffffffff16146106b9576040517f08c379a00000000000000000000000000000000000000000000000000000000081526004016106b090610d2d565b60405180910390fd5b600a8160ff16106106ff576040517f08c379a00000000000000000000000000000000000000000000000000000000081526004016106f690610d4d565b60405180910390fd5b600260008260ff1660ff16815260200190815260200160002060010160009054906101000a900460ff1615610769576040517f08c379a000000000000000000000000000000000000000000000000000000000815260040161076090610d0d565b60405180910390fd5b6001600260008360ff1660ff16815260200190815260200160002060010160006101000a81548160ff0219169083151502179055508060ff167ff51aa7c1a8a302a35b139f6ac186cfeaf3d5db207064b76ec7aacca01f29bf3c600260008460ff1660ff1681526020019081526020016000206000016040516107ec9190610ceb565b60405180910390a250565b60606000600a67ffffffffffffffff81111561081657610815610f6f565b5b60405190808252806020026020018201604052801561084957816020015b60608152602001906001900390816108345790505b5090506000805b600a8160ff16101561096e57600260008260ff1660ff16815260200190815260200160002060010160009054906101000a900460ff1661095d57600260008260ff1660ff16815260200190815260200160002060000180546108b190610e86565b80601f01602080910402602001604051908101604052809291908181526020018280546108dd90610e86565b801561092a5780601f106108ff5761010080835404028352916020019161092a565b820191906000526020600020905b81548152906001019060200180831161090d57829003601f168201915b5050505050838260ff168151811061094557610944610f40565b5b60200260200101819052508161095a90610eb8565b91505b8061096790610eb8565b9050610850565b5060008160ff1667ffffffffffffffff81111561098e5761098d610f6f565b5b6040519080825280602002602001820160405280156109c157816020015b60608152602001906001900390816109ac5790505b5090506000915060005b600a8160ff161015610a5b576000848260ff16815181106109ef576109ee610f40565b5b6020026020010151511115610a4a57838160ff1681518110610a1457610a13610f40565b5b6020026020010151828460ff1681518110610a3257610a31610f40565b5b602002602001018190525082610a4790610eb8565b92505b80610a5490610eb8565b90506109cb565b5080935050505090565b600081359050610a748161107e565b92915050565b600060208284031215610a9057610a8f610f9e565b5b6000610a9e84828501610a65565b91505092915050565b6000610ab38383610b4e565b905092915050565b610ac481610e08565b82525050565b6000610ad582610db2565b610adf8185610dd5565b935083602082028501610af185610d8d565b8060005b85811015610b2d5784840389528151610b0e8582610aa7565b9450610b1983610dc8565b925060208a01995050600181019050610af5565b50829750879550505050505092915050565b610b4881610e1a565b82525050565b6000610b5982610dbd565b610b638185610de6565b9350610b73818560208601610e53565b610b7c81610fa3565b840191505092915050565b60008154610b9481610e86565b610b9e8186610df7565b94506001821660008114610bb95760018114610bcb57610bfe565b60ff1983168652602086019350610bfe565b610bd485610d9d565b60005b83811015610bf657815481890152600182019150602081019050610bd7565b808801955050505b50505092915050565b6000610c14601783610df7565b9150610c1f82610fb4565b602082019050919050565b6000610c37603183610df7565b9150610c4282610fdd565b604082019050919050565b6000610c5a601183610df7565b9150610c658261102c565b602082019050919050565b6000610c7d601683610df7565b9150610c8882611055565b602082019050919050565b6000602082019050610ca86000830184610abb565b92915050565b60006020820190508181036000830152610cc88184610aca565b905092915050565b6000602082019050610ce56000830184610b3f565b92915050565b60006020820190508181036000830152610d058184610b87565b905092915050565b60006020820190508181036000830152610d2681610c07565b9050919050565b60006020820190508181036000830152610d4681610c2a565b9050919050565b60006020820190508181036000830152610d6681610c4d565b9050919050565b60006020820190508181036000830152610d8681610c70565b9050919050565b6000819050602082019050919050565b60008190508160005260206000209050919050565b600081519050919050565b600081519050919050565b6000602082019050919050565b600082825260208201905092915050565b600082825260208201905092915050565b600082825260208201905092915050565b6000610e1382610e26565b9050919050565b60008115159050919050565b600073ffffffffffffffffffffffffffffffffffffffff82169050919050565b600060ff82169050919050565b60005b83811015610e71578082015181840152602081019050610e56565b83811115610e80576000848401525b50505050565b60006002820490506001821680610e9e57607f821691505b60208210811415610eb257610eb1610f11565b5b50919050565b6000610ec382610e46565b915060ff821415610ed757610ed6610ee2565b5b600182019050919050565b7f4e487b7100000000000000000000000000000000000000000000000000000000600052601160045260246000fd5b7f4e487b7100000000000000000000000000000000000000000000000000000000600052602260045260246000fd5b7f4e487b7100000000000000000000000000000000000000000000000000000000600052603260045260246000fd5b7f4e487b7100000000000000000000000000000000000000000000000000000000600052604160045260246000fd5b600080fd5b6000601f19601f8301169050919050565b7f43616e61727920697320616c726561647920616c697665000000000000000000600082015250565b7f4f6e6c792074686520636f6e7472616374206465706c6f7965722063616e206360008201527f616c6c20746869732066756e6374696f6e000000000000000000000000000000602082015250565b7f496e76616c69642063616e617279206964000000000000000000000000000000600082015250565b7f43616e61727920697320616c7265616479206465616400000000000000000000600082015250565b61108781610e46565b811461109257600080fd5b5056fea2646970667358221220da85173104cfe11bc08971591ddffaf8aedf89a7dbb318bcba4cab22ac61948b64736f6c63430008070033",
					"opcodes": "PUSH1 0x80 PUSH1 0x40 MSTORE PUSH1 0x40 MLOAD DUP1 PUSH2 0x140 ADD PUSH1 0x40 MSTORE DUP1 PUSH1 0x40 MLOAD DUP1 PUSH1 0x40 ADD PUSH1 0x40 MSTORE DUP1 PUSH1 0x3 DUP2 MSTORE PUSH1 0x20 ADD PUSH32 0x5741520000000000000000000000000000000000000000000000000000000000 DUP2 MSTORE POP DUP2 MSTORE PUSH1 0x20 ADD PUSH1 0x40 MLOAD DUP1 PUSH1 0x40 ADD PUSH1 0x40 MSTORE DUP1 PUSH1 0x3 DUP2 MSTORE PUSH1 0x20 ADD PUSH32 0x4741470000000000000000000000000000000000000000000000000000000000 DUP2 MSTORE POP DUP2 MSTORE PUSH1 0x20 ADD PUSH1 0x40 MLOAD DUP1 PUSH1 0x40 ADD PUSH1 0x40 MSTORE DUP1 PUSH1 0x4 DUP2 MSTORE PUSH1 0x20 ADD PUSH32 0x5355425000000000000000000000000000000000000000000000000000000000 DUP2 MSTORE POP DUP2 MSTORE PUSH1 0x20 ADD PUSH1 0x40 MLOAD DUP1 PUSH1 0x40 ADD PUSH1 0x40 MSTORE DUP1 PUSH1 0x4 DUP2 MSTORE PUSH1 0x20 ADD PUSH32 0x5452415000000000000000000000000000000000000000000000000000000000 DUP2 MSTORE POP DUP2 MSTORE PUSH1 0x20 ADD PUSH1 0x40 MLOAD DUP1 PUSH1 0x40 ADD PUSH1 0x40 MSTORE DUP1 PUSH1 0x5 DUP2 MSTORE PUSH1 0x20 ADD PUSH32 0x4345415345000000000000000000000000000000000000000000000000000000 DUP2 MSTORE POP DUP2 MSTORE PUSH1 0x20 ADD PUSH1 0x40 MLOAD DUP1 PUSH1 0x40 ADD PUSH1 0x40 MSTORE DUP1 PUSH1 0x6 DUP2 MSTORE PUSH1 0x20 ADD PUSH32 0x4455524553530000000000000000000000000000000000000000000000000000 DUP2 MSTORE POP DUP2 MSTORE PUSH1 0x20 ADD PUSH1 0x40 MLOAD DUP1 PUSH1 0x40 ADD PUSH1 0x40 MSTORE DUP1 PUSH1 0x4 DUP2 MSTORE PUSH1 0x20 ADD PUSH32 0x5241494400000000000000000000000000000000000000000000000000000000 DUP2 MSTORE POP DUP2 MSTORE PUSH1 0x20 ADD PUSH1 0x40 MLOAD DUP1 PUSH1 0x40 ADD PUSH1 0x40 MSTORE DUP1 PUSH1 0x5 DUP2 MSTORE PUSH1 0x20 ADD PUSH32 0x5345495A45000000000000000000000000000000000000000000000000000000 DUP2 MSTORE POP DUP2 MSTORE PUSH1 0x20 ADD PUSH1 0x40 MLOAD DUP1 PUSH1 0x40 ADD PUSH1 0x40 MSTORE DUP1 PUSH1 0x5 DUP2 MSTORE PUSH1 0x20 ADD PUSH32 0x5843524544000000000000000000000000000000000000000000000000000000 DUP2 MSTORE POP DUP2 MSTORE PUSH1 0x20 ADD PUSH1 0x40 MLOAD DUP1 PUSH1 0x40 ADD PUSH1 0x40 MSTORE DUP1 PUSH1 0x6 DUP2 MSTORE PUSH1 0x20 ADD PUSH32 0x584F504552530000000000000000000000000000000000000000000000000000 DUP2 MSTORE POP DUP2 MSTORE POP PUSH1 0x0 SWAP1 PUSH1 0xA PUSH3 0x26E SWAP3 SWAP2 SWAP1 PUSH3 0x427 JUMP JUMPDEST POP CALLVALUE DUP1 ISZERO PUSH3 0x27C JUMPI PUSH1 0x0 DUP1 REVERT JUMPDEST POP CALLER PUSH1 0x1 PUSH1 0x0 PUSH2 0x100 EXP DUP2 SLOAD DUP2 PUSH20 0xFFFFFFFFFFFFFFFFFFFFFFFFFFFFFFFFFFFFFFFF MUL NOT AND SWAP1 DUP4 PUSH20 0xFFFFFFFFFFFFFFFFFFFFFFFFFFFFFFFFFFFFFFFF AND MUL OR SWAP1 SSTORE POP PUSH1 0x0 JUMPDEST PUSH1 0xA DUP2 PUSH1 0xFF AND LT ISZERO PUSH3 0x420 JUMPI PUSH1 0x0 PUSH1 0x40 MLOAD DUP1 PUSH1 0x60 ADD PUSH1 0x40 MSTORE DUP1 PUSH1 0x0 DUP5 PUSH1 0xFF AND DUP2 SLOAD DUP2 LT PUSH3 0x2F5 JUMPI PUSH3 0x2F4 PUSH3 0x67C JUMP JUMPDEST JUMPDEST SWAP1 PUSH1 0x0 MSTORE PUSH1 0x20 PUSH1 0x0 KECCAK256 ADD DUP1 SLOAD PUSH3 0x30C SWAP1 PUSH3 0x5B9 JUMP JUMPDEST DUP1 PUSH1 0x1F ADD PUSH1 0x20 DUP1 SWAP2 DIV MUL PUSH1 0x20 ADD PUSH1 0x40 MLOAD SWAP1 DUP2 ADD PUSH1 0x40 MSTORE DUP1 SWAP3 SWAP2 SWAP1 DUP2 DUP2 MSTORE PUSH1 0x20 ADD DUP3 DUP1 SLOAD PUSH3 0x33A SWAP1 PUSH3 0x5B9 JUMP JUMPDEST DUP1 ISZERO PUSH3 0x38B JUMPI DUP1 PUSH1 0x1F LT PUSH3 0x35F JUMPI PUSH2 0x100 DUP1 DUP4 SLOAD DIV MUL DUP4 MSTORE SWAP2 PUSH1 0x20 ADD SWAP2 PUSH3 0x38B JUMP JUMPDEST DUP3 ADD SWAP2 SWAP1 PUSH1 0x0 MSTORE PUSH1 0x20 PUSH1 0x0 KECCAK256 SWAP1 JUMPDEST DUP2 SLOAD DUP2 MSTORE SWAP1 PUSH1 0x1 ADD SWAP1 PUSH1 0x20 ADD DUP1 DUP4 GT PUSH3 0x36D JUMPI DUP3 SWAP1 SUB PUSH1 0x1F AND DUP3 ADD SWAP2 JUMPDEST POP POP POP POP POP DUP2 MSTORE PUSH1 0x20 ADD PUSH1 0x1 ISZERO ISZERO DUP2 MSTORE PUSH1 0x20 ADD PUSH1 0x0 DUP2 MSTORE POP SWAP1 POP DUP1 PUSH1 0x2 PUSH1 0x0 DUP5 PUSH1 0xFF AND PUSH1 0xFF AND DUP2 MSTORE PUSH1 0x20 ADD SWAP1 DUP2 MSTORE PUSH1 0x20 ADD PUSH1 0x0 KECCAK256 PUSH1 0x0 DUP3 ADD MLOAD DUP2 PUSH1 0x0 ADD SWAP1 DUP1 MLOAD SWAP1 PUSH1 0x20 ADD SWAP1 PUSH3 0x3DD SWAP3 SWAP2 SWAP1 PUSH3 0x48E JUMP JUMPDEST POP PUSH1 0x20 DUP3 ADD MLOAD DUP2 PUSH1 0x1 ADD PUSH1 0x0 PUSH2 0x100 EXP DUP2 SLOAD DUP2 PUSH1 0xFF MUL NOT AND SWAP1 DUP4 ISZERO ISZERO MUL OR SWAP1 SSTORE POP PUSH1 0x40 DUP3 ADD MLOAD DUP2 PUSH1 0x2 ADD SSTORE SWAP1 POP POP POP DUP1 PUSH3 0x418 SWAP1 PUSH3 0x5EF JUMP JUMPDEST SWAP1 POP PUSH3 0x2C1 JUMP JUMPDEST POP PUSH3 0x6AB JUMP JUMPDEST DUP3 DUP1 SLOAD DUP3 DUP3 SSTORE SWAP1 PUSH1 0x0 MSTORE PUSH1 0x20 PUSH1 0x0 KECCAK256 SWAP1 DUP2 ADD SWAP3 DUP3 ISZERO PUSH3 0x47B JUMPI SWAP2 PUSH1 0x20 MUL DUP3 ADD JUMPDEST DUP3 DUP2 GT ISZERO PUSH3 0x47A JUMPI DUP3 MLOAD DUP3 SWAP1 DUP1 MLOAD SWAP1 PUSH1 0x20 ADD SWAP1 PUSH3 0x469 SWAP3 SWAP2 SWAP1 PUSH3 0x48E JUMP JUMPDEST POP SWAP2 PUSH1 0x20 ADD SWAP2 SWAP1 PUSH1 0x1 ADD SWAP1 PUSH3 0x448 JUMP JUMPDEST JUMPDEST POP SWAP1 POP PUSH3 0x48A SWAP2 SWAP1 PUSH3 0x51F JUMP JUMPDEST POP SWAP1 JUMP JUMPDEST DUP3 DUP1 SLOAD PUSH3 0x49C SWAP1 PUSH3 0x5B9 JUMP JUMPDEST SWAP1 PUSH1 0x0 MSTORE PUSH1 0x20 PUSH1 0x0 KECCAK256 SWAP1 PUSH1 0x1F ADD PUSH1 0x20 SWAP1 DIV DUP2 ADD SWAP3 DUP3 PUSH3 0x4C0 JUMPI PUSH1 0x0 DUP6 SSTORE PUSH3 0x50C JUMP JUMPDEST DUP3 PUSH1 0x1F LT PUSH3 0x4DB JUMPI DUP1 MLOAD PUSH1 0xFF NOT AND DUP4 DUP1 ADD OR DUP6 SSTORE PUSH3 0x50C JUMP JUMPDEST DUP3 DUP1 ADD PUSH1 0x1 ADD DUP6 SSTORE DUP3 ISZERO PUSH3 0x50C JUMPI SWAP2 DUP3 ADD JUMPDEST DUP3 DUP2 GT ISZERO PUSH3 0x50B JUMPI DUP3 MLOAD DUP3 SSTORE SWAP2 PUSH1 0x20 ADD SWAP2 SWAP1 PUSH1 0x1 ADD SWAP1 PUSH3 0x4EE JUMP JUMPDEST JUMPDEST POP SWAP1 POP PUSH3 0x51B SWAP2 SWAP1 PUSH3 0x547 JUMP JUMPDEST POP SWAP1 JUMP JUMPDEST JUMPDEST DUP1 DUP3 GT ISZERO PUSH3 0x543 JUMPI PUSH1 0x0 DUP2 DUP2 PUSH3 0x539 SWAP2 SWAP1 PUSH3 0x566 JUMP JUMPDEST POP PUSH1 0x1 ADD PUSH3 0x520 JUMP JUMPDEST POP SWAP1 JUMP JUMPDEST JUMPDEST DUP1 DUP3 GT ISZERO PUSH3 0x562 JUMPI PUSH1 0x0 DUP2 PUSH1 0x0 SWAP1 SSTORE POP PUSH1 0x1 ADD PUSH3 0x548 JUMP JUMPDEST POP SWAP1 JUMP JUMPDEST POP DUP1 SLOAD PUSH3 0x574 SWAP1 PUSH3 0x5B9 JUMP JUMPDEST PUSH1 0x0 DUP3 SSTORE DUP1 PUSH1 0x1F LT PUSH3 0x588 JUMPI POP PUSH3 0x5A9 JUMP JUMPDEST PUSH1 0x1F ADD PUSH1 0x20 SWAP1 DIV SWAP1 PUSH1 0x0 MSTORE PUSH1 0x20 PUSH1 0x0 KECCAK256 SWAP1 DUP2 ADD SWAP1 PUSH3 0x5A8 SWAP2 SWAP1 PUSH3 0x547 JUMP JUMPDEST JUMPDEST POP JUMP JUMPDEST PUSH1 0x0 PUSH1 0xFF DUP3 AND SWAP1 POP SWAP2 SWAP1 POP JUMP JUMPDEST PUSH1 0x0 PUSH1 0x2 DUP3 DIV SWAP1 POP PUSH1 0x1 DUP3 AND DUP1 PUSH3 0x5D2 JUMPI PUSH1 0x7F DUP3 AND SWAP2 POP JUMPDEST PUSH1 0x20 DUP3 LT DUP2 EQ ISZERO PUSH3 0x5E9 JUMPI PUSH3 0x5E8 PUSH3 0x64D JUMP JUMPDEST JUMPDEST POP SWAP2 SWAP1 POP JUMP JUMPDEST PUSH1 0x0 PUSH3 0x5FC DUP3 PUSH3 0x5AC JUMP JUMPDEST SWAP2 POP PUSH1 0xFF DUP3 EQ ISZERO PUSH3 0x613 JUMPI PUSH3 0x612 PUSH3 0x61E JUMP JUMPDEST JUMPDEST PUSH1 0x1 DUP3 ADD SWAP1 POP SWAP2 SWAP1 POP JUMP JUMPDEST PUSH32 0x4E487B7100000000000000000000000000000000000000000000000000000000 PUSH1 0x0 MSTORE PUSH1 0x11 PUSH1 0x4 MSTORE PUSH1 0x24 PUSH1 0x0 REVERT JUMPDEST PUSH32 0x4E487B7100000000000000000000000000000000000000000000000000000000 PUSH1 0x0 MSTORE PUSH1 0x22 PUSH1 0x4 MSTORE PUSH1 0x24 PUSH1 0x0 REVERT JUMPDEST PUSH32 0x4E487B7100000000000000000000000000000000000000000000000000000000 PUSH1 0x0 MSTORE PUSH1 0x32 PUSH1 0x4 MSTORE PUSH1 0x24 PUSH1 0x0 REVERT JUMPDEST PUSH2 0x10CB DUP1 PUSH3 0x6BB PUSH1 0x0 CODECOPY PUSH1 0x0 RETURN INVALID PUSH1 0x80 PUSH1 0x40 MSTORE CALLVALUE DUP1 ISZERO PUSH2 0x10 JUMPI PUSH1 0x0 DUP1 REVERT JUMPDEST POP PUSH1 0x4 CALLDATASIZE LT PUSH2 0x62 JUMPI PUSH1 0x0 CALLDATALOAD PUSH1 0xE0 SHR DUP1 PUSH4 0x20171645 EQ PUSH2 0x67 JUMPI DUP1 PUSH4 0x893D20E8 EQ PUSH2 0x83 JUMPI DUP1 PUSH4 0x89DF6576 EQ PUSH2 0xA1 JUMPI DUP1 PUSH4 0xB17564BF EQ PUSH2 0xD1 JUMPI DUP1 PUSH4 0xBB5CB5F5 EQ PUSH2 0xEF JUMPI DUP1 PUSH4 0xFA30AEA2 EQ PUSH2 0x10B JUMPI JUMPDEST PUSH1 0x0 DUP1 REVERT JUMPDEST PUSH2 0x81 PUSH1 0x4 DUP1 CALLDATASIZE SUB DUP2 ADD SWAP1 PUSH2 0x7C SWAP2 SWAP1 PUSH2 0xA7A JUMP JUMPDEST PUSH2 0x129 JUMP JUMPDEST STOP JUMPDEST PUSH2 0x8B PUSH2 0x317 JUMP JUMPDEST PUSH1 0x40 MLOAD PUSH2 0x98 SWAP2 SWAP1 PUSH2 0xC93 JUMP JUMPDEST PUSH1 0x40 MLOAD DUP1 SWAP2 SUB SWAP1 RETURN JUMPDEST PUSH2 0xBB PUSH1 0x4 DUP1 CALLDATASIZE SUB DUP2 ADD SWAP1 PUSH2 0xB6 SWAP2 SWAP1 PUSH2 0xA7A JUMP JUMPDEST PUSH2 0x341 JUMP JUMPDEST PUSH1 0x40 MLOAD PUSH2 0xC8 SWAP2 SWAP1 PUSH2 0xCD0 JUMP JUMPDEST PUSH1 0x40 MLOAD DUP1 SWAP2 SUB SWAP1 RETURN JUMPDEST PUSH2 0xD9 PUSH2 0x3BA JUMP JUMPDEST PUSH1 0x40 MLOAD PUSH2 0xE6 SWAP2 SWAP1 PUSH2 0xCAE JUMP JUMPDEST PUSH1 0x40 MLOAD DUP1 SWAP2 SUB SWAP1 RETURN JUMPDEST PUSH2 0x109 PUSH1 0x4 DUP1 CALLDATASIZE SUB DUP2 ADD SWAP1 PUSH2 0x104 SWAP2 SWAP1 PUSH2 0xA7A JUMP JUMPDEST PUSH2 0x629 JUMP JUMPDEST STOP JUMPDEST PUSH2 0x113 PUSH2 0x7F7 JUMP JUMPDEST PUSH1 0x40 MLOAD PUSH2 0x120 SWAP2 SWAP1 PUSH2 0xCAE JUMP JUMPDEST PUSH1 0x40 MLOAD DUP1 SWAP2 SUB SWAP1 RETURN JUMPDEST PUSH1 0x1 PUSH1 0x0 SWAP1 SLOAD SWAP1 PUSH2 0x100 EXP SWAP1 DIV PUSH20 0xFFFFFFFFFFFFFFFFFFFFFFFFFFFFFFFFFFFFFFFF AND PUSH20 0xFFFFFFFFFFFFFFFFFFFFFFFFFFFFFFFFFFFFFFFF AND CALLER PUSH20 0xFFFFFFFFFFFFFFFFFFFFFFFFFFFFFFFFFFFFFFFF AND EQ PUSH2 0x1B9 JUMPI PUSH1 0x40 MLOAD PUSH32 0x8C379A000000000000000000000000000000000000000000000000000000000 DUP2 MSTORE PUSH1 0x4 ADD PUSH2 0x1B0 SWAP1 PUSH2 0xD2D JUMP JUMPDEST PUSH1 0x40 MLOAD DUP1 SWAP2 SUB SWAP1 REVERT JUMPDEST PUSH1 0xA DUP2 PUSH1 0xFF AND LT PUSH2 0x1FF JUMPI PUSH1 0x40 MLOAD PUSH32 0x8C379A000000000000000000000000000000000000000000000000000000000 DUP2 MSTORE PUSH1 0x4 ADD PUSH2 0x1F6 SWAP1 PUSH2 0xD4D JUMP JUMPDEST PUSH1 0x40 MLOAD DUP1 SWAP2 SUB SWAP1 REVERT JUMPDEST PUSH1 0x2 PUSH1 0x0 DUP3 PUSH1 0xFF AND PUSH1 0xFF AND DUP2 MSTORE PUSH1 0x20 ADD SWAP1 DUP2 MSTORE PUSH1 0x20 ADD PUSH1 0x0 KECCAK256 PUSH1 0x1 ADD PUSH1 0x0 SWAP1 SLOAD SWAP1 PUSH2 0x100 EXP SWAP1 DIV PUSH1 0xFF AND PUSH2 0x268 JUMPI PUSH1 0x40 MLOAD PUSH32 0x8C379A000000000000000000000000000000000000000000000000000000000 DUP2 MSTORE PUSH1 0x4 ADD PUSH2 0x25F SWAP1 PUSH2 0xD6D JUMP JUMPDEST PUSH1 0x40 MLOAD DUP1 SWAP2 SUB SWAP1 REVERT JUMPDEST PUSH1 0x0 PUSH1 0x2 PUSH1 0x0 DUP4 PUSH1 0xFF AND PUSH1 0xFF AND DUP2 MSTORE PUSH1 0x20 ADD SWAP1 DUP2 MSTORE PUSH1 0x20 ADD PUSH1 0x0 KECCAK256 PUSH1 0x1 ADD PUSH1 0x0 PUSH2 0x100 EXP DUP2 SLOAD DUP2 PUSH1 0xFF MUL NOT AND SWAP1 DUP4 ISZERO ISZERO MUL OR SWAP1 SSTORE POP NUMBER PUSH1 0x2 PUSH1 0x0 DUP4 PUSH1 0xFF AND PUSH1 0xFF AND DUP2 MSTORE PUSH1 0x20 ADD SWAP1 DUP2 MSTORE PUSH1 0x20 ADD PUSH1 0x0 KECCAK256 PUSH1 0x2 ADD DUP2 SWAP1 SSTORE POP DUP1 PUSH1 0xFF AND PUSH32 0x7E6F4CBDCBCCDA9A2C35B312B52A640EC0FBD3F7C205E40D369A4B1861155646 PUSH1 0x2 PUSH1 0x0 DUP5 PUSH1 0xFF AND PUSH1 0xFF AND DUP2 MSTORE PUSH1 0x20 ADD SWAP1 DUP2 MSTORE PUSH1 0x20 ADD PUSH1 0x0 KECCAK256 PUSH1 0x0 ADD PUSH1 0x40 MLOAD PUSH2 0x30C SWAP2 SWAP1 PUSH2 0xCEB JUMP JUMPDEST PUSH1 0x40 MLOAD DUP1 SWAP2 SUB SWAP1 LOG2 POP JUMP JUMPDEST PUSH1 0x0 PUSH1 0x1 PUSH1 0x0 SWAP1 SLOAD SWAP1 PUSH2 0x100 EXP SWAP1 DIV PUSH20 0xFFFFFFFFFFFFFFFFFFFFFFFFFFFFFFFFFFFFFFFF AND SWAP1 POP SWAP1 JUMP JUMPDEST PUSH1 0x0 PUSH1 0xA DUP3 PUSH1 0xFF AND LT PUSH2 0x389 JUMPI PUSH1 0x40 MLOAD PUSH32 0x8C379A000000000000000000000000000000000000000000000000000000000 DUP2 MSTORE PUSH1 0x4 ADD PUSH2 0x380 SWAP1 PUSH2 0xD4D JUMP JUMPDEST PUSH1 0x40 MLOAD DUP1 SWAP2 SUB SWAP1 REVERT JUMPDEST PUSH1 0x2 PUSH1 0x0 DUP4 PUSH1 0xFF AND PUSH1 0xFF AND DUP2 MSTORE PUSH1 0x20 ADD SWAP1 DUP2 MSTORE PUSH1 0x20 ADD PUSH1 0x0 KECCAK256 PUSH1 0x1 ADD PUSH1 0x0 SWAP1 SLOAD SWAP1 PUSH2 0x100 EXP SWAP1 DIV PUSH1 0xFF AND SWAP1 POP SWAP2 SWAP1 POP JUMP JUMPDEST PUSH1 0x60 PUSH1 0x0 PUSH1 0xA PUSH8 0xFFFFFFFFFFFFFFFF DUP2 GT ISZERO PUSH2 0x3D9 JUMPI PUSH2 0x3D8 PUSH2 0xF6F JUMP JUMPDEST JUMPDEST PUSH1 0x40 MLOAD SWAP1 DUP1 DUP3 MSTORE DUP1 PUSH1 0x20 MUL PUSH1 0x20 ADD DUP3 ADD PUSH1 0x40 MSTORE DUP1 ISZERO PUSH2 0x40C JUMPI DUP2 PUSH1 0x20 ADD JUMPDEST PUSH1 0x60 DUP2 MSTORE PUSH1 0x20 ADD SWAP1 PUSH1 0x1 SWAP1 SUB SWAP1 DUP2 PUSH2 0x3F7 JUMPI SWAP1 POP JUMPDEST POP SWAP1 POP PUSH1 0x0 DUP1 JUMPDEST PUSH1 0xA DUP2 PUSH1 0xFF AND LT ISZERO PUSH2 0x532 JUMPI PUSH1 0x2 PUSH1 0x0 DUP3 PUSH1 0xFF AND PUSH1 0xFF AND DUP2 MSTORE PUSH1 0x20 ADD SWAP1 DUP2 MSTORE PUSH1 0x20 ADD PUSH1 0x0 KECCAK256 PUSH1 0x1 ADD PUSH1 0x0 SWAP1 SLOAD SWAP1 PUSH2 0x100 EXP SWAP1 DIV PUSH1 0xFF AND ISZERO PUSH2 0x521 JUMPI PUSH1 0x2 PUSH1 0x0 DUP3 PUSH1 0xFF AND PUSH1 0xFF AND DUP2 MSTORE PUSH1 0x20 ADD SWAP1 DUP2 MSTORE PUSH1 0x20 ADD PUSH1 0x0 KECCAK256 PUSH1 0x0 ADD DUP1 SLOAD PUSH2 0x475 SWAP1 PUSH2 0xE86 JUMP JUMPDEST DUP1 PUSH1 0x1F ADD PUSH1 0x20 DUP1 SWAP2 DIV MUL PUSH1 0x20 ADD PUSH1 0x40 MLOAD SWAP1 DUP2 ADD PUSH1 0x40 MSTORE DUP1 SWAP3 SWAP2 SWAP1 DUP2 DUP2 MSTORE PUSH1 0x20 ADD DUP3 DUP1 SLOAD PUSH2 0x4A1 SWAP1 PUSH2 0xE86 JUMP JUMPDEST DUP1 ISZERO PUSH2 0x4EE JUMPI DUP1 PUSH1 0x1F LT PUSH2 0x4C3 JUMPI PUSH2 0x100 DUP1 DUP4 SLOAD DIV MUL DUP4 MSTORE SWAP2 PUSH1 0x20 ADD SWAP2 PUSH2 0x4EE JUMP JUMPDEST DUP3 ADD SWAP2 SWAP1 PUSH1 0x0 MSTORE PUSH1 0x20 PUSH1 0x0 KECCAK256 SWAP1 JUMPDEST DUP2 SLOAD DUP2 MSTORE SWAP1 PUSH1 0x1 ADD SWAP1 PUSH1 0x20 ADD DUP1 DUP4 GT PUSH2 0x4D1 JUMPI DUP3 SWAP1 SUB PUSH1 0x1F AND DUP3 ADD SWAP2 JUMPDEST POP POP POP POP POP DUP4 DUP3 PUSH1 0xFF AND DUP2 MLOAD DUP2 LT PUSH2 0x509 JUMPI PUSH2 0x508 PUSH2 0xF40 JUMP JUMPDEST JUMPDEST PUSH1 0x20 MUL PUSH1 0x20 ADD ADD DUP2 SWAP1 MSTORE POP DUP2 PUSH2 0x51E SWAP1 PUSH2 0xEB8 JUMP JUMPDEST SWAP2 POP JUMPDEST DUP1 PUSH2 0x52B SWAP1 PUSH2 0xEB8 JUMP JUMPDEST SWAP1 POP PUSH2 0x413 JUMP JUMPDEST POP PUSH1 0x0 DUP2 PUSH1 0xFF AND PUSH8 0xFFFFFFFFFFFFFFFF DUP2 GT ISZERO PUSH2 0x552 JUMPI PUSH2 0x551 PUSH2 0xF6F JUMP JUMPDEST JUMPDEST PUSH1 0x40 MLOAD SWAP1 DUP1 DUP3 MSTORE DUP1 PUSH1 0x20 MUL PUSH1 0x20 ADD DUP3 ADD PUSH1 0x40 MSTORE DUP1 ISZERO PUSH2 0x585 JUMPI DUP2 PUSH1 0x20 ADD JUMPDEST PUSH1 0x60 DUP2 MSTORE PUSH1 0x20 ADD SWAP1 PUSH1 0x1 SWAP1 SUB SWAP1 DUP2 PUSH2 0x570 JUMPI SWAP1 POP JUMPDEST POP SWAP1 POP PUSH1 0x0 SWAP2 POP PUSH1 0x0 JUMPDEST PUSH1 0xA DUP2 PUSH1 0xFF AND LT ISZERO PUSH2 0x61F JUMPI PUSH1 0x0 DUP5 DUP3 PUSH1 0xFF AND DUP2 MLOAD DUP2 LT PUSH2 0x5B3 JUMPI PUSH2 0x5B2 PUSH2 0xF40 JUMP JUMPDEST JUMPDEST PUSH1 0x20 MUL PUSH1 0x20 ADD ADD MLOAD MLOAD GT ISZERO PUSH2 0x60E JUMPI DUP4 DUP2 PUSH1 0xFF AND DUP2 MLOAD DUP2 LT PUSH2 0x5D8 JUMPI PUSH2 0x5D7 PUSH2 0xF40 JUMP JUMPDEST JUMPDEST PUSH1 0x20 MUL PUSH1 0x20 ADD ADD MLOAD DUP3 DUP5 PUSH1 0xFF AND DUP2 MLOAD DUP2 LT PUSH2 0x5F6 JUMPI PUSH2 0x5F5 PUSH2 0xF40 JUMP JUMPDEST JUMPDEST PUSH1 0x20 MUL PUSH1 0x20 ADD ADD DUP2 SWAP1 MSTORE POP DUP3 PUSH2 0x60B SWAP1 PUSH2 0xEB8 JUMP JUMPDEST SWAP3 POP JUMPDEST DUP1 PUSH2 0x618 SWAP1 PUSH2 0xEB8 JUMP JUMPDEST SWAP1 POP PUSH2 0x58F JUMP JUMPDEST POP DUP1 SWAP4 POP POP POP POP SWAP1 JUMP JUMPDEST PUSH1 0x1 PUSH1 0x0 SWAP1 SLOAD SWAP1 PUSH2 0x100 EXP SWAP1 DIV PUSH20 0xFFFFFFFFFFFFFFFFFFFFFFFFFFFFFFFFFFFFFFFF AND PUSH20 0xFFFFFFFFFFFFFFFFFFFFFFFFFFFFFFFFFFFFFFFF AND CALLER PUSH20 0xFFFFFFFFFFFFFFFFFFFFFFFFFFFFFFFFFFFFFFFF AND EQ PUSH2 0x6B9 JUMPI PUSH1 0x40 MLOAD PUSH32 0x8C379A000000000000000000000000000000000000000000000000000000000 DUP2 MSTORE PUSH1 0x4 ADD PUSH2 0x6B0 SWAP1 PUSH2 0xD2D JUMP JUMPDEST PUSH1 0x40 MLOAD DUP1 SWAP2 SUB SWAP1 REVERT JUMPDEST PUSH1 0xA DUP2 PUSH1 0xFF AND LT PUSH2 0x6FF JUMPI PUSH1 0x40 MLOAD PUSH32 0x8C379A000000000000000000000000000000000000000000000000000000000 DUP2 MSTORE PUSH1 0x4 ADD PUSH2 0x6F6 SWAP1 PUSH2 0xD4D JUMP JUMPDEST PUSH1 0x40 MLOAD DUP1 SWAP2 SUB SWAP1 REVERT JUMPDEST PUSH1 0x2 PUSH1 0x0 DUP3 PUSH1 0xFF AND PUSH1 0xFF AND DUP2 MSTORE PUSH1 0x20 ADD SWAP1 DUP2 MSTORE PUSH1 0x20 ADD PUSH1 0x0 KECCAK256 PUSH1 0x1 ADD PUSH1 0x0 SWAP1 SLOAD SWAP1 PUSH2 0x100 EXP SWAP1 DIV PUSH1 0xFF AND ISZERO PUSH2 0x769 JUMPI PUSH1 0x40 MLOAD PUSH32 0x8C379A000000000000000000000000000000000000000000000000000000000 DUP2 MSTORE PUSH1 0x4 ADD PUSH2 0x760 SWAP1 PUSH2 0xD0D JUMP JUMPDEST PUSH1 0x40 MLOAD DUP1 SWAP2 SUB SWAP1 REVERT JUMPDEST PUSH1 0x1 PUSH1 0x2 PUSH1 0x0 DUP4 PUSH1 0xFF AND PUSH1 0xFF AND DUP2 MSTORE PUSH1 0x20 ADD SWAP1 DUP2 MSTORE PUSH1 0x20 ADD PUSH1 0x0 KECCAK256 PUSH1 0x1 ADD PUSH1 0x0 PUSH2 0x100 EXP DUP2 SLOAD DUP2 PUSH1 0xFF MUL NOT AND SWAP1 DUP4 ISZERO ISZERO MUL OR SWAP1 SSTORE POP DUP1 PUSH1 0xFF AND PUSH32 0xF51AA7C1A8A302A35B139F6AC186CFEAF3D5DB207064B76EC7AACCA01F29BF3C PUSH1 0x2 PUSH1 0x0 DUP5 PUSH1 0xFF AND PUSH1 0xFF AND DUP2 MSTORE PUSH1 0x20 ADD SWAP1 DUP2 MSTORE PUSH1 0x20 ADD PUSH1 0x0 KECCAK256 PUSH1 0x0 ADD PUSH1 0x40 MLOAD PUSH2 0x7EC SWAP2 SWAP1 PUSH2 0xCEB JUMP JUMPDEST PUSH1 0x40 MLOAD DUP1 SWAP2 SUB SWAP1 LOG2 POP JUMP JUMPDEST PUSH1 0x60 PUSH1 0x0 PUSH1 0xA PUSH8 0xFFFFFFFFFFFFFFFF DUP2 GT ISZERO PUSH2 0x816 JUMPI PUSH2 0x815 PUSH2 0xF6F JUMP JUMPDEST JUMPDEST PUSH1 0x40 MLOAD SWAP1 DUP1 DUP3 MSTORE DUP1 PUSH1 0x20 MUL PUSH1 0x20 ADD DUP3 ADD PUSH1 0x40 MSTORE DUP1 ISZERO PUSH2 0x849 JUMPI DUP2 PUSH1 0x20 ADD JUMPDEST PUSH1 0x60 DUP2 MSTORE PUSH1 0x20 ADD SWAP1 PUSH1 0x1 SWAP1 SUB SWAP1 DUP2 PUSH2 0x834 JUMPI SWAP1 POP JUMPDEST POP SWAP1 POP PUSH1 0x0 DUP1 JUMPDEST PUSH1 0xA DUP2 PUSH1 0xFF AND LT ISZERO PUSH2 0x96E JUMPI PUSH1 0x2 PUSH1 0x0 DUP3 PUSH1 0xFF AND PUSH1 0xFF AND DUP2 MSTORE PUSH1 0x20 ADD SWAP1 DUP2 MSTORE PUSH1 0x20 ADD PUSH1 0x0 KECCAK256 PUSH1 0x1 ADD PUSH1 0x0 SWAP1 SLOAD SWAP1 PUSH2 0x100 EXP SWAP1 DIV PUSH1 0xFF AND PUSH2 0x95D JUMPI PUSH1 0x2 PUSH1 0x0 DUP3 PUSH1 0xFF AND PUSH1 0xFF AND DUP2 MSTORE PUSH1 0x20 ADD SWAP1 DUP2 MSTORE PUSH1 0x20 ADD PUSH1 0x0 KECCAK256 PUSH1 0x0 ADD DUP1 SLOAD PUSH2 0x8B1 SWAP1 PUSH2 0xE86 JUMP JUMPDEST DUP1 PUSH1 0x1F ADD PUSH1 0x20 DUP1 SWAP2 DIV MUL PUSH1 0x20 ADD PUSH1 0x40 MLOAD SWAP1 DUP2 ADD PUSH1 0x40 MSTORE DUP1 SWAP3 SWAP2 SWAP1 DUP2 DUP2 MSTORE PUSH1 0x20 ADD DUP3 DUP1 SLOAD PUSH2 0x8DD SWAP1 PUSH2 0xE86 JUMP JUMPDEST DUP1 ISZERO PUSH2 0x92A JUMPI DUP1 PUSH1 0x1F LT PUSH2 0x8FF JUMPI PUSH2 0x100 DUP1 DUP4 SLOAD DIV MUL DUP4 MSTORE SWAP2 PUSH1 0x20 ADD SWAP2 PUSH2 0x92A JUMP JUMPDEST DUP3 ADD SWAP2 SWAP1 PUSH1 0x0 MSTORE PUSH1 0x20 PUSH1 0x0 KECCAK256 SWAP1 JUMPDEST DUP2 SLOAD DUP2 MSTORE SWAP1 PUSH1 0x1 ADD SWAP1 PUSH1 0x20 ADD DUP1 DUP4 GT PUSH2 0x90D JUMPI DUP3 SWAP1 SUB PUSH1 0x1F AND DUP3 ADD SWAP2 JUMPDEST POP POP POP POP POP DUP4 DUP3 PUSH1 0xFF AND DUP2 MLOAD DUP2 LT PUSH2 0x945 JUMPI PUSH2 0x944 PUSH2 0xF40 JUMP JUMPDEST JUMPDEST PUSH1 0x20 MUL PUSH1 0x20 ADD ADD DUP2 SWAP1 MSTORE POP DUP2 PUSH2 0x95A SWAP1 PUSH2 0xEB8 JUMP JUMPDEST SWAP2 POP JUMPDEST DUP1 PUSH2 0x967 SWAP1 PUSH2 0xEB8 JUMP JUMPDEST SWAP1 POP PUSH2 0x850 JUMP JUMPDEST POP PUSH1 0x0 DUP2 PUSH1 0xFF AND PUSH8 0xFFFFFFFFFFFFFFFF DUP2 GT ISZERO PUSH2 0x98E JUMPI PUSH2 0x98D PUSH2 0xF6F JUMP JUMPDEST JUMPDEST PUSH1 0x40 MLOAD SWAP1 DUP1 DUP3 MSTORE DUP1 PUSH1 0x20 MUL PUSH1 0x20 ADD DUP3 ADD PUSH1 0x40 MSTORE DUP1 ISZERO PUSH2 0x9C1 JUMPI DUP2 PUSH1 0x20 ADD JUMPDEST PUSH1 0x60 DUP2 MSTORE PUSH1 0x20 ADD SWAP1 PUSH1 0x1 SWAP1 SUB SWAP1 DUP2 PUSH2 0x9AC JUMPI SWAP1 POP JUMPDEST POP SWAP1 POP PUSH1 0x0 SWAP2 POP PUSH1 0x0 JUMPDEST PUSH1 0xA DUP2 PUSH1 0xFF AND LT ISZERO PUSH2 0xA5B JUMPI PUSH1 0x0 DUP5 DUP3 PUSH1 0xFF AND DUP2 MLOAD DUP2 LT PUSH2 0x9EF JUMPI PUSH2 0x9EE PUSH2 0xF40 JUMP JUMPDEST JUMPDEST PUSH1 0x20 MUL PUSH1 0x20 ADD ADD MLOAD MLOAD GT ISZERO PUSH2 0xA4A JUMPI DUP4 DUP2 PUSH1 0xFF AND DUP2 MLOAD DUP2 LT PUSH2 0xA14 JUMPI PUSH2 0xA13 PUSH2 0xF40 JUMP JUMPDEST JUMPDEST PUSH1 0x20 MUL PUSH1 0x20 ADD ADD MLOAD DUP3 DUP5 PUSH1 0xFF AND DUP2 MLOAD DUP2 LT PUSH2 0xA32 JUMPI PUSH2 0xA31 PUSH2 0xF40 JUMP JUMPDEST JUMPDEST PUSH1 0x20 MUL PUSH1 0x20 ADD ADD DUP2 SWAP1 MSTORE POP DUP3 PUSH2 0xA47 SWAP1 PUSH2 0xEB8 JUMP JUMPDEST SWAP3 POP JUMPDEST DUP1 PUSH2 0xA54 SWAP1 PUSH2 0xEB8 JUMP JUMPDEST SWAP1 POP PUSH2 0x9CB JUMP JUMPDEST POP DUP1 SWAP4 POP POP POP POP SWAP1 JUMP JUMPDEST PUSH1 0x0 DUP2 CALLDATALOAD SWAP1 POP PUSH2 0xA74 DUP2 PUSH2 0x107E JUMP JUMPDEST SWAP3 SWAP2 POP POP JUMP JUMPDEST PUSH1 0x0 PUSH1 0x20 DUP3 DUP5 SUB SLT ISZERO PUSH2 0xA90 JUMPI PUSH2 0xA8F PUSH2 0xF9E JUMP JUMPDEST JUMPDEST PUSH1 0x0 PUSH2 0xA9E DUP5 DUP3 DUP6 ADD PUSH2 0xA65 JUMP JUMPDEST SWAP2 POP POP SWAP3 SWAP2 POP POP JUMP JUMPDEST PUSH1 0x0 PUSH2 0xAB3 DUP4 DUP4 PUSH2 0xB4E JUMP JUMPDEST SWAP1 POP SWAP3 SWAP2 POP POP JUMP JUMPDEST PUSH2 0xAC4 DUP2 PUSH2 0xE08 JUMP JUMPDEST DUP3 MSTORE POP POP JUMP JUMPDEST PUSH1 0x0 PUSH2 0xAD5 DUP3 PUSH2 0xDB2 JUMP JUMPDEST PUSH2 0xADF DUP2 DUP6 PUSH2 0xDD5 JUMP JUMPDEST SWAP4 POP DUP4 PUSH1 0x20 DUP3 MUL DUP6 ADD PUSH2 0xAF1 DUP6 PUSH2 0xD8D JUMP JUMPDEST DUP1 PUSH1 0x0 JUMPDEST DUP6 DUP2 LT ISZERO PUSH2 0xB2D JUMPI DUP5 DUP5 SUB DUP10 MSTORE DUP2 MLOAD PUSH2 0xB0E DUP6 DUP3 PUSH2 0xAA7 JUMP JUMPDEST SWAP5 POP PUSH2 0xB19 DUP4 PUSH2 0xDC8 JUMP JUMPDEST SWAP3 POP PUSH1 0x20 DUP11 ADD SWAP10 POP POP PUSH1 0x1 DUP2 ADD SWAP1 POP PUSH2 0xAF5 JUMP JUMPDEST POP DUP3 SWAP8 POP DUP8 SWAP6 POP POP POP POP POP POP SWAP3 SWAP2 POP POP JUMP JUMPDEST PUSH2 0xB48 DUP2 PUSH2 0xE1A JUMP JUMPDEST DUP3 MSTORE POP POP JUMP JUMPDEST PUSH1 0x0 PUSH2 0xB59 DUP3 PUSH2 0xDBD JUMP JUMPDEST PUSH2 0xB63 DUP2 DUP6 PUSH2 0xDE6 JUMP JUMPDEST SWAP4 POP PUSH2 0xB73 DUP2 DUP6 PUSH1 0x20 DUP7 ADD PUSH2 0xE53 JUMP JUMPDEST PUSH2 0xB7C DUP2 PUSH2 0xFA3 JUMP JUMPDEST DUP5 ADD SWAP2 POP POP SWAP3 SWAP2 POP POP JUMP JUMPDEST PUSH1 0x0 DUP2 SLOAD PUSH2 0xB94 DUP2 PUSH2 0xE86 JUMP JUMPDEST PUSH2 0xB9E DUP2 DUP7 PUSH2 0xDF7 JUMP JUMPDEST SWAP5 POP PUSH1 0x1 DUP3 AND PUSH1 0x0 DUP2 EQ PUSH2 0xBB9 JUMPI PUSH1 0x1 DUP2 EQ PUSH2 0xBCB JUMPI PUSH2 0xBFE JUMP JUMPDEST PUSH1 0xFF NOT DUP4 AND DUP7 MSTORE PUSH1 0x20 DUP7 ADD SWAP4 POP PUSH2 0xBFE JUMP JUMPDEST PUSH2 0xBD4 DUP6 PUSH2 0xD9D JUMP JUMPDEST PUSH1 0x0 JUMPDEST DUP4 DUP2 LT ISZERO PUSH2 0xBF6 JUMPI DUP2 SLOAD DUP2 DUP10 ADD MSTORE PUSH1 0x1 DUP3 ADD SWAP2 POP PUSH1 0x20 DUP2 ADD SWAP1 POP PUSH2 0xBD7 JUMP JUMPDEST DUP1 DUP9 ADD SWAP6 POP POP POP JUMPDEST POP POP POP SWAP3 SWAP2 POP POP JUMP JUMPDEST PUSH1 0x0 PUSH2 0xC14 PUSH1 0x17 DUP4 PUSH2 0xDF7 JUMP JUMPDEST SWAP2 POP PUSH2 0xC1F DUP3 PUSH2 0xFB4 JUMP JUMPDEST PUSH1 0x20 DUP3 ADD SWAP1 POP SWAP2 SWAP1 POP JUMP JUMPDEST PUSH1 0x0 PUSH2 0xC37 PUSH1 0x31 DUP4 PUSH2 0xDF7 JUMP JUMPDEST SWAP2 POP PUSH2 0xC42 DUP3 PUSH2 0xFDD JUMP JUMPDEST PUSH1 0x40 DUP3 ADD SWAP1 POP SWAP2 SWAP1 POP JUMP JUMPDEST PUSH1 0x0 PUSH2 0xC5A PUSH1 0x11 DUP4 PUSH2 0xDF7 JUMP JUMPDEST SWAP2 POP PUSH2 0xC65 DUP3 PUSH2 0x102C JUMP JUMPDEST PUSH1 0x20 DUP3 ADD SWAP1 POP SWAP2 SWAP1 POP JUMP JUMPDEST PUSH1 0x0 PUSH2 0xC7D PUSH1 0x16 DUP4 PUSH2 0xDF7 JUMP JUMPDEST SWAP2 POP PUSH2 0xC88 DUP3 PUSH2 0x1055 JUMP JUMPDEST PUSH1 0x20 DUP3 ADD SWAP1 POP SWAP2 SWAP1 POP JUMP JUMPDEST PUSH1 0x0 PUSH1 0x20 DUP3 ADD SWAP1 POP PUSH2 0xCA8 PUSH1 0x0 DUP4 ADD DUP5 PUSH2 0xABB JUMP JUMPDEST SWAP3 SWAP2 POP POP JUMP JUMPDEST PUSH1 0x0 PUSH1 0x20 DUP3 ADD SWAP1 POP DUP2 DUP2 SUB PUSH1 0x0 DUP4 ADD MSTORE PUSH2 0xCC8 DUP2 DUP5 PUSH2 0xACA JUMP JUMPDEST SWAP1 POP SWAP3 SWAP2 POP POP JUMP JUMPDEST PUSH1 0x0 PUSH1 0x20 DUP3 ADD SWAP1 POP PUSH2 0xCE5 PUSH1 0x0 DUP4 ADD DUP5 PUSH2 0xB3F JUMP JUMPDEST SWAP3 SWAP2 POP POP JUMP JUMPDEST PUSH1 0x0 PUSH1 0x20 DUP3 ADD SWAP1 POP DUP2 DUP2 SUB PUSH1 0x0 DUP4 ADD MSTORE PUSH2 0xD05 DUP2 DUP5 PUSH2 0xB87 JUMP JUMPDEST SWAP1 POP SWAP3 SWAP2 POP POP JUMP JUMPDEST PUSH1 0x0 PUSH1 0x20 DUP3 ADD SWAP1 POP DUP2 DUP2 SUB PUSH1 0x0 DUP4 ADD MSTORE PUSH2 0xD26 DUP2 PUSH2 0xC07 JUMP JUMPDEST SWAP1 POP SWAP2 SWAP1 POP JUMP JUMPDEST PUSH1 0x0 PUSH1 0x20 DUP3 ADD SWAP1 POP DUP2 DUP2 SUB PUSH1 0x0 DUP4 ADD MSTORE PUSH2 0xD46 DUP2 PUSH2 0xC2A JUMP JUMPDEST SWAP1 POP SWAP2 SWAP1 POP JUMP JUMPDEST PUSH1 0x0 PUSH1 0x20 DUP3 ADD SWAP1 POP DUP2 DUP2 SUB PUSH1 0x0 DUP4 ADD MSTORE PUSH2 0xD66 DUP2 PUSH2 0xC4D JUMP JUMPDEST SWAP1 POP SWAP2 SWAP1 POP JUMP JUMPDEST PUSH1 0x0 PUSH1 0x20 DUP3 ADD SWAP1 POP DUP2 DUP2 SUB PUSH1 0x0 DUP4 ADD MSTORE PUSH2 0xD86 DUP2 PUSH2 0xC70 JUMP JUMPDEST SWAP1 POP SWAP2 SWAP1 POP JUMP JUMPDEST PUSH1 0x0 DUP2 SWAP1 POP PUSH1 0x20 DUP3 ADD SWAP1 POP SWAP2 SWAP1 POP JUMP JUMPDEST PUSH1 0x0 DUP2 SWAP1 POP DUP2 PUSH1 0x0 MSTORE PUSH1 0x20 PUSH1 0x0 KECCAK256 SWAP1 POP SWAP2 SWAP1 POP JUMP JUMPDEST PUSH1 0x0 DUP2 MLOAD SWAP1 POP SWAP2 SWAP1 POP JUMP JUMPDEST PUSH1 0x0 DUP2 MLOAD SWAP1 POP SWAP2 SWAP1 POP JUMP JUMPDEST PUSH1 0x0 PUSH1 0x20 DUP3 ADD SWAP1 POP SWAP2 SWAP1 POP JUMP JUMPDEST PUSH1 0x0 DUP3 DUP3 MSTORE PUSH1 0x20 DUP3 ADD SWAP1 POP SWAP3 SWAP2 POP POP JUMP JUMPDEST PUSH1 0x0 DUP3 DUP3 MSTORE PUSH1 0x20 DUP3 ADD SWAP1 POP SWAP3 SWAP2 POP POP JUMP JUMPDEST PUSH1 0x0 DUP3 DUP3 MSTORE PUSH1 0x20 DUP3 ADD SWAP1 POP SWAP3 SWAP2 POP POP JUMP JUMPDEST PUSH1 0x0 PUSH2 0xE13 DUP3 PUSH2 0xE26 JUMP JUMPDEST SWAP1 POP SWAP2 SWAP1 POP JUMP JUMPDEST PUSH1 0x0 DUP2 ISZERO ISZERO SWAP1 POP SWAP2 SWAP1 POP JUMP JUMPDEST PUSH1 0x0 PUSH20 0xFFFFFFFFFFFFFFFFFFFFFFFFFFFFFFFFFFFFFFFF DUP3 AND SWAP1 POP SWAP2 SWAP1 POP JUMP JUMPDEST PUSH1 0x0 PUSH1 0xFF DUP3 AND SWAP1 POP SWAP2 SWAP1 POP JUMP JUMPDEST PUSH1 0x0 JUMPDEST DUP4 DUP2 LT ISZERO PUSH2 0xE71 JUMPI DUP1 DUP3 ADD MLOAD DUP2 DUP5 ADD MSTORE PUSH1 0x20 DUP2 ADD SWAP1 POP PUSH2 0xE56 JUMP JUMPDEST DUP4 DUP2 GT ISZERO PUSH2 0xE80 JUMPI PUSH1 0x0 DUP5 DUP5 ADD MSTORE JUMPDEST POP POP POP POP JUMP JUMPDEST PUSH1 0x0 PUSH1 0x2 DUP3 DIV SWAP1 POP PUSH1 0x1 DUP3 AND DUP1 PUSH2 0xE9E JUMPI PUSH1 0x7F DUP3 AND SWAP2 POP JUMPDEST PUSH1 0x20 DUP3 LT DUP2 EQ ISZERO PUSH2 0xEB2 JUMPI PUSH2 0xEB1 PUSH2 0xF11 JUMP JUMPDEST JUMPDEST POP SWAP2 SWAP1 POP JUMP JUMPDEST PUSH1 0x0 PUSH2 0xEC3 DUP3 PUSH2 0xE46 JUMP JUMPDEST SWAP2 POP PUSH1 0xFF DUP3 EQ ISZERO PUSH2 0xED7 JUMPI PUSH2 0xED6 PUSH2 0xEE2 JUMP JUMPDEST JUMPDEST PUSH1 0x1 DUP3 ADD SWAP1 POP SWAP2 SWAP1 POP JUMP JUMPDEST PUSH32 0x4E487B7100000000000000000000000000000000000000000000000000000000 PUSH1 0x0 MSTORE PUSH1 0x11 PUSH1 0x4 MSTORE PUSH1 0x24 PUSH1 0x0 REVERT JUMPDEST PUSH32 0x4E487B7100000000000000000000000000000000000000000000000000000000 PUSH1 0x0 MSTORE PUSH1 0x22 PUSH1 0x4 MSTORE PUSH1 0x24 PUSH1 0x0 REVERT JUMPDEST PUSH32 0x4E487B7100000000000000000000000000000000000000000000000000000000 PUSH1 0x0 MSTORE PUSH1 0x32 PUSH1 0x4 MSTORE PUSH1 0x24 PUSH1 0x0 REVERT JUMPDEST PUSH32 0x4E487B7100000000000000000000000000000000000000000000000000000000 PUSH1 0x0 MSTORE PUSH1 0x41 PUSH1 0x4 MSTORE PUSH1 0x24 PUSH1 0x0 REVERT JUMPDEST PUSH1 0x0 DUP1 REVERT JUMPDEST PUSH1 0x0 PUSH1 0x1F NOT PUSH1 0x1F DUP4 ADD AND SWAP1 POP SWAP2 SWAP1 POP JUMP JUMPDEST PUSH32 0x43616E61727920697320616C726561647920616C697665000000000000000000 PUSH1 0x0 DUP3 ADD MSTORE POP JUMP JUMPDEST PUSH32 0x4F6E6C792074686520636F6E7472616374206465706C6F7965722063616E2063 PUSH1 0x0 DUP3 ADD MSTORE PUSH32 0x616C6C20746869732066756E6374696F6E000000000000000000000000000000 PUSH1 0x20 DUP3 ADD MSTORE POP JUMP JUMPDEST PUSH32 0x496E76616C69642063616E617279206964000000000000000000000000000000 PUSH1 0x0 DUP3 ADD MSTORE POP JUMP JUMPDEST PUSH32 0x43616E61727920697320616C7265616479206465616400000000000000000000 PUSH1 0x0 DUP3 ADD MSTORE POP JUMP JUMPDEST PUSH2 0x1087 DUP2 PUSH2 0xE46 JUMP JUMPDEST DUP2 EQ PUSH2 0x1092 JUMPI PUSH1 0x0 DUP1 REVERT JUMPDEST POP JUMP INVALID LOG2 PUSH5 0x6970667358 0x22 SLT KECCAK256 0xDA DUP6 OR BALANCE DIV 0xCF 0xE1 SHL 0xC0 DUP10 PUSH18 0x591DDFFAF8AEDF89A7DBB318BCBA4CAB22AC PUSH2 0x948B PUSH5 0x736F6C6343 STOP ADDMOD SMOD STOP CALLER "
				},
				"gasEstimates": {
					"creation": {
						"codeDepositCost": "859800",
						"executionCost": "infinite",
						"totalCost": "infinite"
					},
					"external": {
						"getAliveCanaries()": "infinite",
						"getCanaryStatus(uint8)": "2897",
						"getDeadCanaries()": "infinite",
						"getOwner()": "2522",
						"killCanary(uint8)": "infinite",
						"reviveCanary(uint8)": "infinite"
					}
				},
				"methodIdentifiers": {
					"getAliveCanaries()": "b17564bf",
					"getCanaryStatus(uint8)": "89df6576",
					"getDeadCanaries()": "fa30aea2",
					"getOwner()": "893d20e8",
					"killCanary(uint8)": "20171645",
					"reviveCanary(uint8)": "bb5cb5f5"
				}
			},
			"storageLayout": {
				"storage": [
					{
						"astId": 15,
						"contract": "Contracts/WarrantCanary v2.0.sol:WarrantCanary",
						"label": "canaryNames",
						"offset": 0,
						"slot": "0",
						"type": "t_array(t_string_storage)dyn_storage"
					},
					{
						"astId": 24,
						"contract": "Contracts/WarrantCanary v2.0.sol:WarrantCanary",
						"label": "owner",
						"offset": 0,
						"slot": "1",
						"type": "t_address"
					},
					{
						"astId": 29,
						"contract": "Contracts/WarrantCanary v2.0.sol:WarrantCanary",
						"label": "canaries",
						"offset": 0,
						"slot": "2",
						"type": "t_mapping(t_uint8,t_struct(canary)22_storage)"
					}
				],
				"types": {
					"t_address": {
						"encoding": "inplace",
						"label": "address",
						"numberOfBytes": "20"
					},
					"t_array(t_string_storage)dyn_storage": {
						"base": "t_string_storage",
						"encoding": "dynamic_array",
						"label": "string[]",
						"numberOfBytes": "32"
					},
					"t_bool": {
						"encoding": "inplace",
						"label": "bool",
						"numberOfBytes": "1"
					},
					"t_mapping(t_uint8,t_struct(canary)22_storage)": {
						"encoding": "mapping",
						"key": "t_uint8",
						"label": "mapping(uint8 => struct WarrantCanary.canary)",
						"numberOfBytes": "32",
						"value": "t_struct(canary)22_storage"
					},
					"t_string_storage": {
						"encoding": "bytes",
						"label": "string",
						"numberOfBytes": "32"
					},
					"t_struct(canary)22_storage": {
						"encoding": "inplace",
						"label": "struct WarrantCanary.canary",
						"members": [
							{
								"astId": 17,
								"contract": "Contracts/WarrantCanary v2.0.sol:WarrantCanary",
								"label": "name",
								"offset": 0,
								"slot": "0",
								"type": "t_string_storage"
							},
							{
								"astId": 19,
								"contract": "Contracts/WarrantCanary v2.0.sol:WarrantCanary",
								"label": "alive",
								"offset": 0,
								"slot": "1",
								"type": "t_bool"
							},
							{
								"astId": 21,
								"contract": "Contracts/WarrantCanary v2.0.sol:WarrantCanary",
								"label": "blockOfDeath",
								"offset": 0,
								"slot": "2",
								"type": "t_uint256"
							}
						],
						"numberOfBytes": "96"
					},
					"t_uint256": {
						"encoding": "inplace",
						"label": "uint256",
						"numberOfBytes": "32"
					},
					"t_uint8": {
						"encoding": "inplace",
						"label": "uint8",
						"numberOfBytes": "1"
					}
				}
			},
			"userdoc": {
				"kind": "user",
				"methods": {},
				"version": 1
			}
		}
	}
}