{
	"Contracts/WarrantCanary.sol": {
		"WarrantCanary": {
			"abi": [
				{
					"inputs": [],
					"stateMutability": "nonpayable",
					"type": "constructor"
				},
				{
					"anonymous": false,
					"inputs": [
						{
							"indexed": true,
							"internalType": "uint8",
							"name": "canaryID",
							"type": "uint8"
						},
						{
							"indexed": false,
							"internalType": "string",
							"name": "canaryName",
							"type": "string"
						}
					],
					"name": "REVIVED",
					"type": "event"
				},
				{
					"anonymous": false,
					"inputs": [
						{
							"indexed": true,
							"internalType": "uint8",
							"name": "canaryID",
							"type": "uint8"
						},
						{
							"indexed": false,
							"internalType": "string",
							"name": "canaryName",
							"type": "string"
						}
					],
					"name": "RIP",
					"type": "event"
				},
				{
					"inputs": [
						{
							"internalType": "uint8",
							"name": "canaryID",
							"type": "uint8"
						}
					],
					"name": "getCanaryStatus",
					"outputs": [
						{
							"internalType": "bool",
							"name": "",
							"type": "bool"
						}
					],
					"stateMutability": "view",
					"type": "function"
				},
				{
					"inputs": [],
					"name": "getOwner",
					"outputs": [
						{
							"internalType": "address",
							"name": "",
							"type": "address"
						}
					],
					"stateMutability": "view",
					"type": "function"
				},
				{
					"inputs": [
						{
							"internalType": "uint8",
							"name": "canaryID",
							"type": "uint8"
						}
					],
					"name": "killCanary",
					"outputs": [],
					"stateMutability": "nonpayable",
					"type": "function"
				},
				{
					"inputs": [
						{
							"internalType": "uint8",
							"name": "canaryID",
							"type": "uint8"
						}
					],
					"name": "reviveCanary",
					"outputs": [],
					"stateMutability": "nonpayable",
					"type": "function"
				}
			],
			"devdoc": {
				"kind": "dev",
				"methods": {},
				"version": 1
			},
			"evm": {
				"assembly": "    /* \"Contracts/WarrantCanary.sol\":253:2955  contract WarrantCanary {\r... */\n  mstore(0x40, 0x80)\n    /* \"Contracts/WarrantCanary.sol\":353:918  string[] private canaries = [\r... */\n  mload(0x40)\n  dup1\n  0x0140\n  add\n  0x40\n  mstore\n  dup1\n  mload(0x40)\n  dup1\n  0x40\n  add\n  0x40\n  mstore\n  dup1\n  0x03\n  dup2\n  mstore\n  0x20\n  add\n  0x5741520000000000000000000000000000000000000000000000000000000000\n  dup2\n  mstore\n  pop\n  dup2\n  mstore\n  0x20\n  add\n  mload(0x40)\n  dup1\n  0x40\n  add\n  0x40\n  mstore\n  dup1\n  0x03\n  dup2\n  mstore\n  0x20\n  add\n  0x4741470000000000000000000000000000000000000000000000000000000000\n  dup2\n  mstore\n  pop\n  dup2\n  mstore\n  0x20\n  add\n  mload(0x40)\n  dup1\n  0x40\n  add\n  0x40\n  mstore\n  dup1\n  0x04\n  dup2\n  mstore\n  0x20\n  add\n  0x5355425000000000000000000000000000000000000000000000000000000000\n  dup2\n  mstore\n  pop\n  dup2\n  mstore\n  0x20\n  add\n  mload(0x40)\n  dup1\n  0x40\n  add\n  0x40\n  mstore\n  dup1\n  0x04\n  dup2\n  mstore\n  0x20\n  add\n  0x5452415000000000000000000000000000000000000000000000000000000000\n  dup2\n  mstore\n  pop\n  dup2\n  mstore\n  0x20\n  add\n  mload(0x40)\n  dup1\n  0x40\n  add\n  0x40\n  mstore\n  dup1\n  0x05\n  dup2\n  mstore\n  0x20\n  add\n  0x4345415345000000000000000000000000000000000000000000000000000000\n  dup2\n  mstore\n  pop\n  dup2\n  mstore\n  0x20\n  add\n  mload(0x40)\n  dup1\n  0x40\n  add\n  0x40\n  mstore\n  dup1\n  0x06\n  dup2\n  mstore\n  0x20\n  add\n  0x4455524553530000000000000000000000000000000000000000000000000000\n  dup2\n  mstore\n  pop\n  dup2\n  mstore\n  0x20\n  add\n  mload(0x40)\n  dup1\n  0x40\n  add\n  0x40\n  mstore\n  dup1\n  0x04\n  dup2\n  mstore\n  0x20\n  add\n  0x5241494400000000000000000000000000000000000000000000000000000000\n  dup2\n  mstore\n  pop\n  dup2\n  mstore\n  0x20\n  add\n  mload(0x40)\n  dup1\n  0x40\n  add\n  0x40\n  mstore\n  dup1\n  0x05\n  dup2\n  mstore\n  0x20\n  add\n  0x5345495a45000000000000000000000000000000000000000000000000000000\n  dup2\n  mstore\n  pop\n  dup2\n  mstore\n  0x20\n  add\n  mload(0x40)\n  dup1\n  0x40\n  add\n  0x40\n  mstore\n  dup1\n  0x05\n  dup2\n  mstore\n  0x20\n  add\n  0x5843524544000000000000000000000000000000000000000000000000000000\n  dup2\n  mstore\n  pop\n  dup2\n  mstore\n  0x20\n  add\n  mload(0x40)\n  dup1\n  0x40\n  add\n  0x40\n  mstore\n  dup1\n  0x06\n  dup2\n  mstore\n  0x20\n  add\n  0x584f504552530000000000000000000000000000000000000000000000000000\n  dup2\n  mstore\n  pop\n  dup2\n  mstore\n  pop\n  0x00\n  swap1\n  0x0a\n  tag_1\n  swap3\n  swap2\n  swap1\n  tag_2\n  jump\t// in\ntag_1:\n  pop\n    /* \"Contracts/WarrantCanary.sol\":1288:1482  constructor() {\r... */\n  callvalue\n  dup1\n  iszero\n  tag_3\n  jumpi\n  0x00\n  dup1\n  revert\ntag_3:\n  pop\n    /* \"Contracts/WarrantCanary.sol\":1321:1331  msg.sender */\n  caller\n    /* \"Contracts/WarrantCanary.sol\":1313:1318  owner */\n  0x01\n  0x00\n    /* \"Contracts/WarrantCanary.sol\":1313:1331  owner = msg.sender */\n  0x0100\n  exp\n  dup2\n  sload\n  dup2\n  0xffffffffffffffffffffffffffffffffffffffff\n  mul\n  not\n  and\n  swap1\n  dup4\n  0xffffffffffffffffffffffffffffffffffffffff\n  and\n  mul\n  or\n  swap1\n  sstore\n  pop\n    /* \"Contracts/WarrantCanary.sol\":1348:1355  uint8 i */\n  0x00\n    /* \"Contracts/WarrantCanary.sol\":1344:1475  for(uint8 i = 0; i < 10; ++i) {\r... */\ntag_6:\n    /* \"Contracts/WarrantCanary.sol\":1365:1367  10 */\n  0x0a\n    /* \"Contracts/WarrantCanary.sol\":1361:1362  i */\n  dup2\n    /* \"Contracts/WarrantCanary.sol\":1361:1367  i < 10 */\n  0xff\n  and\n  lt\n    /* \"Contracts/WarrantCanary.sol\":1344:1475  for(uint8 i = 0; i < 10; ++i) {\r... */\n  iszero\n  tag_7\n  jumpi\n    /* \"Contracts/WarrantCanary.sol\":1389:1404  canary memory c */\n  0x00\n    /* \"Contracts/WarrantCanary.sol\":1407:1435  canary(canaries[i], true, 0) */\n  mload(0x40)\n  dup1\n  0x60\n  add\n  0x40\n  mstore\n  dup1\n    /* \"Contracts/WarrantCanary.sol\":1414:1422  canaries */\n  0x00\n    /* \"Contracts/WarrantCanary.sol\":1423:1424  i */\n  dup5\n    /* \"Contracts/WarrantCanary.sol\":1414:1425  canaries[i] */\n  0xff\n  and\n  dup2\n  sload\n  dup2\n  lt\n  tag_9\n  jumpi\n  tag_10\n  tag_11\n  jump\t// in\ntag_10:\ntag_9:\n  swap1\n  0x00\n  mstore\n  keccak256(0x00, 0x20)\n  add\n    /* \"Contracts/WarrantCanary.sol\":1407:1435  canary(canaries[i], true, 0) */\n  dup1\n  sload\n  tag_13\n  swap1\n  tag_14\n  jump\t// in\ntag_13:\n  dup1\n  0x1f\n  add\n  0x20\n  dup1\n  swap2\n  div\n  mul\n  0x20\n  add\n  mload(0x40)\n  swap1\n  dup2\n  add\n  0x40\n  mstore\n  dup1\n  swap3\n  swap2\n  swap1\n  dup2\n  dup2\n  mstore\n  0x20\n  add\n  dup3\n  dup1\n  sload\n  tag_15\n  swap1\n  tag_14\n  jump\t// in\ntag_15:\n  dup1\n  iszero\n  tag_16\n  jumpi\n  dup1\n  0x1f\n  lt\n  tag_17\n  jumpi\n  0x0100\n  dup1\n  dup4\n  sload\n  div\n  mul\n  dup4\n  mstore\n  swap2\n  0x20\n  add\n  swap2\n  jump(tag_16)\ntag_17:\n  dup3\n  add\n  swap2\n  swap1\n  0x00\n  mstore\n  keccak256(0x00, 0x20)\n  swap1\ntag_18:\n  dup2\n  sload\n  dup2\n  mstore\n  swap1\n  0x01\n  add\n  swap1\n  0x20\n  add\n  dup1\n  dup4\n  gt\n  tag_18\n  jumpi\n  dup3\n  swap1\n  sub\n  0x1f\n  and\n  dup3\n  add\n  swap2\ntag_16:\n  pop\n  pop\n  pop\n  pop\n  pop\n  dup2\n  mstore\n  0x20\n  add\n    /* \"Contracts/WarrantCanary.sol\":1427:1431  true */\n  0x01\n    /* \"Contracts/WarrantCanary.sol\":1407:1435  canary(canaries[i], true, 0) */\n  iszero\n  iszero\n  dup2\n  mstore\n  0x20\n  add\n    /* \"Contracts/WarrantCanary.sol\":1433:1434  0 */\n  0x00\n    /* \"Contracts/WarrantCanary.sol\":1407:1435  canary(canaries[i], true, 0) */\n  dup2\n  mstore\n  pop\n    /* \"Contracts/WarrantCanary.sol\":1389:1435  canary memory c = canary(canaries[i], true, 0) */\n  swap1\n  pop\n    /* \"Contracts/WarrantCanary.sol\":1462:1463  c */\n  dup1\n    /* \"Contracts/WarrantCanary.sol\":1450:1456  status */\n  0x02\n    /* \"Contracts/WarrantCanary.sol\":1450:1459  status[i] */\n  0x00\n    /* \"Contracts/WarrantCanary.sol\":1457:1458  i */\n  dup5\n    /* \"Contracts/WarrantCanary.sol\":1450:1459  status[i] */\n  0xff\n  and\n  0xff\n  and\n  dup2\n  mstore\n  0x20\n  add\n  swap1\n  dup2\n  mstore\n  0x20\n  add\n  0x00\n  keccak256\n    /* \"Contracts/WarrantCanary.sol\":1450:1463  status[i] = c */\n  0x00\n  dup3\n  add\n  mload\n  dup2\n  0x00\n  add\n  swap1\n  dup1\n  mload\n  swap1\n  0x20\n  add\n  swap1\n  tag_19\n  swap3\n  swap2\n  swap1\n  tag_20\n  jump\t// in\ntag_19:\n  pop\n  0x20\n  dup3\n  add\n  mload\n  dup2\n  0x01\n  add\n  exp(0x0100, 0x00)\n  dup2\n  sload\n  dup2\n  0xff\n  mul\n  not\n  and\n  swap1\n  dup4\n  iszero\n  iszero\n  mul\n  or\n  swap1\n  sstore\n  pop\n  0x40\n  dup3\n  add\n  mload\n  dup2\n  0x02\n  add\n  sstore\n  swap1\n  pop\n  pop\n    /* \"Contracts/WarrantCanary.sol\":1374:1475  {\r... */\n  pop\n    /* \"Contracts/WarrantCanary.sol\":1369:1372  ++i */\n  dup1\n  tag_21\n  swap1\n  tag_22\n  jump\t// in\ntag_21:\n  swap1\n  pop\n    /* \"Contracts/WarrantCanary.sol\":1344:1475  for(uint8 i = 0; i < 10; ++i) {\r... */\n  jump(tag_6)\ntag_7:\n  pop\n    /* \"Contracts/WarrantCanary.sol\":253:2955  contract WarrantCanary {\r... */\n  jump(tag_23)\ntag_2:\n  dup3\n  dup1\n  sload\n  dup3\n  dup3\n  sstore\n  swap1\n  0x00\n  mstore\n  keccak256(0x00, 0x20)\n  swap1\n  dup2\n  add\n  swap3\n  dup3\n  iszero\n  tag_24\n  jumpi\n  swap2\n  0x20\n  mul\n  dup3\n  add\ntag_25:\n  dup3\n  dup2\n  gt\n  iszero\n  tag_26\n  jumpi\n  dup3\n  mload\n  dup3\n  swap1\n  dup1\n  mload\n  swap1\n  0x20\n  add\n  swap1\n  tag_27\n  swap3\n  swap2\n  swap1\n  tag_20\n  jump\t// in\ntag_27:\n  pop\n  swap2\n  0x20\n  add\n  swap2\n  swap1\n  0x01\n  add\n  swap1\n  jump(tag_25)\ntag_26:\ntag_24:\n  pop\n  swap1\n  pop\n  tag_28\n  swap2\n  swap1\n  tag_29\n  jump\t// in\ntag_28:\n  pop\n  swap1\n  jump\t// out\ntag_20:\n  dup3\n  dup1\n  sload\n  tag_30\n  swap1\n  tag_14\n  jump\t// in\ntag_30:\n  swap1\n  0x00\n  mstore\n  keccak256(0x00, 0x20)\n  swap1\n  0x1f\n  add\n  0x20\n  swap1\n  div\n  dup2\n  add\n  swap3\n  dup3\n  tag_32\n  jumpi\n  0x00\n  dup6\n  sstore\n  jump(tag_31)\ntag_32:\n  dup3\n  0x1f\n  lt\n  tag_33\n  jumpi\n  dup1\n  mload\n  not(0xff)\n  and\n  dup4\n  dup1\n  add\n  or\n  dup6\n  sstore\n  jump(tag_31)\ntag_33:\n  dup3\n  dup1\n  add\n  0x01\n  add\n  dup6\n  sstore\n  dup3\n  iszero\n  tag_31\n  jumpi\n  swap2\n  dup3\n  add\ntag_34:\n  dup3\n  dup2\n  gt\n  iszero\n  tag_35\n  jumpi\n  dup3\n  mload\n  dup3\n  sstore\n  swap2\n  0x20\n  add\n  swap2\n  swap1\n  0x01\n  add\n  swap1\n  jump(tag_34)\ntag_35:\ntag_31:\n  pop\n  swap1\n  pop\n  tag_36\n  swap2\n  swap1\n  tag_37\n  jump\t// in\ntag_36:\n  pop\n  swap1\n  jump\t// out\ntag_29:\ntag_38:\n  dup1\n  dup3\n  gt\n  iszero\n  tag_39\n  jumpi\n  0x00\n  dup2\n  dup2\n  tag_40\n  swap2\n  swap1\n  tag_41\n  jump\t// in\ntag_40:\n  pop\n  0x01\n  add\n  jump(tag_38)\ntag_39:\n  pop\n  swap1\n  jump\t// out\ntag_37:\ntag_42:\n  dup1\n  dup3\n  gt\n  iszero\n  tag_43\n  jumpi\n  0x00\n  dup2\n  0x00\n  swap1\n  sstore\n  pop\n  0x01\n  add\n  jump(tag_42)\ntag_43:\n  pop\n  swap1\n  jump\t// out\ntag_41:\n  pop\n  dup1\n  sload\n  tag_44\n  swap1\n  tag_14\n  jump\t// in\ntag_44:\n  0x00\n  dup3\n  sstore\n  dup1\n  0x1f\n  lt\n  tag_46\n  jumpi\n  pop\n  jump(tag_45)\ntag_46:\n  0x1f\n  add\n  0x20\n  swap1\n  div\n  swap1\n  0x00\n  mstore\n  keccak256(0x00, 0x20)\n  swap1\n  dup2\n  add\n  swap1\n  tag_47\n  swap2\n  swap1\n  tag_37\n  jump\t// in\ntag_47:\ntag_45:\n  pop\n  jump\t// out\n    /* \"#utility.yul\":7:93   */\ntag_49:\n    /* \"#utility.yul\":42:49   */\n  0x00\n    /* \"#utility.yul\":82:86   */\n  0xff\n    /* \"#utility.yul\":75:80   */\n  dup3\n    /* \"#utility.yul\":71:87   */\n  and\n    /* \"#utility.yul\":60:87   */\n  swap1\n  pop\n    /* \"#utility.yul\":7:93   */\n  swap2\n  swap1\n  pop\n  jump\t// out\n    /* \"#utility.yul\":99:419   */\ntag_14:\n    /* \"#utility.yul\":143:149   */\n  0x00\n    /* \"#utility.yul\":180:181   */\n  0x02\n    /* \"#utility.yul\":174:178   */\n  dup3\n    /* \"#utility.yul\":170:182   */\n  div\n    /* \"#utility.yul\":160:182   */\n  swap1\n  pop\n    /* \"#utility.yul\":227:228   */\n  0x01\n    /* \"#utility.yul\":221:225   */\n  dup3\n    /* \"#utility.yul\":217:229   */\n  and\n    /* \"#utility.yul\":248:266   */\n  dup1\n    /* \"#utility.yul\":238:319   */\n  tag_52\n  jumpi\n    /* \"#utility.yul\":304:308   */\n  0x7f\n    /* \"#utility.yul\":296:302   */\n  dup3\n    /* \"#utility.yul\":292:309   */\n  and\n    /* \"#utility.yul\":282:309   */\n  swap2\n  pop\n    /* \"#utility.yul\":238:319   */\ntag_52:\n    /* \"#utility.yul\":366:368   */\n  0x20\n    /* \"#utility.yul\":358:364   */\n  dup3\n    /* \"#utility.yul\":355:369   */\n  lt\n    /* \"#utility.yul\":335:353   */\n  dup2\n    /* \"#utility.yul\":332:370   */\n  eq\n    /* \"#utility.yul\":329:413   */\n  iszero\n  tag_53\n  jumpi\n    /* \"#utility.yul\":385:403   */\n  tag_54\n  tag_55\n  jump\t// in\ntag_54:\n    /* \"#utility.yul\":329:413   */\ntag_53:\n    /* \"#utility.yul\":150:419   */\n  pop\n    /* \"#utility.yul\":99:419   */\n  swap2\n  swap1\n  pop\n  jump\t// out\n    /* \"#utility.yul\":425:592   */\ntag_22:\n    /* \"#utility.yul\":462:465   */\n  0x00\n    /* \"#utility.yul\":485:507   */\n  tag_57\n    /* \"#utility.yul\":501:506   */\n  dup3\n    /* \"#utility.yul\":485:507   */\n  tag_49\n  jump\t// in\ntag_57:\n    /* \"#utility.yul\":476:507   */\n  swap2\n  pop\n    /* \"#utility.yul\":529:533   */\n  0xff\n    /* \"#utility.yul\":522:527   */\n  dup3\n    /* \"#utility.yul\":519:534   */\n  eq\n    /* \"#utility.yul\":516:557   */\n  iszero\n  tag_58\n  jumpi\n    /* \"#utility.yul\":537:555   */\n  tag_59\n  tag_60\n  jump\t// in\ntag_59:\n    /* \"#utility.yul\":516:557   */\ntag_58:\n    /* \"#utility.yul\":584:585   */\n  0x01\n    /* \"#utility.yul\":577:582   */\n  dup3\n    /* \"#utility.yul\":573:586   */\n  add\n    /* \"#utility.yul\":566:586   */\n  swap1\n  pop\n    /* \"#utility.yul\":425:592   */\n  swap2\n  swap1\n  pop\n  jump\t// out\n    /* \"#utility.yul\":598:778   */\ntag_60:\n    /* \"#utility.yul\":646:723   */\n  0x4e487b7100000000000000000000000000000000000000000000000000000000\n    /* \"#utility.yul\":643:644   */\n  0x00\n    /* \"#utility.yul\":636:724   */\n  mstore\n    /* \"#utility.yul\":743:747   */\n  0x11\n    /* \"#utility.yul\":740:741   */\n  0x04\n    /* \"#utility.yul\":733:748   */\n  mstore\n    /* \"#utility.yul\":767:771   */\n  0x24\n    /* \"#utility.yul\":764:765   */\n  0x00\n    /* \"#utility.yul\":757:772   */\n  revert\n    /* \"#utility.yul\":784:964   */\ntag_55:\n    /* \"#utility.yul\":832:909   */\n  0x4e487b7100000000000000000000000000000000000000000000000000000000\n    /* \"#utility.yul\":829:830   */\n  0x00\n    /* \"#utility.yul\":822:910   */\n  mstore\n    /* \"#utility.yul\":929:933   */\n  0x22\n    /* \"#utility.yul\":926:927   */\n  0x04\n    /* \"#utility.yul\":919:934   */\n  mstore\n    /* \"#utility.yul\":953:957   */\n  0x24\n    /* \"#utility.yul\":950:951   */\n  0x00\n    /* \"#utility.yul\":943:958   */\n  revert\n    /* \"#utility.yul\":970:1150   */\ntag_11:\n    /* \"#utility.yul\":1018:1095   */\n  0x4e487b7100000000000000000000000000000000000000000000000000000000\n    /* \"#utility.yul\":1015:1016   */\n  0x00\n    /* \"#utility.yul\":1008:1096   */\n  mstore\n    /* \"#utility.yul\":1115:1119   */\n  0x32\n    /* \"#utility.yul\":1112:1113   */\n  0x04\n    /* \"#utility.yul\":1105:1120   */\n  mstore\n    /* \"#utility.yul\":1139:1143   */\n  0x24\n    /* \"#utility.yul\":1136:1137   */\n  0x00\n    /* \"#utility.yul\":1129:1144   */\n  revert\n    /* \"Contracts/WarrantCanary.sol\":253:2955  contract WarrantCanary {\r... */\ntag_23:\n  dataSize(sub_0)\n  dup1\n  dataOffset(sub_0)\n  0x00\n  codecopy\n  0x00\n  return\nstop\n\nsub_0: assembly {\n        /* \"Contracts/WarrantCanary.sol\":253:2955  contract WarrantCanary {\r... */\n      mstore(0x40, 0x80)\n      callvalue\n      dup1\n      iszero\n      tag_1\n      jumpi\n      0x00\n      dup1\n      revert\n    tag_1:\n      pop\n      jumpi(tag_2, lt(calldatasize, 0x04))\n      shr(0xe0, calldataload(0x00))\n      dup1\n      0x20171645\n      eq\n      tag_3\n      jumpi\n      dup1\n      0x893d20e8\n      eq\n      tag_4\n      jumpi\n      dup1\n      0x89df6576\n      eq\n      tag_5\n      jumpi\n      dup1\n      0xbb5cb5f5\n      eq\n      tag_6\n      jumpi\n    tag_2:\n      0x00\n      dup1\n      revert\n        /* \"Contracts/WarrantCanary.sol\":1538:1951  function killCanary(uint8 canaryID) public {\r... */\n    tag_3:\n      tag_7\n      0x04\n      dup1\n      calldatasize\n      sub\n      dup2\n      add\n      swap1\n      tag_8\n      swap2\n      swap1\n      tag_9\n      jump\t// in\n    tag_8:\n      tag_10\n      jump\t// in\n    tag_7:\n      stop\n        /* \"Contracts/WarrantCanary.sol\":2639:2720  function getOwner() view public returns (address) {\r... */\n    tag_4:\n      tag_11\n      tag_12\n      jump\t// in\n    tag_11:\n      mload(0x40)\n      tag_13\n      swap2\n      swap1\n      tag_14\n      jump\t// in\n    tag_13:\n      mload(0x40)\n      dup1\n      swap2\n      sub\n      swap1\n      return\n        /* \"Contracts/WarrantCanary.sol\":2431:2601  function getCanaryStatus(uint8 canaryID) view public returns (bool) {\r... */\n    tag_5:\n      tag_15\n      0x04\n      dup1\n      calldatasize\n      sub\n      dup2\n      add\n      swap1\n      tag_16\n      swap2\n      swap1\n      tag_9\n      jump\t// in\n    tag_16:\n      tag_17\n      jump\t// in\n    tag_15:\n      mload(0x40)\n      tag_18\n      swap2\n      swap1\n      tag_19\n      jump\t// in\n    tag_18:\n      mload(0x40)\n      dup1\n      swap2\n      sub\n      swap1\n      return\n        /* \"Contracts/WarrantCanary.sol\":2014:2379  function reviveCanary(uint8 canaryID) public {\r... */\n    tag_6:\n      tag_20\n      0x04\n      dup1\n      calldatasize\n      sub\n      dup2\n      add\n      swap1\n      tag_21\n      swap2\n      swap1\n      tag_9\n      jump\t// in\n    tag_21:\n      tag_22\n      jump\t// in\n    tag_20:\n      stop\n        /* \"Contracts/WarrantCanary.sol\":1538:1951  function killCanary(uint8 canaryID) public {\r... */\n    tag_10:\n        /* \"Contracts/WarrantCanary.sol\":1614:1619  owner */\n      0x01\n      0x00\n      swap1\n      sload\n      swap1\n      0x0100\n      exp\n      swap1\n      div\n      0xffffffffffffffffffffffffffffffffffffffff\n      and\n        /* \"Contracts/WarrantCanary.sol\":1600:1619  msg.sender == owner */\n      0xffffffffffffffffffffffffffffffffffffffff\n      and\n        /* \"Contracts/WarrantCanary.sol\":1600:1610  msg.sender */\n      caller\n        /* \"Contracts/WarrantCanary.sol\":1600:1619  msg.sender == owner */\n      0xffffffffffffffffffffffffffffffffffffffff\n      and\n      eq\n        /* \"Contracts/WarrantCanary.sol\":1592:1673  require(msg.sender == owner, \"Only the contract deployer can call this function\") */\n      tag_24\n      jumpi\n      mload(0x40)\n      0x08c379a000000000000000000000000000000000000000000000000000000000\n      dup2\n      mstore\n      0x04\n      add\n      tag_25\n      swap1\n      tag_26\n      jump\t// in\n    tag_25:\n      mload(0x40)\n      dup1\n      swap2\n      sub\n      swap1\n      revert\n    tag_24:\n        /* \"Contracts/WarrantCanary.sol\":1703:1705  10 */\n      0x0a\n        /* \"Contracts/WarrantCanary.sol\":1692:1700  canaryID */\n      dup2\n        /* \"Contracts/WarrantCanary.sol\":1692:1705  canaryID < 10 */\n      0xff\n      and\n      lt\n        /* \"Contracts/WarrantCanary.sol\":1684:1727  require(canaryID < 10, \"Invalid canary id\") */\n      tag_27\n      jumpi\n      mload(0x40)\n      0x08c379a000000000000000000000000000000000000000000000000000000000\n      dup2\n      mstore\n      0x04\n      add\n      tag_28\n      swap1\n      tag_29\n      jump\t// in\n    tag_28:\n      mload(0x40)\n      dup1\n      swap2\n      sub\n      swap1\n      revert\n    tag_27:\n        /* \"Contracts/WarrantCanary.sol\":1746:1752  status */\n      0x02\n        /* \"Contracts/WarrantCanary.sol\":1746:1762  status[canaryID] */\n      0x00\n        /* \"Contracts/WarrantCanary.sol\":1753:1761  canaryID */\n      dup3\n        /* \"Contracts/WarrantCanary.sol\":1746:1762  status[canaryID] */\n      0xff\n      and\n      0xff\n      and\n      dup2\n      mstore\n      0x20\n      add\n      swap1\n      dup2\n      mstore\n      0x20\n      add\n      0x00\n      keccak256\n        /* \"Contracts/WarrantCanary.sol\":1746:1768  status[canaryID].alive */\n      0x01\n      add\n      0x00\n      swap1\n      sload\n      swap1\n      0x0100\n      exp\n      swap1\n      div\n      0xff\n      and\n        /* \"Contracts/WarrantCanary.sol\":1738:1795  require(status[canaryID].alive, \"Canary is already dead\") */\n      tag_30\n      jumpi\n      mload(0x40)\n      0x08c379a000000000000000000000000000000000000000000000000000000000\n      dup2\n      mstore\n      0x04\n      add\n      tag_31\n      swap1\n      tag_32\n      jump\t// in\n    tag_31:\n      mload(0x40)\n      dup1\n      swap2\n      sub\n      swap1\n      revert\n    tag_30:\n        /* \"Contracts/WarrantCanary.sol\":1831:1836  false */\n      0x00\n        /* \"Contracts/WarrantCanary.sol\":1806:1812  status */\n      0x02\n        /* \"Contracts/WarrantCanary.sol\":1806:1822  status[canaryID] */\n      0x00\n        /* \"Contracts/WarrantCanary.sol\":1813:1821  canaryID */\n      dup4\n        /* \"Contracts/WarrantCanary.sol\":1806:1822  status[canaryID] */\n      0xff\n      and\n      0xff\n      and\n      dup2\n      mstore\n      0x20\n      add\n      swap1\n      dup2\n      mstore\n      0x20\n      add\n      0x00\n      keccak256\n        /* \"Contracts/WarrantCanary.sol\":1806:1828  status[canaryID].alive */\n      0x01\n      add\n      0x00\n        /* \"Contracts/WarrantCanary.sol\":1806:1836  status[canaryID].alive = false */\n      0x0100\n      exp\n      dup2\n      sload\n      dup2\n      0xff\n      mul\n      not\n      and\n      swap1\n      dup4\n      iszero\n      iszero\n      mul\n      or\n      swap1\n      sstore\n      pop\n        /* \"Contracts/WarrantCanary.sol\":1879:1891  block.number */\n      number\n        /* \"Contracts/WarrantCanary.sol\":1847:1853  status */\n      0x02\n        /* \"Contracts/WarrantCanary.sol\":1847:1863  status[canaryID] */\n      0x00\n        /* \"Contracts/WarrantCanary.sol\":1854:1862  canaryID */\n      dup4\n        /* \"Contracts/WarrantCanary.sol\":1847:1863  status[canaryID] */\n      0xff\n      and\n      0xff\n      and\n      dup2\n      mstore\n      0x20\n      add\n      swap1\n      dup2\n      mstore\n      0x20\n      add\n      0x00\n      keccak256\n        /* \"Contracts/WarrantCanary.sol\":1847:1876  status[canaryID].blockOfDeath */\n      0x02\n      add\n        /* \"Contracts/WarrantCanary.sol\":1847:1891  status[canaryID].blockOfDeath = block.number */\n      dup2\n      swap1\n      sstore\n      pop\n        /* \"Contracts/WarrantCanary.sol\":1911:1919  canaryID */\n      dup1\n        /* \"Contracts/WarrantCanary.sol\":1907:1943  RIP(canaryID, status[canaryID].name) */\n      0xff\n      and\n      0x7e6f4cbdcbccda9a2c35b312b52a640ec0fbd3f7c205e40d369a4b1861155646\n        /* \"Contracts/WarrantCanary.sol\":1921:1927  status */\n      0x02\n        /* \"Contracts/WarrantCanary.sol\":1921:1937  status[canaryID] */\n      0x00\n        /* \"Contracts/WarrantCanary.sol\":1928:1936  canaryID */\n      dup5\n        /* \"Contracts/WarrantCanary.sol\":1921:1937  status[canaryID] */\n      0xff\n      and\n      0xff\n      and\n      dup2\n      mstore\n      0x20\n      add\n      swap1\n      dup2\n      mstore\n      0x20\n      add\n      0x00\n      keccak256\n        /* \"Contracts/WarrantCanary.sol\":1921:1942  status[canaryID].name */\n      0x00\n      add\n        /* \"Contracts/WarrantCanary.sol\":1907:1943  RIP(canaryID, status[canaryID].name) */\n      mload(0x40)\n      tag_33\n      swap2\n      swap1\n      tag_34\n      jump\t// in\n    tag_33:\n      mload(0x40)\n      dup1\n      swap2\n      sub\n      swap1\n      log2\n        /* \"Contracts/WarrantCanary.sol\":1538:1951  function killCanary(uint8 canaryID) public {\r... */\n      pop\n      jump\t// out\n        /* \"Contracts/WarrantCanary.sol\":2639:2720  function getOwner() view public returns (address) {\r... */\n    tag_12:\n        /* \"Contracts/WarrantCanary.sol\":2680:2687  address */\n      0x00\n        /* \"Contracts/WarrantCanary.sol\":2707:2712  owner */\n      0x01\n      0x00\n      swap1\n      sload\n      swap1\n      0x0100\n      exp\n      swap1\n      div\n      0xffffffffffffffffffffffffffffffffffffffff\n      and\n        /* \"Contracts/WarrantCanary.sol\":2700:2712  return owner */\n      swap1\n      pop\n        /* \"Contracts/WarrantCanary.sol\":2639:2720  function getOwner() view public returns (address) {\r... */\n      swap1\n      jump\t// out\n        /* \"Contracts/WarrantCanary.sol\":2431:2601  function getCanaryStatus(uint8 canaryID) view public returns (bool) {\r... */\n    tag_17:\n        /* \"Contracts/WarrantCanary.sol\":2493:2497  bool */\n      0x00\n        /* \"Contracts/WarrantCanary.sol\":2529:2531  10 */\n      0x0a\n        /* \"Contracts/WarrantCanary.sol\":2518:2526  canaryID */\n      dup3\n        /* \"Contracts/WarrantCanary.sol\":2518:2531  canaryID < 10 */\n      0xff\n      and\n      lt\n        /* \"Contracts/WarrantCanary.sol\":2510:2553  require(canaryID < 10, \"Invalid canary id\") */\n      tag_37\n      jumpi\n      mload(0x40)\n      0x08c379a000000000000000000000000000000000000000000000000000000000\n      dup2\n      mstore\n      0x04\n      add\n      tag_38\n      swap1\n      tag_29\n      jump\t// in\n    tag_38:\n      mload(0x40)\n      dup1\n      swap2\n      sub\n      swap1\n      revert\n    tag_37:\n        /* \"Contracts/WarrantCanary.sol\":2571:2577  status */\n      0x02\n        /* \"Contracts/WarrantCanary.sol\":2571:2587  status[canaryID] */\n      0x00\n        /* \"Contracts/WarrantCanary.sol\":2578:2586  canaryID */\n      dup4\n        /* \"Contracts/WarrantCanary.sol\":2571:2587  status[canaryID] */\n      0xff\n      and\n      0xff\n      and\n      dup2\n      mstore\n      0x20\n      add\n      swap1\n      dup2\n      mstore\n      0x20\n      add\n      0x00\n      keccak256\n        /* \"Contracts/WarrantCanary.sol\":2571:2593  status[canaryID].alive */\n      0x01\n      add\n      0x00\n      swap1\n      sload\n      swap1\n      0x0100\n      exp\n      swap1\n      div\n      0xff\n      and\n        /* \"Contracts/WarrantCanary.sol\":2564:2593  return status[canaryID].alive */\n      swap1\n      pop\n        /* \"Contracts/WarrantCanary.sol\":2431:2601  function getCanaryStatus(uint8 canaryID) view public returns (bool) {\r... */\n      swap2\n      swap1\n      pop\n      jump\t// out\n        /* \"Contracts/WarrantCanary.sol\":2014:2379  function reviveCanary(uint8 canaryID) public {\r... */\n    tag_22:\n        /* \"Contracts/WarrantCanary.sol\":2092:2097  owner */\n      0x01\n      0x00\n      swap1\n      sload\n      swap1\n      0x0100\n      exp\n      swap1\n      div\n      0xffffffffffffffffffffffffffffffffffffffff\n      and\n        /* \"Contracts/WarrantCanary.sol\":2078:2097  msg.sender == owner */\n      0xffffffffffffffffffffffffffffffffffffffff\n      and\n        /* \"Contracts/WarrantCanary.sol\":2078:2088  msg.sender */\n      caller\n        /* \"Contracts/WarrantCanary.sol\":2078:2097  msg.sender == owner */\n      0xffffffffffffffffffffffffffffffffffffffff\n      and\n      eq\n        /* \"Contracts/WarrantCanary.sol\":2070:2151  require(msg.sender == owner, \"Only the contract deployer can call this function\") */\n      tag_40\n      jumpi\n      mload(0x40)\n      0x08c379a000000000000000000000000000000000000000000000000000000000\n      dup2\n      mstore\n      0x04\n      add\n      tag_41\n      swap1\n      tag_26\n      jump\t// in\n    tag_41:\n      mload(0x40)\n      dup1\n      swap2\n      sub\n      swap1\n      revert\n    tag_40:\n        /* \"Contracts/WarrantCanary.sol\":2181:2183  10 */\n      0x0a\n        /* \"Contracts/WarrantCanary.sol\":2170:2178  canaryID */\n      dup2\n        /* \"Contracts/WarrantCanary.sol\":2170:2183  canaryID < 10 */\n      0xff\n      and\n      lt\n        /* \"Contracts/WarrantCanary.sol\":2162:2205  require(canaryID < 10, \"Invalid canary id\") */\n      tag_42\n      jumpi\n      mload(0x40)\n      0x08c379a000000000000000000000000000000000000000000000000000000000\n      dup2\n      mstore\n      0x04\n      add\n      tag_43\n      swap1\n      tag_29\n      jump\t// in\n    tag_43:\n      mload(0x40)\n      dup1\n      swap2\n      sub\n      swap1\n      revert\n    tag_42:\n        /* \"Contracts/WarrantCanary.sol\":2225:2231  status */\n      0x02\n        /* \"Contracts/WarrantCanary.sol\":2225:2241  status[canaryID] */\n      0x00\n        /* \"Contracts/WarrantCanary.sol\":2232:2240  canaryID */\n      dup3\n        /* \"Contracts/WarrantCanary.sol\":2225:2241  status[canaryID] */\n      0xff\n      and\n      0xff\n      and\n      dup2\n      mstore\n      0x20\n      add\n      swap1\n      dup2\n      mstore\n      0x20\n      add\n      0x00\n      keccak256\n        /* \"Contracts/WarrantCanary.sol\":2225:2247  status[canaryID].alive */\n      0x01\n      add\n      0x00\n      swap1\n      sload\n      swap1\n      0x0100\n      exp\n      swap1\n      div\n      0xff\n      and\n        /* \"Contracts/WarrantCanary.sol\":2224:2247  !status[canaryID].alive */\n      iszero\n        /* \"Contracts/WarrantCanary.sol\":2216:2275  require(!status[canaryID].alive, \"Canary is already alive\") */\n      tag_44\n      jumpi\n      mload(0x40)\n      0x08c379a000000000000000000000000000000000000000000000000000000000\n      dup2\n      mstore\n      0x04\n      add\n      tag_45\n      swap1\n      tag_46\n      jump\t// in\n    tag_45:\n      mload(0x40)\n      dup1\n      swap2\n      sub\n      swap1\n      revert\n    tag_44:\n        /* \"Contracts/WarrantCanary.sol\":2311:2315  true */\n      0x01\n        /* \"Contracts/WarrantCanary.sol\":2286:2292  status */\n      0x02\n        /* \"Contracts/WarrantCanary.sol\":2286:2302  status[canaryID] */\n      0x00\n        /* \"Contracts/WarrantCanary.sol\":2293:2301  canaryID */\n      dup4\n        /* \"Contracts/WarrantCanary.sol\":2286:2302  status[canaryID] */\n      0xff\n      and\n      0xff\n      and\n      dup2\n      mstore\n      0x20\n      add\n      swap1\n      dup2\n      mstore\n      0x20\n      add\n      0x00\n      keccak256\n        /* \"Contracts/WarrantCanary.sol\":2286:2308  status[canaryID].alive */\n      0x01\n      add\n      0x00\n        /* \"Contracts/WarrantCanary.sol\":2286:2315  status[canaryID].alive = true */\n      0x0100\n      exp\n      dup2\n      sload\n      dup2\n      0xff\n      mul\n      not\n      and\n      swap1\n      dup4\n      iszero\n      iszero\n      mul\n      or\n      swap1\n      sstore\n      pop\n        /* \"Contracts/WarrantCanary.sol\":2339:2347  canaryID */\n      dup1\n        /* \"Contracts/WarrantCanary.sol\":2331:2371  REVIVED(canaryID, status[canaryID].name) */\n      0xff\n      and\n      0xf51aa7c1a8a302a35b139f6ac186cfeaf3d5db207064b76ec7aacca01f29bf3c\n        /* \"Contracts/WarrantCanary.sol\":2349:2355  status */\n      0x02\n        /* \"Contracts/WarrantCanary.sol\":2349:2365  status[canaryID] */\n      0x00\n        /* \"Contracts/WarrantCanary.sol\":2356:2364  canaryID */\n      dup5\n        /* \"Contracts/WarrantCanary.sol\":2349:2365  status[canaryID] */\n      0xff\n      and\n      0xff\n      and\n      dup2\n      mstore\n      0x20\n      add\n      swap1\n      dup2\n      mstore\n      0x20\n      add\n      0x00\n      keccak256\n        /* \"Contracts/WarrantCanary.sol\":2349:2370  status[canaryID].name */\n      0x00\n      add\n        /* \"Contracts/WarrantCanary.sol\":2331:2371  REVIVED(canaryID, status[canaryID].name) */\n      mload(0x40)\n      tag_47\n      swap2\n      swap1\n      tag_34\n      jump\t// in\n    tag_47:\n      mload(0x40)\n      dup1\n      swap2\n      sub\n      swap1\n      log2\n        /* \"Contracts/WarrantCanary.sol\":2014:2379  function reviveCanary(uint8 canaryID) public {\r... */\n      pop\n      jump\t// out\n        /* \"#utility.yul\":7:142   */\n    tag_49:\n        /* \"#utility.yul\":51:56   */\n      0x00\n        /* \"#utility.yul\":89:95   */\n      dup2\n        /* \"#utility.yul\":76:96   */\n      calldataload\n        /* \"#utility.yul\":67:96   */\n      swap1\n      pop\n        /* \"#utility.yul\":105:136   */\n      tag_51\n        /* \"#utility.yul\":130:135   */\n      dup2\n        /* \"#utility.yul\":105:136   */\n      tag_52\n      jump\t// in\n    tag_51:\n        /* \"#utility.yul\":7:142   */\n      swap3\n      swap2\n      pop\n      pop\n      jump\t// out\n        /* \"#utility.yul\":148:473   */\n    tag_9:\n        /* \"#utility.yul\":205:211   */\n      0x00\n        /* \"#utility.yul\":254:256   */\n      0x20\n        /* \"#utility.yul\":242:251   */\n      dup3\n        /* \"#utility.yul\":233:240   */\n      dup5\n        /* \"#utility.yul\":229:252   */\n      sub\n        /* \"#utility.yul\":225:257   */\n      slt\n        /* \"#utility.yul\":222:341   */\n      iszero\n      tag_54\n      jumpi\n        /* \"#utility.yul\":260:339   */\n      tag_55\n      tag_56\n      jump\t// in\n    tag_55:\n        /* \"#utility.yul\":222:341   */\n    tag_54:\n        /* \"#utility.yul\":380:381   */\n      0x00\n        /* \"#utility.yul\":405:456   */\n      tag_57\n        /* \"#utility.yul\":448:455   */\n      dup5\n        /* \"#utility.yul\":439:445   */\n      dup3\n        /* \"#utility.yul\":428:437   */\n      dup6\n        /* \"#utility.yul\":424:446   */\n      add\n        /* \"#utility.yul\":405:456   */\n      tag_49\n      jump\t// in\n    tag_57:\n        /* \"#utility.yul\":395:456   */\n      swap2\n      pop\n        /* \"#utility.yul\":351:466   */\n      pop\n        /* \"#utility.yul\":148:473   */\n      swap3\n      swap2\n      pop\n      pop\n      jump\t// out\n        /* \"#utility.yul\":479:597   */\n    tag_58:\n        /* \"#utility.yul\":566:590   */\n      tag_60\n        /* \"#utility.yul\":584:589   */\n      dup2\n        /* \"#utility.yul\":566:590   */\n      tag_61\n      jump\t// in\n    tag_60:\n        /* \"#utility.yul\":561:564   */\n      dup3\n        /* \"#utility.yul\":554:591   */\n      mstore\n        /* \"#utility.yul\":479:597   */\n      pop\n      pop\n      jump\t// out\n        /* \"#utility.yul\":603:712   */\n    tag_62:\n        /* \"#utility.yul\":684:705   */\n      tag_64\n        /* \"#utility.yul\":699:704   */\n      dup2\n        /* \"#utility.yul\":684:705   */\n      tag_65\n      jump\t// in\n    tag_64:\n        /* \"#utility.yul\":679:682   */\n      dup3\n        /* \"#utility.yul\":672:706   */\n      mstore\n        /* \"#utility.yul\":603:712   */\n      pop\n      pop\n      jump\t// out\n        /* \"#utility.yul\":742:1544   */\n    tag_66:\n        /* \"#utility.yul\":827:830   */\n      0x00\n        /* \"#utility.yul\":864:869   */\n      dup2\n        /* \"#utility.yul\":858:870   */\n      sload\n        /* \"#utility.yul\":893:929   */\n      tag_68\n        /* \"#utility.yul\":919:928   */\n      dup2\n        /* \"#utility.yul\":893:929   */\n      tag_69\n      jump\t// in\n    tag_68:\n        /* \"#utility.yul\":945:1016   */\n      tag_70\n        /* \"#utility.yul\":1009:1015   */\n      dup2\n        /* \"#utility.yul\":1004:1007   */\n      dup7\n        /* \"#utility.yul\":945:1016   */\n      tag_71\n      jump\t// in\n    tag_70:\n        /* \"#utility.yul\":938:1016   */\n      swap5\n      pop\n        /* \"#utility.yul\":1047:1048   */\n      0x01\n        /* \"#utility.yul\":1036:1045   */\n      dup3\n        /* \"#utility.yul\":1032:1049   */\n      and\n        /* \"#utility.yul\":1063:1064   */\n      0x00\n        /* \"#utility.yul\":1058:1193   */\n      dup2\n      eq\n      tag_73\n      jumpi\n        /* \"#utility.yul\":1207:1208   */\n      0x01\n        /* \"#utility.yul\":1202:1538   */\n      dup2\n      eq\n      tag_74\n      jumpi\n        /* \"#utility.yul\":1025:1538   */\n      jump(tag_72)\n        /* \"#utility.yul\":1058:1193   */\n    tag_73:\n        /* \"#utility.yul\":1142:1146   */\n      0xff\n        /* \"#utility.yul\":1138:1147   */\n      not\n        /* \"#utility.yul\":1127:1136   */\n      dup4\n        /* \"#utility.yul\":1123:1148   */\n      and\n        /* \"#utility.yul\":1118:1121   */\n      dup7\n        /* \"#utility.yul\":1111:1149   */\n      mstore\n        /* \"#utility.yul\":1178:1182   */\n      0x20\n        /* \"#utility.yul\":1173:1176   */\n      dup7\n        /* \"#utility.yul\":1169:1183   */\n      add\n        /* \"#utility.yul\":1162:1183   */\n      swap4\n      pop\n        /* \"#utility.yul\":1058:1193   */\n      jump(tag_72)\n        /* \"#utility.yul\":1202:1538   */\n    tag_74:\n        /* \"#utility.yul\":1269:1307   */\n      tag_75\n        /* \"#utility.yul\":1301:1306   */\n      dup6\n        /* \"#utility.yul\":1269:1307   */\n      tag_76\n      jump\t// in\n    tag_75:\n        /* \"#utility.yul\":1329:1330   */\n      0x00\n        /* \"#utility.yul\":1343:1497   */\n    tag_77:\n        /* \"#utility.yul\":1357:1363   */\n      dup4\n        /* \"#utility.yul\":1354:1355   */\n      dup2\n        /* \"#utility.yul\":1351:1364   */\n      lt\n        /* \"#utility.yul\":1343:1497   */\n      iszero\n      tag_79\n      jumpi\n        /* \"#utility.yul\":1431:1438   */\n      dup2\n        /* \"#utility.yul\":1425:1439   */\n      sload\n        /* \"#utility.yul\":1421:1422   */\n      dup2\n        /* \"#utility.yul\":1416:1419   */\n      dup10\n        /* \"#utility.yul\":1412:1423   */\n      add\n        /* \"#utility.yul\":1405:1440   */\n      mstore\n        /* \"#utility.yul\":1481:1482   */\n      0x01\n        /* \"#utility.yul\":1472:1479   */\n      dup3\n        /* \"#utility.yul\":1468:1483   */\n      add\n        /* \"#utility.yul\":1457:1483   */\n      swap2\n      pop\n        /* \"#utility.yul\":1379:1383   */\n      0x20\n        /* \"#utility.yul\":1376:1377   */\n      dup2\n        /* \"#utility.yul\":1372:1384   */\n      add\n        /* \"#utility.yul\":1367:1384   */\n      swap1\n      pop\n        /* \"#utility.yul\":1343:1497   */\n      jump(tag_77)\n    tag_79:\n        /* \"#utility.yul\":1526:1527   */\n      dup1\n        /* \"#utility.yul\":1521:1524   */\n      dup9\n        /* \"#utility.yul\":1517:1528   */\n      add\n        /* \"#utility.yul\":1510:1528   */\n      swap6\n      pop\n        /* \"#utility.yul\":1209:1538   */\n      pop\n      pop\n        /* \"#utility.yul\":1025:1538   */\n    tag_72:\n      pop\n        /* \"#utility.yul\":831:1544   */\n      pop\n      pop\n        /* \"#utility.yul\":742:1544   */\n      swap3\n      swap2\n      pop\n      pop\n      jump\t// out\n        /* \"#utility.yul\":1550:1916   */\n    tag_80:\n        /* \"#utility.yul\":1692:1695   */\n      0x00\n        /* \"#utility.yul\":1713:1780   */\n      tag_82\n        /* \"#utility.yul\":1777:1779   */\n      0x17\n        /* \"#utility.yul\":1772:1775   */\n      dup4\n        /* \"#utility.yul\":1713:1780   */\n      tag_71\n      jump\t// in\n    tag_82:\n        /* \"#utility.yul\":1706:1780   */\n      swap2\n      pop\n        /* \"#utility.yul\":1789:1882   */\n      tag_83\n        /* \"#utility.yul\":1878:1881   */\n      dup3\n        /* \"#utility.yul\":1789:1882   */\n      tag_84\n      jump\t// in\n    tag_83:\n        /* \"#utility.yul\":1907:1909   */\n      0x20\n        /* \"#utility.yul\":1902:1905   */\n      dup3\n        /* \"#utility.yul\":1898:1910   */\n      add\n        /* \"#utility.yul\":1891:1910   */\n      swap1\n      pop\n        /* \"#utility.yul\":1550:1916   */\n      swap2\n      swap1\n      pop\n      jump\t// out\n        /* \"#utility.yul\":1922:2288   */\n    tag_85:\n        /* \"#utility.yul\":2064:2067   */\n      0x00\n        /* \"#utility.yul\":2085:2152   */\n      tag_87\n        /* \"#utility.yul\":2149:2151   */\n      0x31\n        /* \"#utility.yul\":2144:2147   */\n      dup4\n        /* \"#utility.yul\":2085:2152   */\n      tag_71\n      jump\t// in\n    tag_87:\n        /* \"#utility.yul\":2078:2152   */\n      swap2\n      pop\n        /* \"#utility.yul\":2161:2254   */\n      tag_88\n        /* \"#utility.yul\":2250:2253   */\n      dup3\n        /* \"#utility.yul\":2161:2254   */\n      tag_89\n      jump\t// in\n    tag_88:\n        /* \"#utility.yul\":2279:2281   */\n      0x40\n        /* \"#utility.yul\":2274:2277   */\n      dup3\n        /* \"#utility.yul\":2270:2282   */\n      add\n        /* \"#utility.yul\":2263:2282   */\n      swap1\n      pop\n        /* \"#utility.yul\":1922:2288   */\n      swap2\n      swap1\n      pop\n      jump\t// out\n        /* \"#utility.yul\":2294:2660   */\n    tag_90:\n        /* \"#utility.yul\":2436:2439   */\n      0x00\n        /* \"#utility.yul\":2457:2524   */\n      tag_92\n        /* \"#utility.yul\":2521:2523   */\n      0x11\n        /* \"#utility.yul\":2516:2519   */\n      dup4\n        /* \"#utility.yul\":2457:2524   */\n      tag_71\n      jump\t// in\n    tag_92:\n        /* \"#utility.yul\":2450:2524   */\n      swap2\n      pop\n        /* \"#utility.yul\":2533:2626   */\n      tag_93\n        /* \"#utility.yul\":2622:2625   */\n      dup3\n        /* \"#utility.yul\":2533:2626   */\n      tag_94\n      jump\t// in\n    tag_93:\n        /* \"#utility.yul\":2651:2653   */\n      0x20\n        /* \"#utility.yul\":2646:2649   */\n      dup3\n        /* \"#utility.yul\":2642:2654   */\n      add\n        /* \"#utility.yul\":2635:2654   */\n      swap1\n      pop\n        /* \"#utility.yul\":2294:2660   */\n      swap2\n      swap1\n      pop\n      jump\t// out\n        /* \"#utility.yul\":2666:3032   */\n    tag_95:\n        /* \"#utility.yul\":2808:2811   */\n      0x00\n        /* \"#utility.yul\":2829:2896   */\n      tag_97\n        /* \"#utility.yul\":2893:2895   */\n      0x16\n        /* \"#utility.yul\":2888:2891   */\n      dup4\n        /* \"#utility.yul\":2829:2896   */\n      tag_71\n      jump\t// in\n    tag_97:\n        /* \"#utility.yul\":2822:2896   */\n      swap2\n      pop\n        /* \"#utility.yul\":2905:2998   */\n      tag_98\n        /* \"#utility.yul\":2994:2997   */\n      dup3\n        /* \"#utility.yul\":2905:2998   */\n      tag_99\n      jump\t// in\n    tag_98:\n        /* \"#utility.yul\":3023:3025   */\n      0x20\n        /* \"#utility.yul\":3018:3021   */\n      dup3\n        /* \"#utility.yul\":3014:3026   */\n      add\n        /* \"#utility.yul\":3007:3026   */\n      swap1\n      pop\n        /* \"#utility.yul\":2666:3032   */\n      swap2\n      swap1\n      pop\n      jump\t// out\n        /* \"#utility.yul\":3038:3260   */\n    tag_14:\n        /* \"#utility.yul\":3131:3135   */\n      0x00\n        /* \"#utility.yul\":3169:3171   */\n      0x20\n        /* \"#utility.yul\":3158:3167   */\n      dup3\n        /* \"#utility.yul\":3154:3172   */\n      add\n        /* \"#utility.yul\":3146:3172   */\n      swap1\n      pop\n        /* \"#utility.yul\":3182:3253   */\n      tag_101\n        /* \"#utility.yul\":3250:3251   */\n      0x00\n        /* \"#utility.yul\":3239:3248   */\n      dup4\n        /* \"#utility.yul\":3235:3252   */\n      add\n        /* \"#utility.yul\":3226:3232   */\n      dup5\n        /* \"#utility.yul\":3182:3253   */\n      tag_58\n      jump\t// in\n    tag_101:\n        /* \"#utility.yul\":3038:3260   */\n      swap3\n      swap2\n      pop\n      pop\n      jump\t// out\n        /* \"#utility.yul\":3266:3476   */\n    tag_19:\n        /* \"#utility.yul\":3353:3357   */\n      0x00\n        /* \"#utility.yul\":3391:3393   */\n      0x20\n        /* \"#utility.yul\":3380:3389   */\n      dup3\n        /* \"#utility.yul\":3376:3394   */\n      add\n        /* \"#utility.yul\":3368:3394   */\n      swap1\n      pop\n        /* \"#utility.yul\":3404:3469   */\n      tag_103\n        /* \"#utility.yul\":3466:3467   */\n      0x00\n        /* \"#utility.yul\":3455:3464   */\n      dup4\n        /* \"#utility.yul\":3451:3468   */\n      add\n        /* \"#utility.yul\":3442:3448   */\n      dup5\n        /* \"#utility.yul\":3404:3469   */\n      tag_62\n      jump\t// in\n    tag_103:\n        /* \"#utility.yul\":3266:3476   */\n      swap3\n      swap2\n      pop\n      pop\n      jump\t// out\n        /* \"#utility.yul\":3482:3789   */\n    tag_34:\n        /* \"#utility.yul\":3592:3596   */\n      0x00\n        /* \"#utility.yul\":3630:3632   */\n      0x20\n        /* \"#utility.yul\":3619:3628   */\n      dup3\n        /* \"#utility.yul\":3615:3633   */\n      add\n        /* \"#utility.yul\":3607:3633   */\n      swap1\n      pop\n        /* \"#utility.yul\":3679:3688   */\n      dup2\n        /* \"#utility.yul\":3673:3677   */\n      dup2\n        /* \"#utility.yul\":3669:3689   */\n      sub\n        /* \"#utility.yul\":3665:3666   */\n      0x00\n        /* \"#utility.yul\":3654:3663   */\n      dup4\n        /* \"#utility.yul\":3650:3667   */\n      add\n        /* \"#utility.yul\":3643:3690   */\n      mstore\n        /* \"#utility.yul\":3707:3782   */\n      tag_105\n        /* \"#utility.yul\":3777:3781   */\n      dup2\n        /* \"#utility.yul\":3768:3774   */\n      dup5\n        /* \"#utility.yul\":3707:3782   */\n      tag_66\n      jump\t// in\n    tag_105:\n        /* \"#utility.yul\":3699:3782   */\n      swap1\n      pop\n        /* \"#utility.yul\":3482:3789   */\n      swap3\n      swap2\n      pop\n      pop\n      jump\t// out\n        /* \"#utility.yul\":3795:4214   */\n    tag_46:\n        /* \"#utility.yul\":3961:3965   */\n      0x00\n        /* \"#utility.yul\":3999:4001   */\n      0x20\n        /* \"#utility.yul\":3988:3997   */\n      dup3\n        /* \"#utility.yul\":3984:4002   */\n      add\n        /* \"#utility.yul\":3976:4002   */\n      swap1\n      pop\n        /* \"#utility.yul\":4048:4057   */\n      dup2\n        /* \"#utility.yul\":4042:4046   */\n      dup2\n        /* \"#utility.yul\":4038:4058   */\n      sub\n        /* \"#utility.yul\":4034:4035   */\n      0x00\n        /* \"#utility.yul\":4023:4032   */\n      dup4\n        /* \"#utility.yul\":4019:4036   */\n      add\n        /* \"#utility.yul\":4012:4059   */\n      mstore\n        /* \"#utility.yul\":4076:4207   */\n      tag_107\n        /* \"#utility.yul\":4202:4206   */\n      dup2\n        /* \"#utility.yul\":4076:4207   */\n      tag_80\n      jump\t// in\n    tag_107:\n        /* \"#utility.yul\":4068:4207   */\n      swap1\n      pop\n        /* \"#utility.yul\":3795:4214   */\n      swap2\n      swap1\n      pop\n      jump\t// out\n        /* \"#utility.yul\":4220:4639   */\n    tag_26:\n        /* \"#utility.yul\":4386:4390   */\n      0x00\n        /* \"#utility.yul\":4424:4426   */\n      0x20\n        /* \"#utility.yul\":4413:4422   */\n      dup3\n        /* \"#utility.yul\":4409:4427   */\n      add\n        /* \"#utility.yul\":4401:4427   */\n      swap1\n      pop\n        /* \"#utility.yul\":4473:4482   */\n      dup2\n        /* \"#utility.yul\":4467:4471   */\n      dup2\n        /* \"#utility.yul\":4463:4483   */\n      sub\n        /* \"#utility.yul\":4459:4460   */\n      0x00\n        /* \"#utility.yul\":4448:4457   */\n      dup4\n        /* \"#utility.yul\":4444:4461   */\n      add\n        /* \"#utility.yul\":4437:4484   */\n      mstore\n        /* \"#utility.yul\":4501:4632   */\n      tag_109\n        /* \"#utility.yul\":4627:4631   */\n      dup2\n        /* \"#utility.yul\":4501:4632   */\n      tag_85\n      jump\t// in\n    tag_109:\n        /* \"#utility.yul\":4493:4632   */\n      swap1\n      pop\n        /* \"#utility.yul\":4220:4639   */\n      swap2\n      swap1\n      pop\n      jump\t// out\n        /* \"#utility.yul\":4645:5064   */\n    tag_29:\n        /* \"#utility.yul\":4811:4815   */\n      0x00\n        /* \"#utility.yul\":4849:4851   */\n      0x20\n        /* \"#utility.yul\":4838:4847   */\n      dup3\n        /* \"#utility.yul\":4834:4852   */\n      add\n        /* \"#utility.yul\":4826:4852   */\n      swap1\n      pop\n        /* \"#utility.yul\":4898:4907   */\n      dup2\n        /* \"#utility.yul\":4892:4896   */\n      dup2\n        /* \"#utility.yul\":4888:4908   */\n      sub\n        /* \"#utility.yul\":4884:4885   */\n      0x00\n        /* \"#utility.yul\":4873:4882   */\n      dup4\n        /* \"#utility.yul\":4869:4886   */\n      add\n        /* \"#utility.yul\":4862:4909   */\n      mstore\n        /* \"#utility.yul\":4926:5057   */\n      tag_111\n        /* \"#utility.yul\":5052:5056   */\n      dup2\n        /* \"#utility.yul\":4926:5057   */\n      tag_90\n      jump\t// in\n    tag_111:\n        /* \"#utility.yul\":4918:5057   */\n      swap1\n      pop\n        /* \"#utility.yul\":4645:5064   */\n      swap2\n      swap1\n      pop\n      jump\t// out\n        /* \"#utility.yul\":5070:5489   */\n    tag_32:\n        /* \"#utility.yul\":5236:5240   */\n      0x00\n        /* \"#utility.yul\":5274:5276   */\n      0x20\n        /* \"#utility.yul\":5263:5272   */\n      dup3\n        /* \"#utility.yul\":5259:5277   */\n      add\n        /* \"#utility.yul\":5251:5277   */\n      swap1\n      pop\n        /* \"#utility.yul\":5323:5332   */\n      dup2\n        /* \"#utility.yul\":5317:5321   */\n      dup2\n        /* \"#utility.yul\":5313:5333   */\n      sub\n        /* \"#utility.yul\":5309:5310   */\n      0x00\n        /* \"#utility.yul\":5298:5307   */\n      dup4\n        /* \"#utility.yul\":5294:5311   */\n      add\n        /* \"#utility.yul\":5287:5334   */\n      mstore\n        /* \"#utility.yul\":5351:5482   */\n      tag_113\n        /* \"#utility.yul\":5477:5481   */\n      dup2\n        /* \"#utility.yul\":5351:5482   */\n      tag_95\n      jump\t// in\n    tag_113:\n        /* \"#utility.yul\":5343:5482   */\n      swap1\n      pop\n        /* \"#utility.yul\":5070:5489   */\n      swap2\n      swap1\n      pop\n      jump\t// out\n        /* \"#utility.yul\":5576:5717   */\n    tag_76:\n        /* \"#utility.yul\":5625:5629   */\n      0x00\n        /* \"#utility.yul\":5648:5651   */\n      dup2\n        /* \"#utility.yul\":5640:5651   */\n      swap1\n      pop\n        /* \"#utility.yul\":5671:5674   */\n      dup2\n        /* \"#utility.yul\":5668:5669   */\n      0x00\n        /* \"#utility.yul\":5661:5675   */\n      mstore\n        /* \"#utility.yul\":5705:5709   */\n      0x20\n        /* \"#utility.yul\":5702:5703   */\n      0x00\n        /* \"#utility.yul\":5692:5710   */\n      keccak256\n        /* \"#utility.yul\":5684:5710   */\n      swap1\n      pop\n        /* \"#utility.yul\":5576:5717   */\n      swap2\n      swap1\n      pop\n      jump\t// out\n        /* \"#utility.yul\":5723:5892   */\n    tag_71:\n        /* \"#utility.yul\":5807:5818   */\n      0x00\n        /* \"#utility.yul\":5841:5847   */\n      dup3\n        /* \"#utility.yul\":5836:5839   */\n      dup3\n        /* \"#utility.yul\":5829:5848   */\n      mstore\n        /* \"#utility.yul\":5881:5885   */\n      0x20\n        /* \"#utility.yul\":5876:5879   */\n      dup3\n        /* \"#utility.yul\":5872:5886   */\n      add\n        /* \"#utility.yul\":5857:5886   */\n      swap1\n      pop\n        /* \"#utility.yul\":5723:5892   */\n      swap3\n      swap2\n      pop\n      pop\n      jump\t// out\n        /* \"#utility.yul\":5898:5994   */\n    tag_61:\n        /* \"#utility.yul\":5935:5942   */\n      0x00\n        /* \"#utility.yul\":5964:5988   */\n      tag_119\n        /* \"#utility.yul\":5982:5987   */\n      dup3\n        /* \"#utility.yul\":5964:5988   */\n      tag_120\n      jump\t// in\n    tag_119:\n        /* \"#utility.yul\":5953:5988   */\n      swap1\n      pop\n        /* \"#utility.yul\":5898:5994   */\n      swap2\n      swap1\n      pop\n      jump\t// out\n        /* \"#utility.yul\":6000:6090   */\n    tag_65:\n        /* \"#utility.yul\":6034:6041   */\n      0x00\n        /* \"#utility.yul\":6077:6082   */\n      dup2\n        /* \"#utility.yul\":6070:6083   */\n      iszero\n        /* \"#utility.yul\":6063:6084   */\n      iszero\n        /* \"#utility.yul\":6052:6084   */\n      swap1\n      pop\n        /* \"#utility.yul\":6000:6090   */\n      swap2\n      swap1\n      pop\n      jump\t// out\n        /* \"#utility.yul\":6096:6222   */\n    tag_120:\n        /* \"#utility.yul\":6133:6140   */\n      0x00\n        /* \"#utility.yul\":6173:6215   */\n      0xffffffffffffffffffffffffffffffffffffffff\n        /* \"#utility.yul\":6166:6171   */\n      dup3\n        /* \"#utility.yul\":6162:6216   */\n      and\n        /* \"#utility.yul\":6151:6216   */\n      swap1\n      pop\n        /* \"#utility.yul\":6096:6222   */\n      swap2\n      swap1\n      pop\n      jump\t// out\n        /* \"#utility.yul\":6228:6314   */\n    tag_123:\n        /* \"#utility.yul\":6263:6270   */\n      0x00\n        /* \"#utility.yul\":6303:6307   */\n      0xff\n        /* \"#utility.yul\":6296:6301   */\n      dup3\n        /* \"#utility.yul\":6292:6308   */\n      and\n        /* \"#utility.yul\":6281:6308   */\n      swap1\n      pop\n        /* \"#utility.yul\":6228:6314   */\n      swap2\n      swap1\n      pop\n      jump\t// out\n        /* \"#utility.yul\":6320:6640   */\n    tag_69:\n        /* \"#utility.yul\":6364:6370   */\n      0x00\n        /* \"#utility.yul\":6401:6402   */\n      0x02\n        /* \"#utility.yul\":6395:6399   */\n      dup3\n        /* \"#utility.yul\":6391:6403   */\n      div\n        /* \"#utility.yul\":6381:6403   */\n      swap1\n      pop\n        /* \"#utility.yul\":6448:6449   */\n      0x01\n        /* \"#utility.yul\":6442:6446   */\n      dup3\n        /* \"#utility.yul\":6438:6450   */\n      and\n        /* \"#utility.yul\":6469:6487   */\n      dup1\n        /* \"#utility.yul\":6459:6540   */\n      tag_126\n      jumpi\n        /* \"#utility.yul\":6525:6529   */\n      0x7f\n        /* \"#utility.yul\":6517:6523   */\n      dup3\n        /* \"#utility.yul\":6513:6530   */\n      and\n        /* \"#utility.yul\":6503:6530   */\n      swap2\n      pop\n        /* \"#utility.yul\":6459:6540   */\n    tag_126:\n        /* \"#utility.yul\":6587:6589   */\n      0x20\n        /* \"#utility.yul\":6579:6585   */\n      dup3\n        /* \"#utility.yul\":6576:6590   */\n      lt\n        /* \"#utility.yul\":6556:6574   */\n      dup2\n        /* \"#utility.yul\":6553:6591   */\n      eq\n        /* \"#utility.yul\":6550:6634   */\n      iszero\n      tag_127\n      jumpi\n        /* \"#utility.yul\":6606:6624   */\n      tag_128\n      tag_129\n      jump\t// in\n    tag_128:\n        /* \"#utility.yul\":6550:6634   */\n    tag_127:\n        /* \"#utility.yul\":6371:6640   */\n      pop\n        /* \"#utility.yul\":6320:6640   */\n      swap2\n      swap1\n      pop\n      jump\t// out\n        /* \"#utility.yul\":6646:6826   */\n    tag_129:\n        /* \"#utility.yul\":6694:6771   */\n      0x4e487b7100000000000000000000000000000000000000000000000000000000\n        /* \"#utility.yul\":6691:6692   */\n      0x00\n        /* \"#utility.yul\":6684:6772   */\n      mstore\n        /* \"#utility.yul\":6791:6795   */\n      0x22\n        /* \"#utility.yul\":6788:6789   */\n      0x04\n        /* \"#utility.yul\":6781:6796   */\n      mstore\n        /* \"#utility.yul\":6815:6819   */\n      0x24\n        /* \"#utility.yul\":6812:6813   */\n      0x00\n        /* \"#utility.yul\":6805:6820   */\n      revert\n        /* \"#utility.yul\":6955:7072   */\n    tag_56:\n        /* \"#utility.yul\":7064:7065   */\n      0x00\n        /* \"#utility.yul\":7061:7062   */\n      dup1\n        /* \"#utility.yul\":7054:7066   */\n      revert\n        /* \"#utility.yul\":7078:7251   */\n    tag_84:\n        /* \"#utility.yul\":7218:7243   */\n      0x43616e61727920697320616c726561647920616c697665000000000000000000\n        /* \"#utility.yul\":7214:7215   */\n      0x00\n        /* \"#utility.yul\":7206:7212   */\n      dup3\n        /* \"#utility.yul\":7202:7216   */\n      add\n        /* \"#utility.yul\":7195:7244   */\n      mstore\n        /* \"#utility.yul\":7078:7251   */\n      pop\n      jump\t// out\n        /* \"#utility.yul\":7257:7493   */\n    tag_89:\n        /* \"#utility.yul\":7397:7431   */\n      0x4f6e6c792074686520636f6e7472616374206465706c6f7965722063616e2063\n        /* \"#utility.yul\":7393:7394   */\n      0x00\n        /* \"#utility.yul\":7385:7391   */\n      dup3\n        /* \"#utility.yul\":7381:7395   */\n      add\n        /* \"#utility.yul\":7374:7432   */\n      mstore\n        /* \"#utility.yul\":7466:7485   */\n      0x616c6c20746869732066756e6374696f6e000000000000000000000000000000\n        /* \"#utility.yul\":7461:7463   */\n      0x20\n        /* \"#utility.yul\":7453:7459   */\n      dup3\n        /* \"#utility.yul\":7449:7464   */\n      add\n        /* \"#utility.yul\":7442:7486   */\n      mstore\n        /* \"#utility.yul\":7257:7493   */\n      pop\n      jump\t// out\n        /* \"#utility.yul\":7499:7666   */\n    tag_94:\n        /* \"#utility.yul\":7639:7658   */\n      0x496e76616c69642063616e617279206964000000000000000000000000000000\n        /* \"#utility.yul\":7635:7636   */\n      0x00\n        /* \"#utility.yul\":7627:7633   */\n      dup3\n        /* \"#utility.yul\":7623:7637   */\n      add\n        /* \"#utility.yul\":7616:7659   */\n      mstore\n        /* \"#utility.yul\":7499:7666   */\n      pop\n      jump\t// out\n        /* \"#utility.yul\":7672:7844   */\n    tag_99:\n        /* \"#utility.yul\":7812:7836   */\n      0x43616e61727920697320616c7265616479206465616400000000000000000000\n        /* \"#utility.yul\":7808:7809   */\n      0x00\n        /* \"#utility.yul\":7800:7806   */\n      dup3\n        /* \"#utility.yul\":7796:7810   */\n      add\n        /* \"#utility.yul\":7789:7837   */\n      mstore\n        /* \"#utility.yul\":7672:7844   */\n      pop\n      jump\t// out\n        /* \"#utility.yul\":7850:7968   */\n    tag_52:\n        /* \"#utility.yul\":7921:7943   */\n      tag_139\n        /* \"#utility.yul\":7937:7942   */\n      dup2\n        /* \"#utility.yul\":7921:7943   */\n      tag_123\n      jump\t// in\n    tag_139:\n        /* \"#utility.yul\":7914:7919   */\n      dup2\n        /* \"#utility.yul\":7911:7944   */\n      eq\n        /* \"#utility.yul\":7901:7962   */\n      tag_140\n      jumpi\n        /* \"#utility.yul\":7958:7959   */\n      0x00\n        /* \"#utility.yul\":7955:7956   */\n      dup1\n        /* \"#utility.yul\":7948:7960   */\n      revert\n        /* \"#utility.yul\":7901:7962   */\n    tag_140:\n        /* \"#utility.yul\":7850:7968   */\n      pop\n      jump\t// out\n\n    auxdata: 0xa2646970667358221220296cfcf954d25c3a5990971d564f15866c2a92a66f9f6cacb4ccdf05971edd1164736f6c63430008070033\n}\n",
				"bytecode": {
					"linkReferences": {},
					"object": "60806040526040518061014001604052806040518060400160405280600381526020017f574152000000000000000000000000000000000000000000000000000000000081525081526020016040518060400160405280600381526020017f474147000000000000000000000000000000000000000000000000000000000081525081526020016040518060400160405280600481526020017f535542500000000000000000000000000000000000000000000000000000000081525081526020016040518060400160405280600481526020017f545241500000000000000000000000000000000000000000000000000000000081525081526020016040518060400160405280600581526020017f434541534500000000000000000000000000000000000000000000000000000081525081526020016040518060400160405280600681526020017f445552455353000000000000000000000000000000000000000000000000000081525081526020016040518060400160405280600481526020017f524149440000000000000000000000000000000000000000000000000000000081525081526020016040518060400160405280600581526020017f5345495a4500000000000000000000000000000000000000000000000000000081525081526020016040518060400160405280600581526020017f584352454400000000000000000000000000000000000000000000000000000081525081526020016040518060400160405280600681526020017f584f504552530000000000000000000000000000000000000000000000000000815250815250600090600a6200026e92919062000427565b503480156200027c57600080fd5b5033600160006101000a81548173ffffffffffffffffffffffffffffffffffffffff021916908373ffffffffffffffffffffffffffffffffffffffff16021790555060005b600a8160ff16101562000420576000604051806060016040528060008460ff1681548110620002f557620002f46200067c565b5b9060005260206000200180546200030c90620005b9565b80601f01602080910402602001604051908101604052809291908181526020018280546200033a90620005b9565b80156200038b5780601f106200035f576101008083540402835291602001916200038b565b820191906000526020600020905b8154815290600101906020018083116200036d57829003601f168201915b505050505081526020016001151581526020016000815250905080600260008460ff1660ff1681526020019081526020016000206000820151816000019080519060200190620003dd9291906200048e565b5060208201518160010160006101000a81548160ff0219169083151502179055506040820151816002015590505050806200041890620005ef565b9050620002c1565b50620006ab565b8280548282559060005260206000209081019282156200047b579160200282015b828111156200047a578251829080519060200190620004699291906200048e565b509160200191906001019062000448565b5b5090506200048a91906200051f565b5090565b8280546200049c90620005b9565b90600052602060002090601f016020900481019282620004c057600085556200050c565b82601f10620004db57805160ff19168380011785556200050c565b828001600101855582156200050c579182015b828111156200050b578251825591602001919060010190620004ee565b5b5090506200051b919062000547565b5090565b5b8082111562000543576000818162000539919062000566565b5060010162000520565b5090565b5b808211156200056257600081600090555060010162000548565b5090565b5080546200057490620005b9565b6000825580601f10620005885750620005a9565b601f016020900490600052602060002090810190620005a8919062000547565b5b50565b600060ff82169050919050565b60006002820490506001821680620005d257607f821691505b60208210811415620005e957620005e86200064d565b5b50919050565b6000620005fc82620005ac565b915060ff8214156200061357620006126200061e565b5b600182019050919050565b7f4e487b7100000000000000000000000000000000000000000000000000000000600052601160045260246000fd5b7f4e487b7100000000000000000000000000000000000000000000000000000000600052602260045260246000fd5b7f4e487b7100000000000000000000000000000000000000000000000000000000600052603260045260246000fd5b61096880620006bb6000396000f3fe608060405234801561001057600080fd5b506004361061004c5760003560e01c80632017164514610051578063893d20e81461006d57806389df65761461008b578063bb5cb5f5146100bb575b600080fd5b61006b6004803603810190610066919061054b565b6100d7565b005b6100756102c5565b60405161008291906106a2565b60405180910390f35b6100a560048036038101906100a0919061054b565b6102ef565b6040516100b291906106bd565b60405180910390f35b6100d560048036038101906100d0919061054b565b610368565b005b600160009054906101000a900473ffffffffffffffffffffffffffffffffffffffff1673ffffffffffffffffffffffffffffffffffffffff163373ffffffffffffffffffffffffffffffffffffffff1614610167576040517f08c379a000000000000000000000000000000000000000000000000000000000815260040161015e9061071a565b60405180910390fd5b600a8160ff16106101ad576040517f08c379a00000000000000000000000000000000000000000000000000000000081526004016101a49061073a565b60405180910390fd5b600260008260ff1660ff16815260200190815260200160002060010160009054906101000a900460ff16610216576040517f08c379a000000000000000000000000000000000000000000000000000000000815260040161020d9061075a565b60405180910390fd5b6000600260008360ff1660ff16815260200190815260200160002060010160006101000a81548160ff02191690831515021790555043600260008360ff1660ff168152602001908152602001600020600201819055508060ff167f7e6f4cbdcbccda9a2c35b312b52a640ec0fbd3f7c205e40d369a4b1861155646600260008460ff1660ff1681526020019081526020016000206000016040516102ba91906106d8565b60405180910390a250565b6000600160009054906101000a900473ffffffffffffffffffffffffffffffffffffffff16905090565b6000600a8260ff1610610337576040517f08c379a000000000000000000000000000000000000000000000000000000000815260040161032e9061073a565b60405180910390fd5b600260008360ff1660ff16815260200190815260200160002060010160009054906101000a900460ff169050919050565b600160009054906101000a900473ffffffffffffffffffffffffffffffffffffffff1673ffffffffffffffffffffffffffffffffffffffff163373ffffffffffffffffffffffffffffffffffffffff16146103f8576040517f08c379a00000000000000000000000000000000000000000000000000000000081526004016103ef9061071a565b60405180910390fd5b600a8160ff161061043e576040517f08c379a00000000000000000000000000000000000000000000000000000000081526004016104359061073a565b60405180910390fd5b600260008260ff1660ff16815260200190815260200160002060010160009054906101000a900460ff16156104a8576040517f08c379a000000000000000000000000000000000000000000000000000000000815260040161049f906106fa565b60405180910390fd5b6001600260008360ff1660ff16815260200190815260200160002060010160006101000a81548160ff0219169083151502179055508060ff167ff51aa7c1a8a302a35b139f6ac186cfeaf3d5db207064b76ec7aacca01f29bf3c600260008460ff1660ff16815260200190815260200160002060000160405161052b91906106d8565b60405180910390a250565b6000813590506105458161091b565b92915050565b6000602082840312156105615761056061084c565b5b600061056f84828501610536565b91505092915050565b610581816107a0565b82525050565b610590816107b2565b82525050565b600081546105a3816107eb565b6105ad818661078f565b945060018216600081146105c857600181146105da5761060d565b60ff198316865260208601935061060d565b6105e38561077a565b60005b83811015610605578154818901526001820191506020810190506105e6565b808801955050505b50505092915050565b600061062360178361078f565b915061062e82610851565b602082019050919050565b600061064660318361078f565b91506106518261087a565b604082019050919050565b600061066960118361078f565b9150610674826108c9565b602082019050919050565b600061068c60168361078f565b9150610697826108f2565b602082019050919050565b60006020820190506106b76000830184610578565b92915050565b60006020820190506106d26000830184610587565b92915050565b600060208201905081810360008301526106f28184610596565b905092915050565b6000602082019050818103600083015261071381610616565b9050919050565b6000602082019050818103600083015261073381610639565b9050919050565b600060208201905081810360008301526107538161065c565b9050919050565b600060208201905081810360008301526107738161067f565b9050919050565b60008190508160005260206000209050919050565b600082825260208201905092915050565b60006107ab826107be565b9050919050565b60008115159050919050565b600073ffffffffffffffffffffffffffffffffffffffff82169050919050565b600060ff82169050919050565b6000600282049050600182168061080357607f821691505b602082108114156108175761081661081d565b5b50919050565b7f4e487b7100000000000000000000000000000000000000000000000000000000600052602260045260246000fd5b600080fd5b7f43616e61727920697320616c726561647920616c697665000000000000000000600082015250565b7f4f6e6c792074686520636f6e7472616374206465706c6f7965722063616e206360008201527f616c6c20746869732066756e6374696f6e000000000000000000000000000000602082015250565b7f496e76616c69642063616e617279206964000000000000000000000000000000600082015250565b7f43616e61727920697320616c7265616479206465616400000000000000000000600082015250565b610924816107de565b811461092f57600080fd5b5056fea2646970667358221220296cfcf954d25c3a5990971d564f15866c2a92a66f9f6cacb4ccdf05971edd1164736f6c63430008070033",
					"opcodes": "PUSH1 0x80 PUSH1 0x40 MSTORE PUSH1 0x40 MLOAD DUP1 PUSH2 0x140 ADD PUSH1 0x40 MSTORE DUP1 PUSH1 0x40 MLOAD DUP1 PUSH1 0x40 ADD PUSH1 0x40 MSTORE DUP1 PUSH1 0x3 DUP2 MSTORE PUSH1 0x20 ADD PUSH32 0x5741520000000000000000000000000000000000000000000000000000000000 DUP2 MSTORE POP DUP2 MSTORE PUSH1 0x20 ADD PUSH1 0x40 MLOAD DUP1 PUSH1 0x40 ADD PUSH1 0x40 MSTORE DUP1 PUSH1 0x3 DUP2 MSTORE PUSH1 0x20 ADD PUSH32 0x4741470000000000000000000000000000000000000000000000000000000000 DUP2 MSTORE POP DUP2 MSTORE PUSH1 0x20 ADD PUSH1 0x40 MLOAD DUP1 PUSH1 0x40 ADD PUSH1 0x40 MSTORE DUP1 PUSH1 0x4 DUP2 MSTORE PUSH1 0x20 ADD PUSH32 0x5355425000000000000000000000000000000000000000000000000000000000 DUP2 MSTORE POP DUP2 MSTORE PUSH1 0x20 ADD PUSH1 0x40 MLOAD DUP1 PUSH1 0x40 ADD PUSH1 0x40 MSTORE DUP1 PUSH1 0x4 DUP2 MSTORE PUSH1 0x20 ADD PUSH32 0x5452415000000000000000000000000000000000000000000000000000000000 DUP2 MSTORE POP DUP2 MSTORE PUSH1 0x20 ADD PUSH1 0x40 MLOAD DUP1 PUSH1 0x40 ADD PUSH1 0x40 MSTORE DUP1 PUSH1 0x5 DUP2 MSTORE PUSH1 0x20 ADD PUSH32 0x4345415345000000000000000000000000000000000000000000000000000000 DUP2 MSTORE POP DUP2 MSTORE PUSH1 0x20 ADD PUSH1 0x40 MLOAD DUP1 PUSH1 0x40 ADD PUSH1 0x40 MSTORE DUP1 PUSH1 0x6 DUP2 MSTORE PUSH1 0x20 ADD PUSH32 0x4455524553530000000000000000000000000000000000000000000000000000 DUP2 MSTORE POP DUP2 MSTORE PUSH1 0x20 ADD PUSH1 0x40 MLOAD DUP1 PUSH1 0x40 ADD PUSH1 0x40 MSTORE DUP1 PUSH1 0x4 DUP2 MSTORE PUSH1 0x20 ADD PUSH32 0x5241494400000000000000000000000000000000000000000000000000000000 DUP2 MSTORE POP DUP2 MSTORE PUSH1 0x20 ADD PUSH1 0x40 MLOAD DUP1 PUSH1 0x40 ADD PUSH1 0x40 MSTORE DUP1 PUSH1 0x5 DUP2 MSTORE PUSH1 0x20 ADD PUSH32 0x5345495A45000000000000000000000000000000000000000000000000000000 DUP2 MSTORE POP DUP2 MSTORE PUSH1 0x20 ADD PUSH1 0x40 MLOAD DUP1 PUSH1 0x40 ADD PUSH1 0x40 MSTORE DUP1 PUSH1 0x5 DUP2 MSTORE PUSH1 0x20 ADD PUSH32 0x5843524544000000000000000000000000000000000000000000000000000000 DUP2 MSTORE POP DUP2 MSTORE PUSH1 0x20 ADD PUSH1 0x40 MLOAD DUP1 PUSH1 0x40 ADD PUSH1 0x40 MSTORE DUP1 PUSH1 0x6 DUP2 MSTORE PUSH1 0x20 ADD PUSH32 0x584F504552530000000000000000000000000000000000000000000000000000 DUP2 MSTORE POP DUP2 MSTORE POP PUSH1 0x0 SWAP1 PUSH1 0xA PUSH3 0x26E SWAP3 SWAP2 SWAP1 PUSH3 0x427 JUMP JUMPDEST POP CALLVALUE DUP1 ISZERO PUSH3 0x27C JUMPI PUSH1 0x0 DUP1 REVERT JUMPDEST POP CALLER PUSH1 0x1 PUSH1 0x0 PUSH2 0x100 EXP DUP2 SLOAD DUP2 PUSH20 0xFFFFFFFFFFFFFFFFFFFFFFFFFFFFFFFFFFFFFFFF MUL NOT AND SWAP1 DUP4 PUSH20 0xFFFFFFFFFFFFFFFFFFFFFFFFFFFFFFFFFFFFFFFF AND MUL OR SWAP1 SSTORE POP PUSH1 0x0 JUMPDEST PUSH1 0xA DUP2 PUSH1 0xFF AND LT ISZERO PUSH3 0x420 JUMPI PUSH1 0x0 PUSH1 0x40 MLOAD DUP1 PUSH1 0x60 ADD PUSH1 0x40 MSTORE DUP1 PUSH1 0x0 DUP5 PUSH1 0xFF AND DUP2 SLOAD DUP2 LT PUSH3 0x2F5 JUMPI PUSH3 0x2F4 PUSH3 0x67C JUMP JUMPDEST JUMPDEST SWAP1 PUSH1 0x0 MSTORE PUSH1 0x20 PUSH1 0x0 KECCAK256 ADD DUP1 SLOAD PUSH3 0x30C SWAP1 PUSH3 0x5B9 JUMP JUMPDEST DUP1 PUSH1 0x1F ADD PUSH1 0x20 DUP1 SWAP2 DIV MUL PUSH1 0x20 ADD PUSH1 0x40 MLOAD SWAP1 DUP2 ADD PUSH1 0x40 MSTORE DUP1 SWAP3 SWAP2 SWAP1 DUP2 DUP2 MSTORE PUSH1 0x20 ADD DUP3 DUP1 SLOAD PUSH3 0x33A SWAP1 PUSH3 0x5B9 JUMP JUMPDEST DUP1 ISZERO PUSH3 0x38B JUMPI DUP1 PUSH1 0x1F LT PUSH3 0x35F JUMPI PUSH2 0x100 DUP1 DUP4 SLOAD DIV MUL DUP4 MSTORE SWAP2 PUSH1 0x20 ADD SWAP2 PUSH3 0x38B JUMP JUMPDEST DUP3 ADD SWAP2 SWAP1 PUSH1 0x0 MSTORE PUSH1 0x20 PUSH1 0x0 KECCAK256 SWAP1 JUMPDEST DUP2 SLOAD DUP2 MSTORE SWAP1 PUSH1 0x1 ADD SWAP1 PUSH1 0x20 ADD DUP1 DUP4 GT PUSH3 0x36D JUMPI DUP3 SWAP1 SUB PUSH1 0x1F AND DUP3 ADD SWAP2 JUMPDEST POP POP POP POP POP DUP2 MSTORE PUSH1 0x20 ADD PUSH1 0x1 ISZERO ISZERO DUP2 MSTORE PUSH1 0x20 ADD PUSH1 0x0 DUP2 MSTORE POP SWAP1 POP DUP1 PUSH1 0x2 PUSH1 0x0 DUP5 PUSH1 0xFF AND PUSH1 0xFF AND DUP2 MSTORE PUSH1 0x20 ADD SWAP1 DUP2 MSTORE PUSH1 0x20 ADD PUSH1 0x0 KECCAK256 PUSH1 0x0 DUP3 ADD MLOAD DUP2 PUSH1 0x0 ADD SWAP1 DUP1 MLOAD SWAP1 PUSH1 0x20 ADD SWAP1 PUSH3 0x3DD SWAP3 SWAP2 SWAP1 PUSH3 0x48E JUMP JUMPDEST POP PUSH1 0x20 DUP3 ADD MLOAD DUP2 PUSH1 0x1 ADD PUSH1 0x0 PUSH2 0x100 EXP DUP2 SLOAD DUP2 PUSH1 0xFF MUL NOT AND SWAP1 DUP4 ISZERO ISZERO MUL OR SWAP1 SSTORE POP PUSH1 0x40 DUP3 ADD MLOAD DUP2 PUSH1 0x2 ADD SSTORE SWAP1 POP POP POP DUP1 PUSH3 0x418 SWAP1 PUSH3 0x5EF JUMP JUMPDEST SWAP1 POP PUSH3 0x2C1 JUMP JUMPDEST POP PUSH3 0x6AB JUMP JUMPDEST DUP3 DUP1 SLOAD DUP3 DUP3 SSTORE SWAP1 PUSH1 0x0 MSTORE PUSH1 0x20 PUSH1 0x0 KECCAK256 SWAP1 DUP2 ADD SWAP3 DUP3 ISZERO PUSH3 0x47B JUMPI SWAP2 PUSH1 0x20 MUL DUP3 ADD JUMPDEST DUP3 DUP2 GT ISZERO PUSH3 0x47A JUMPI DUP3 MLOAD DUP3 SWAP1 DUP1 MLOAD SWAP1 PUSH1 0x20 ADD SWAP1 PUSH3 0x469 SWAP3 SWAP2 SWAP1 PUSH3 0x48E JUMP JUMPDEST POP SWAP2 PUSH1 0x20 ADD SWAP2 SWAP1 PUSH1 0x1 ADD SWAP1 PUSH3 0x448 JUMP JUMPDEST JUMPDEST POP SWAP1 POP PUSH3 0x48A SWAP2 SWAP1 PUSH3 0x51F JUMP JUMPDEST POP SWAP1 JUMP JUMPDEST DUP3 DUP1 SLOAD PUSH3 0x49C SWAP1 PUSH3 0x5B9 JUMP JUMPDEST SWAP1 PUSH1 0x0 MSTORE PUSH1 0x20 PUSH1 0x0 KECCAK256 SWAP1 PUSH1 0x1F ADD PUSH1 0x20 SWAP1 DIV DUP2 ADD SWAP3 DUP3 PUSH3 0x4C0 JUMPI PUSH1 0x0 DUP6 SSTORE PUSH3 0x50C JUMP JUMPDEST DUP3 PUSH1 0x1F LT PUSH3 0x4DB JUMPI DUP1 MLOAD PUSH1 0xFF NOT AND DUP4 DUP1 ADD OR DUP6 SSTORE PUSH3 0x50C JUMP JUMPDEST DUP3 DUP1 ADD PUSH1 0x1 ADD DUP6 SSTORE DUP3 ISZERO PUSH3 0x50C JUMPI SWAP2 DUP3 ADD JUMPDEST DUP3 DUP2 GT ISZERO PUSH3 0x50B JUMPI DUP3 MLOAD DUP3 SSTORE SWAP2 PUSH1 0x20 ADD SWAP2 SWAP1 PUSH1 0x1 ADD SWAP1 PUSH3 0x4EE JUMP JUMPDEST JUMPDEST POP SWAP1 POP PUSH3 0x51B SWAP2 SWAP1 PUSH3 0x547 JUMP JUMPDEST POP SWAP1 JUMP JUMPDEST JUMPDEST DUP1 DUP3 GT ISZERO PUSH3 0x543 JUMPI PUSH1 0x0 DUP2 DUP2 PUSH3 0x539 SWAP2 SWAP1 PUSH3 0x566 JUMP JUMPDEST POP PUSH1 0x1 ADD PUSH3 0x520 JUMP JUMPDEST POP SWAP1 JUMP JUMPDEST JUMPDEST DUP1 DUP3 GT ISZERO PUSH3 0x562 JUMPI PUSH1 0x0 DUP2 PUSH1 0x0 SWAP1 SSTORE POP PUSH1 0x1 ADD PUSH3 0x548 JUMP JUMPDEST POP SWAP1 JUMP JUMPDEST POP DUP1 SLOAD PUSH3 0x574 SWAP1 PUSH3 0x5B9 JUMP JUMPDEST PUSH1 0x0 DUP3 SSTORE DUP1 PUSH1 0x1F LT PUSH3 0x588 JUMPI POP PUSH3 0x5A9 JUMP JUMPDEST PUSH1 0x1F ADD PUSH1 0x20 SWAP1 DIV SWAP1 PUSH1 0x0 MSTORE PUSH1 0x20 PUSH1 0x0 KECCAK256 SWAP1 DUP2 ADD SWAP1 PUSH3 0x5A8 SWAP2 SWAP1 PUSH3 0x547 JUMP JUMPDEST JUMPDEST POP JUMP JUMPDEST PUSH1 0x0 PUSH1 0xFF DUP3 AND SWAP1 POP SWAP2 SWAP1 POP JUMP JUMPDEST PUSH1 0x0 PUSH1 0x2 DUP3 DIV SWAP1 POP PUSH1 0x1 DUP3 AND DUP1 PUSH3 0x5D2 JUMPI PUSH1 0x7F DUP3 AND SWAP2 POP JUMPDEST PUSH1 0x20 DUP3 LT DUP2 EQ ISZERO PUSH3 0x5E9 JUMPI PUSH3 0x5E8 PUSH3 0x64D JUMP JUMPDEST JUMPDEST POP SWAP2 SWAP1 POP JUMP JUMPDEST PUSH1 0x0 PUSH3 0x5FC DUP3 PUSH3 0x5AC JUMP JUMPDEST SWAP2 POP PUSH1 0xFF DUP3 EQ ISZERO PUSH3 0x613 JUMPI PUSH3 0x612 PUSH3 0x61E JUMP JUMPDEST JUMPDEST PUSH1 0x1 DUP3 ADD SWAP1 POP SWAP2 SWAP1 POP JUMP JUMPDEST PUSH32 0x4E487B7100000000000000000000000000000000000000000000000000000000 PUSH1 0x0 MSTORE PUSH1 0x11 PUSH1 0x4 MSTORE PUSH1 0x24 PUSH1 0x0 REVERT JUMPDEST PUSH32 0x4E487B7100000000000000000000000000000000000000000000000000000000 PUSH1 0x0 MSTORE PUSH1 0x22 PUSH1 0x4 MSTORE PUSH1 0x24 PUSH1 0x0 REVERT JUMPDEST PUSH32 0x4E487B7100000000000000000000000000000000000000000000000000000000 PUSH1 0x0 MSTORE PUSH1 0x32 PUSH1 0x4 MSTORE PUSH1 0x24 PUSH1 0x0 REVERT JUMPDEST PUSH2 0x968 DUP1 PUSH3 0x6BB PUSH1 0x0 CODECOPY PUSH1 0x0 RETURN INVALID PUSH1 0x80 PUSH1 0x40 MSTORE CALLVALUE DUP1 ISZERO PUSH2 0x10 JUMPI PUSH1 0x0 DUP1 REVERT JUMPDEST POP PUSH1 0x4 CALLDATASIZE LT PUSH2 0x4C JUMPI PUSH1 0x0 CALLDATALOAD PUSH1 0xE0 SHR DUP1 PUSH4 0x20171645 EQ PUSH2 0x51 JUMPI DUP1 PUSH4 0x893D20E8 EQ PUSH2 0x6D JUMPI DUP1 PUSH4 0x89DF6576 EQ PUSH2 0x8B JUMPI DUP1 PUSH4 0xBB5CB5F5 EQ PUSH2 0xBB JUMPI JUMPDEST PUSH1 0x0 DUP1 REVERT JUMPDEST PUSH2 0x6B PUSH1 0x4 DUP1 CALLDATASIZE SUB DUP2 ADD SWAP1 PUSH2 0x66 SWAP2 SWAP1 PUSH2 0x54B JUMP JUMPDEST PUSH2 0xD7 JUMP JUMPDEST STOP JUMPDEST PUSH2 0x75 PUSH2 0x2C5 JUMP JUMPDEST PUSH1 0x40 MLOAD PUSH2 0x82 SWAP2 SWAP1 PUSH2 0x6A2 JUMP JUMPDEST PUSH1 0x40 MLOAD DUP1 SWAP2 SUB SWAP1 RETURN JUMPDEST PUSH2 0xA5 PUSH1 0x4 DUP1 CALLDATASIZE SUB DUP2 ADD SWAP1 PUSH2 0xA0 SWAP2 SWAP1 PUSH2 0x54B JUMP JUMPDEST PUSH2 0x2EF JUMP JUMPDEST PUSH1 0x40 MLOAD PUSH2 0xB2 SWAP2 SWAP1 PUSH2 0x6BD JUMP JUMPDEST PUSH1 0x40 MLOAD DUP1 SWAP2 SUB SWAP1 RETURN JUMPDEST PUSH2 0xD5 PUSH1 0x4 DUP1 CALLDATASIZE SUB DUP2 ADD SWAP1 PUSH2 0xD0 SWAP2 SWAP1 PUSH2 0x54B JUMP JUMPDEST PUSH2 0x368 JUMP JUMPDEST STOP JUMPDEST PUSH1 0x1 PUSH1 0x0 SWAP1 SLOAD SWAP1 PUSH2 0x100 EXP SWAP1 DIV PUSH20 0xFFFFFFFFFFFFFFFFFFFFFFFFFFFFFFFFFFFFFFFF AND PUSH20 0xFFFFFFFFFFFFFFFFFFFFFFFFFFFFFFFFFFFFFFFF AND CALLER PUSH20 0xFFFFFFFFFFFFFFFFFFFFFFFFFFFFFFFFFFFFFFFF AND EQ PUSH2 0x167 JUMPI PUSH1 0x40 MLOAD PUSH32 0x8C379A000000000000000000000000000000000000000000000000000000000 DUP2 MSTORE PUSH1 0x4 ADD PUSH2 0x15E SWAP1 PUSH2 0x71A JUMP JUMPDEST PUSH1 0x40 MLOAD DUP1 SWAP2 SUB SWAP1 REVERT JUMPDEST PUSH1 0xA DUP2 PUSH1 0xFF AND LT PUSH2 0x1AD JUMPI PUSH1 0x40 MLOAD PUSH32 0x8C379A000000000000000000000000000000000000000000000000000000000 DUP2 MSTORE PUSH1 0x4 ADD PUSH2 0x1A4 SWAP1 PUSH2 0x73A JUMP JUMPDEST PUSH1 0x40 MLOAD DUP1 SWAP2 SUB SWAP1 REVERT JUMPDEST PUSH1 0x2 PUSH1 0x0 DUP3 PUSH1 0xFF AND PUSH1 0xFF AND DUP2 MSTORE PUSH1 0x20 ADD SWAP1 DUP2 MSTORE PUSH1 0x20 ADD PUSH1 0x0 KECCAK256 PUSH1 0x1 ADD PUSH1 0x0 SWAP1 SLOAD SWAP1 PUSH2 0x100 EXP SWAP1 DIV PUSH1 0xFF AND PUSH2 0x216 JUMPI PUSH1 0x40 MLOAD PUSH32 0x8C379A000000000000000000000000000000000000000000000000000000000 DUP2 MSTORE PUSH1 0x4 ADD PUSH2 0x20D SWAP1 PUSH2 0x75A JUMP JUMPDEST PUSH1 0x40 MLOAD DUP1 SWAP2 SUB SWAP1 REVERT JUMPDEST PUSH1 0x0 PUSH1 0x2 PUSH1 0x0 DUP4 PUSH1 0xFF AND PUSH1 0xFF AND DUP2 MSTORE PUSH1 0x20 ADD SWAP1 DUP2 MSTORE PUSH1 0x20 ADD PUSH1 0x0 KECCAK256 PUSH1 0x1 ADD PUSH1 0x0 PUSH2 0x100 EXP DUP2 SLOAD DUP2 PUSH1 0xFF MUL NOT AND SWAP1 DUP4 ISZERO ISZERO MUL OR SWAP1 SSTORE POP NUMBER PUSH1 0x2 PUSH1 0x0 DUP4 PUSH1 0xFF AND PUSH1 0xFF AND DUP2 MSTORE PUSH1 0x20 ADD SWAP1 DUP2 MSTORE PUSH1 0x20 ADD PUSH1 0x0 KECCAK256 PUSH1 0x2 ADD DUP2 SWAP1 SSTORE POP DUP1 PUSH1 0xFF AND PUSH32 0x7E6F4CBDCBCCDA9A2C35B312B52A640EC0FBD3F7C205E40D369A4B1861155646 PUSH1 0x2 PUSH1 0x0 DUP5 PUSH1 0xFF AND PUSH1 0xFF AND DUP2 MSTORE PUSH1 0x20 ADD SWAP1 DUP2 MSTORE PUSH1 0x20 ADD PUSH1 0x0 KECCAK256 PUSH1 0x0 ADD PUSH1 0x40 MLOAD PUSH2 0x2BA SWAP2 SWAP1 PUSH2 0x6D8 JUMP JUMPDEST PUSH1 0x40 MLOAD DUP1 SWAP2 SUB SWAP1 LOG2 POP JUMP JUMPDEST PUSH1 0x0 PUSH1 0x1 PUSH1 0x0 SWAP1 SLOAD SWAP1 PUSH2 0x100 EXP SWAP1 DIV PUSH20 0xFFFFFFFFFFFFFFFFFFFFFFFFFFFFFFFFFFFFFFFF AND SWAP1 POP SWAP1 JUMP JUMPDEST PUSH1 0x0 PUSH1 0xA DUP3 PUSH1 0xFF AND LT PUSH2 0x337 JUMPI PUSH1 0x40 MLOAD PUSH32 0x8C379A000000000000000000000000000000000000000000000000000000000 DUP2 MSTORE PUSH1 0x4 ADD PUSH2 0x32E SWAP1 PUSH2 0x73A JUMP JUMPDEST PUSH1 0x40 MLOAD DUP1 SWAP2 SUB SWAP1 REVERT JUMPDEST PUSH1 0x2 PUSH1 0x0 DUP4 PUSH1 0xFF AND PUSH1 0xFF AND DUP2 MSTORE PUSH1 0x20 ADD SWAP1 DUP2 MSTORE PUSH1 0x20 ADD PUSH1 0x0 KECCAK256 PUSH1 0x1 ADD PUSH1 0x0 SWAP1 SLOAD SWAP1 PUSH2 0x100 EXP SWAP1 DIV PUSH1 0xFF AND SWAP1 POP SWAP2 SWAP1 POP JUMP JUMPDEST PUSH1 0x1 PUSH1 0x0 SWAP1 SLOAD SWAP1 PUSH2 0x100 EXP SWAP1 DIV PUSH20 0xFFFFFFFFFFFFFFFFFFFFFFFFFFFFFFFFFFFFFFFF AND PUSH20 0xFFFFFFFFFFFFFFFFFFFFFFFFFFFFFFFFFFFFFFFF AND CALLER PUSH20 0xFFFFFFFFFFFFFFFFFFFFFFFFFFFFFFFFFFFFFFFF AND EQ PUSH2 0x3F8 JUMPI PUSH1 0x40 MLOAD PUSH32 0x8C379A000000000000000000000000000000000000000000000000000000000 DUP2 MSTORE PUSH1 0x4 ADD PUSH2 0x3EF SWAP1 PUSH2 0x71A JUMP JUMPDEST PUSH1 0x40 MLOAD DUP1 SWAP2 SUB SWAP1 REVERT JUMPDEST PUSH1 0xA DUP2 PUSH1 0xFF AND LT PUSH2 0x43E JUMPI PUSH1 0x40 MLOAD PUSH32 0x8C379A000000000000000000000000000000000000000000000000000000000 DUP2 MSTORE PUSH1 0x4 ADD PUSH2 0x435 SWAP1 PUSH2 0x73A JUMP JUMPDEST PUSH1 0x40 MLOAD DUP1 SWAP2 SUB SWAP1 REVERT JUMPDEST PUSH1 0x2 PUSH1 0x0 DUP3 PUSH1 0xFF AND PUSH1 0xFF AND DUP2 MSTORE PUSH1 0x20 ADD SWAP1 DUP2 MSTORE PUSH1 0x20 ADD PUSH1 0x0 KECCAK256 PUSH1 0x1 ADD PUSH1 0x0 SWAP1 SLOAD SWAP1 PUSH2 0x100 EXP SWAP1 DIV PUSH1 0xFF AND ISZERO PUSH2 0x4A8 JUMPI PUSH1 0x40 MLOAD PUSH32 0x8C379A000000000000000000000000000000000000000000000000000000000 DUP2 MSTORE PUSH1 0x4 ADD PUSH2 0x49F SWAP1 PUSH2 0x6FA JUMP JUMPDEST PUSH1 0x40 MLOAD DUP1 SWAP2 SUB SWAP1 REVERT JUMPDEST PUSH1 0x1 PUSH1 0x2 PUSH1 0x0 DUP4 PUSH1 0xFF AND PUSH1 0xFF AND DUP2 MSTORE PUSH1 0x20 ADD SWAP1 DUP2 MSTORE PUSH1 0x20 ADD PUSH1 0x0 KECCAK256 PUSH1 0x1 ADD PUSH1 0x0 PUSH2 0x100 EXP DUP2 SLOAD DUP2 PUSH1 0xFF MUL NOT AND SWAP1 DUP4 ISZERO ISZERO MUL OR SWAP1 SSTORE POP DUP1 PUSH1 0xFF AND PUSH32 0xF51AA7C1A8A302A35B139F6AC186CFEAF3D5DB207064B76EC7AACCA01F29BF3C PUSH1 0x2 PUSH1 0x0 DUP5 PUSH1 0xFF AND PUSH1 0xFF AND DUP2 MSTORE PUSH1 0x20 ADD SWAP1 DUP2 MSTORE PUSH1 0x20 ADD PUSH1 0x0 KECCAK256 PUSH1 0x0 ADD PUSH1 0x40 MLOAD PUSH2 0x52B SWAP2 SWAP1 PUSH2 0x6D8 JUMP JUMPDEST PUSH1 0x40 MLOAD DUP1 SWAP2 SUB SWAP1 LOG2 POP JUMP JUMPDEST PUSH1 0x0 DUP2 CALLDATALOAD SWAP1 POP PUSH2 0x545 DUP2 PUSH2 0x91B JUMP JUMPDEST SWAP3 SWAP2 POP POP JUMP JUMPDEST PUSH1 0x0 PUSH1 0x20 DUP3 DUP5 SUB SLT ISZERO PUSH2 0x561 JUMPI PUSH2 0x560 PUSH2 0x84C JUMP JUMPDEST JUMPDEST PUSH1 0x0 PUSH2 0x56F DUP5 DUP3 DUP6 ADD PUSH2 0x536 JUMP JUMPDEST SWAP2 POP POP SWAP3 SWAP2 POP POP JUMP JUMPDEST PUSH2 0x581 DUP2 PUSH2 0x7A0 JUMP JUMPDEST DUP3 MSTORE POP POP JUMP JUMPDEST PUSH2 0x590 DUP2 PUSH2 0x7B2 JUMP JUMPDEST DUP3 MSTORE POP POP JUMP JUMPDEST PUSH1 0x0 DUP2 SLOAD PUSH2 0x5A3 DUP2 PUSH2 0x7EB JUMP JUMPDEST PUSH2 0x5AD DUP2 DUP7 PUSH2 0x78F JUMP JUMPDEST SWAP5 POP PUSH1 0x1 DUP3 AND PUSH1 0x0 DUP2 EQ PUSH2 0x5C8 JUMPI PUSH1 0x1 DUP2 EQ PUSH2 0x5DA JUMPI PUSH2 0x60D JUMP JUMPDEST PUSH1 0xFF NOT DUP4 AND DUP7 MSTORE PUSH1 0x20 DUP7 ADD SWAP4 POP PUSH2 0x60D JUMP JUMPDEST PUSH2 0x5E3 DUP6 PUSH2 0x77A JUMP JUMPDEST PUSH1 0x0 JUMPDEST DUP4 DUP2 LT ISZERO PUSH2 0x605 JUMPI DUP2 SLOAD DUP2 DUP10 ADD MSTORE PUSH1 0x1 DUP3 ADD SWAP2 POP PUSH1 0x20 DUP2 ADD SWAP1 POP PUSH2 0x5E6 JUMP JUMPDEST DUP1 DUP9 ADD SWAP6 POP POP POP JUMPDEST POP POP POP SWAP3 SWAP2 POP POP JUMP JUMPDEST PUSH1 0x0 PUSH2 0x623 PUSH1 0x17 DUP4 PUSH2 0x78F JUMP JUMPDEST SWAP2 POP PUSH2 0x62E DUP3 PUSH2 0x851 JUMP JUMPDEST PUSH1 0x20 DUP3 ADD SWAP1 POP SWAP2 SWAP1 POP JUMP JUMPDEST PUSH1 0x0 PUSH2 0x646 PUSH1 0x31 DUP4 PUSH2 0x78F JUMP JUMPDEST SWAP2 POP PUSH2 0x651 DUP3 PUSH2 0x87A JUMP JUMPDEST PUSH1 0x40 DUP3 ADD SWAP1 POP SWAP2 SWAP1 POP JUMP JUMPDEST PUSH1 0x0 PUSH2 0x669 PUSH1 0x11 DUP4 PUSH2 0x78F JUMP JUMPDEST SWAP2 POP PUSH2 0x674 DUP3 PUSH2 0x8C9 JUMP JUMPDEST PUSH1 0x20 DUP3 ADD SWAP1 POP SWAP2 SWAP1 POP JUMP JUMPDEST PUSH1 0x0 PUSH2 0x68C PUSH1 0x16 DUP4 PUSH2 0x78F JUMP JUMPDEST SWAP2 POP PUSH2 0x697 DUP3 PUSH2 0x8F2 JUMP JUMPDEST PUSH1 0x20 DUP3 ADD SWAP1 POP SWAP2 SWAP1 POP JUMP JUMPDEST PUSH1 0x0 PUSH1 0x20 DUP3 ADD SWAP1 POP PUSH2 0x6B7 PUSH1 0x0 DUP4 ADD DUP5 PUSH2 0x578 JUMP JUMPDEST SWAP3 SWAP2 POP POP JUMP JUMPDEST PUSH1 0x0 PUSH1 0x20 DUP3 ADD SWAP1 POP PUSH2 0x6D2 PUSH1 0x0 DUP4 ADD DUP5 PUSH2 0x587 JUMP JUMPDEST SWAP3 SWAP2 POP POP JUMP JUMPDEST PUSH1 0x0 PUSH1 0x20 DUP3 ADD SWAP1 POP DUP2 DUP2 SUB PUSH1 0x0 DUP4 ADD MSTORE PUSH2 0x6F2 DUP2 DUP5 PUSH2 0x596 JUMP JUMPDEST SWAP1 POP SWAP3 SWAP2 POP POP JUMP JUMPDEST PUSH1 0x0 PUSH1 0x20 DUP3 ADD SWAP1 POP DUP2 DUP2 SUB PUSH1 0x0 DUP4 ADD MSTORE PUSH2 0x713 DUP2 PUSH2 0x616 JUMP JUMPDEST SWAP1 POP SWAP2 SWAP1 POP JUMP JUMPDEST PUSH1 0x0 PUSH1 0x20 DUP3 ADD SWAP1 POP DUP2 DUP2 SUB PUSH1 0x0 DUP4 ADD MSTORE PUSH2 0x733 DUP2 PUSH2 0x639 JUMP JUMPDEST SWAP1 POP SWAP2 SWAP1 POP JUMP JUMPDEST PUSH1 0x0 PUSH1 0x20 DUP3 ADD SWAP1 POP DUP2 DUP2 SUB PUSH1 0x0 DUP4 ADD MSTORE PUSH2 0x753 DUP2 PUSH2 0x65C JUMP JUMPDEST SWAP1 POP SWAP2 SWAP1 POP JUMP JUMPDEST PUSH1 0x0 PUSH1 0x20 DUP3 ADD SWAP1 POP DUP2 DUP2 SUB PUSH1 0x0 DUP4 ADD MSTORE PUSH2 0x773 DUP2 PUSH2 0x67F JUMP JUMPDEST SWAP1 POP SWAP2 SWAP1 POP JUMP JUMPDEST PUSH1 0x0 DUP2 SWAP1 POP DUP2 PUSH1 0x0 MSTORE PUSH1 0x20 PUSH1 0x0 KECCAK256 SWAP1 POP SWAP2 SWAP1 POP JUMP JUMPDEST PUSH1 0x0 DUP3 DUP3 MSTORE PUSH1 0x20 DUP3 ADD SWAP1 POP SWAP3 SWAP2 POP POP JUMP JUMPDEST PUSH1 0x0 PUSH2 0x7AB DUP3 PUSH2 0x7BE JUMP JUMPDEST SWAP1 POP SWAP2 SWAP1 POP JUMP JUMPDEST PUSH1 0x0 DUP2 ISZERO ISZERO SWAP1 POP SWAP2 SWAP1 POP JUMP JUMPDEST PUSH1 0x0 PUSH20 0xFFFFFFFFFFFFFFFFFFFFFFFFFFFFFFFFFFFFFFFF DUP3 AND SWAP1 POP SWAP2 SWAP1 POP JUMP JUMPDEST PUSH1 0x0 PUSH1 0xFF DUP3 AND SWAP1 POP SWAP2 SWAP1 POP JUMP JUMPDEST PUSH1 0x0 PUSH1 0x2 DUP3 DIV SWAP1 POP PUSH1 0x1 DUP3 AND DUP1 PUSH2 0x803 JUMPI PUSH1 0x7F DUP3 AND SWAP2 POP JUMPDEST PUSH1 0x20 DUP3 LT DUP2 EQ ISZERO PUSH2 0x817 JUMPI PUSH2 0x816 PUSH2 0x81D JUMP JUMPDEST JUMPDEST POP SWAP2 SWAP1 POP JUMP JUMPDEST PUSH32 0x4E487B7100000000000000000000000000000000000000000000000000000000 PUSH1 0x0 MSTORE PUSH1 0x22 PUSH1 0x4 MSTORE PUSH1 0x24 PUSH1 0x0 REVERT JUMPDEST PUSH1 0x0 DUP1 REVERT JUMPDEST PUSH32 0x43616E61727920697320616C726561647920616C697665000000000000000000 PUSH1 0x0 DUP3 ADD MSTORE POP JUMP JUMPDEST PUSH32 0x4F6E6C792074686520636F6E7472616374206465706C6F7965722063616E2063 PUSH1 0x0 DUP3 ADD MSTORE PUSH32 0x616C6C20746869732066756E6374696F6E000000000000000000000000000000 PUSH1 0x20 DUP3 ADD MSTORE POP JUMP JUMPDEST PUSH32 0x496E76616C69642063616E617279206964000000000000000000000000000000 PUSH1 0x0 DUP3 ADD MSTORE POP JUMP JUMPDEST PUSH32 0x43616E61727920697320616C7265616479206465616400000000000000000000 PUSH1 0x0 DUP3 ADD MSTORE POP JUMP JUMPDEST PUSH2 0x924 DUP2 PUSH2 0x7DE JUMP JUMPDEST DUP2 EQ PUSH2 0x92F JUMPI PUSH1 0x0 DUP1 REVERT JUMPDEST POP JUMP INVALID LOG2 PUSH5 0x6970667358 0x22 SLT KECCAK256 0x29 PUSH13 0xFCF954D25C3A5990971D564F15 DUP7 PUSH13 0x2A92A66F9F6CACB4CCDF05971E 0xDD GT PUSH5 0x736F6C6343 STOP ADDMOD SMOD STOP CALLER "
				},
				"gasEstimates": {
					"creation": {
						"codeDepositCost": "481600",
						"executionCost": "infinite",
						"totalCost": "infinite"
					},
					"external": {
						"getCanaryStatus(uint8)": "2897",
						"getOwner()": "2522",
						"killCanary(uint8)": "infinite",
						"reviveCanary(uint8)": "infinite"
					}
				},
				"methodIdentifiers": {
					"getCanaryStatus(uint8)": "89df6576",
					"getOwner()": "893d20e8",
					"killCanary(uint8)": "20171645",
					"reviveCanary(uint8)": "bb5cb5f5"
				}
			},
			"storageLayout": {
				"storage": [
					{
						"astId": 15,
						"contract": "Contracts/WarrantCanary.sol:WarrantCanary",
						"label": "canaries",
						"offset": 0,
						"slot": "0",
						"type": "t_array(t_string_storage)dyn_storage"
					},
					{
						"astId": 24,
						"contract": "Contracts/WarrantCanary.sol:WarrantCanary",
						"label": "owner",
						"offset": 0,
						"slot": "1",
						"type": "t_address"
					},
					{
						"astId": 29,
						"contract": "Contracts/WarrantCanary.sol:WarrantCanary",
						"label": "status",
						"offset": 0,
						"slot": "2",
						"type": "t_mapping(t_uint8,t_struct(canary)22_storage)"
					}
				],
				"types": {
					"t_address": {
						"encoding": "inplace",
						"label": "address",
						"numberOfBytes": "20"
					},
					"t_array(t_string_storage)dyn_storage": {
						"base": "t_string_storage",
						"encoding": "dynamic_array",
						"label": "string[]",
						"numberOfBytes": "32"
					},
					"t_bool": {
						"encoding": "inplace",
						"label": "bool",
						"numberOfBytes": "1"
					},
					"t_mapping(t_uint8,t_struct(canary)22_storage)": {
						"encoding": "mapping",
						"key": "t_uint8",
						"label": "mapping(uint8 => struct WarrantCanary.canary)",
						"numberOfBytes": "32",
						"value": "t_struct(canary)22_storage"
					},
					"t_string_storage": {
						"encoding": "bytes",
						"label": "string",
						"numberOfBytes": "32"
					},
					"t_struct(canary)22_storage": {
						"encoding": "inplace",
						"label": "struct WarrantCanary.canary",
						"members": [
							{
								"astId": 17,
								"contract": "Contracts/WarrantCanary.sol:WarrantCanary",
								"label": "name",
								"offset": 0,
								"slot": "0",
								"type": "t_string_storage"
							},
							{
								"astId": 19,
								"contract": "Contracts/WarrantCanary.sol:WarrantCanary",
								"label": "alive",
								"offset": 0,
								"slot": "1",
								"type": "t_bool"
							},
							{
								"astId": 21,
								"contract": "Contracts/WarrantCanary.sol:WarrantCanary",
								"label": "blockOfDeath",
								"offset": 0,
								"slot": "2",
								"type": "t_uint256"
							}
						],
						"numberOfBytes": "96"
					},
					"t_uint256": {
						"encoding": "inplace",
						"label": "uint256",
						"numberOfBytes": "32"
					},
					"t_uint8": {
						"encoding": "inplace",
						"label": "uint8",
						"numberOfBytes": "1"
					}
				}
			},
			"userdoc": {
				"kind": "user",
				"methods": {},
				"version": 1
			}
		}
	}
}