{
	"data": {
		"bytecode": {
			"linkReferences": {},
			"object": "608060405234801561001057600080fd5b5060016000806101000a81548160ff0219169083151502179055506105a58061003a6000396000f3fe608060405234801561001057600080fd5b506004361061004c5760003560e01c80634136aa351461005157806341c0e1b51461006f57806395851a6514610079578063dc99446114610083575b600080fd5b6100596100a1565b60405161006691906103c8565b60405180910390f35b6100776100b7565b005b6100816101c1565b005b61008b6102c5565b6040516100989190610463565b60405180910390f35b60008060009054906101000a900460ff16905090565b3073ffffffffffffffffffffffffffffffffffffffff163373ffffffffffffffffffffffffffffffffffffffff1614610125576040517f08c379a000000000000000000000000000000000000000000000000000000000815260040161011c90610423565b60405180910390fd5b60008054906101000a900460ff16610172576040517f08c379a000000000000000000000000000000000000000000000000000000000815260040161016990610443565b60405180910390fd5b60008060006101000a81548160ff021916908315150217905550436001819055507fce61dc912e9ee10b56271ccf95798629130363284e90bc228a4f1479d838878c60405160405180910390a1565b3073ffffffffffffffffffffffffffffffffffffffff163373ffffffffffffffffffffffffffffffffffffffff161461022f576040517f08c379a000000000000000000000000000000000000000000000000000000000815260040161022690610423565b60405180910390fd5b60008054906101000a900460ff161561027d576040517f08c379a000000000000000000000000000000000000000000000000000000000815260040161027490610403565b60405180910390fd5b60016000806101000a81548160ff0219169083151502179055507fa3e4ce93d7bcb209036d3bf86f2670865f77ae23d657e78eacb622a2b70f615460405160405180910390a1565b60008060009054906101000a900460ff1615610316576040517f08c379a000000000000000000000000000000000000000000000000000000000815260040161030d906103e3565b60405180910390fd5b600154905090565b6103278161048f565b82525050565b600061033a60158361047e565b9150610345826104a5565b602082019050919050565b600061035d60178361047e565b9150610368826104ce565b602082019050919050565b600061038060318361047e565b915061038b826104f7565b604082019050919050565b60006103a360168361047e565b91506103ae82610546565b602082019050919050565b6103c28161049b565b82525050565b60006020820190506103dd600083018461031e565b92915050565b600060208201905081810360008301526103fc8161032d565b9050919050565b6000602082019050818103600083015261041c81610350565b9050919050565b6000602082019050818103600083015261043c81610373565b9050919050565b6000602082019050818103600083015261045c81610396565b9050919050565b600060208201905061047860008301846103b9565b92915050565b600082825260208201905092915050565b60008115159050919050565b6000819050919050565b7f43616e617279206973207374696c6c20616c6976650000000000000000000000600082015250565b7f43616e61727920697320616c726561647920616c697665000000000000000000600082015250565b7f4f6e6c792074686520636f6e7472616374206465706c6f7965722063616e206360008201527f616c6c20746869732066756e6374696f6e000000000000000000000000000000602082015250565b7f43616e61727920697320616c726561647920646561640000000000000000000060008201525056fea2646970667358221220d5d9ad27b7d09c6912bd16eb94364d8d8ab79984763502d1b12c4834ecaa7ef864736f6c63430008070033",
			"opcodes": "PUSH1 0x80 PUSH1 0x40 MSTORE CALLVALUE DUP1 ISZERO PUSH2 0x10 JUMPI PUSH1 0x0 DUP1 REVERT JUMPDEST POP PUSH1 0x1 PUSH1 0x0 DUP1 PUSH2 0x100 EXP DUP2 SLOAD DUP2 PUSH1 0xFF MUL NOT AND SWAP1 DUP4 ISZERO ISZERO MUL OR SWAP1 SSTORE POP PUSH2 0x5A5 DUP1 PUSH2 0x3A PUSH1 0x0 CODECOPY PUSH1 0x0 RETURN INVALID PUSH1 0x80 PUSH1 0x40 MSTORE CALLVALUE DUP1 ISZERO PUSH2 0x10 JUMPI PUSH1 0x0 DUP1 REVERT JUMPDEST POP PUSH1 0x4 CALLDATASIZE LT PUSH2 0x4C JUMPI PUSH1 0x0 CALLDATALOAD PUSH1 0xE0 SHR DUP1 PUSH4 0x4136AA35 EQ PUSH2 0x51 JUMPI DUP1 PUSH4 0x41C0E1B5 EQ PUSH2 0x6F JUMPI DUP1 PUSH4 0x95851A65 EQ PUSH2 0x79 JUMPI DUP1 PUSH4 0xDC994461 EQ PUSH2 0x83 JUMPI JUMPDEST PUSH1 0x0 DUP1 REVERT JUMPDEST PUSH2 0x59 PUSH2 0xA1 JUMP JUMPDEST PUSH1 0x40 MLOAD PUSH2 0x66 SWAP2 SWAP1 PUSH2 0x3C8 JUMP JUMPDEST PUSH1 0x40 MLOAD DUP1 SWAP2 SUB SWAP1 RETURN JUMPDEST PUSH2 0x77 PUSH2 0xB7 JUMP JUMPDEST STOP JUMPDEST PUSH2 0x81 PUSH2 0x1C1 JUMP JUMPDEST STOP JUMPDEST PUSH2 0x8B PUSH2 0x2C5 JUMP JUMPDEST PUSH1 0x40 MLOAD PUSH2 0x98 SWAP2 SWAP1 PUSH2 0x463 JUMP JUMPDEST PUSH1 0x40 MLOAD DUP1 SWAP2 SUB SWAP1 RETURN JUMPDEST PUSH1 0x0 DUP1 PUSH1 0x0 SWAP1 SLOAD SWAP1 PUSH2 0x100 EXP SWAP1 DIV PUSH1 0xFF AND SWAP1 POP SWAP1 JUMP JUMPDEST ADDRESS PUSH20 0xFFFFFFFFFFFFFFFFFFFFFFFFFFFFFFFFFFFFFFFF AND CALLER PUSH20 0xFFFFFFFFFFFFFFFFFFFFFFFFFFFFFFFFFFFFFFFF AND EQ PUSH2 0x125 JUMPI PUSH1 0x40 MLOAD PUSH32 0x8C379A000000000000000000000000000000000000000000000000000000000 DUP2 MSTORE PUSH1 0x4 ADD PUSH2 0x11C SWAP1 PUSH2 0x423 JUMP JUMPDEST PUSH1 0x40 MLOAD DUP1 SWAP2 SUB SWAP1 REVERT JUMPDEST PUSH1 0x0 DUP1 SLOAD SWAP1 PUSH2 0x100 EXP SWAP1 DIV PUSH1 0xFF AND PUSH2 0x172 JUMPI PUSH1 0x40 MLOAD PUSH32 0x8C379A000000000000000000000000000000000000000000000000000000000 DUP2 MSTORE PUSH1 0x4 ADD PUSH2 0x169 SWAP1 PUSH2 0x443 JUMP JUMPDEST PUSH1 0x40 MLOAD DUP1 SWAP2 SUB SWAP1 REVERT JUMPDEST PUSH1 0x0 DUP1 PUSH1 0x0 PUSH2 0x100 EXP DUP2 SLOAD DUP2 PUSH1 0xFF MUL NOT AND SWAP1 DUP4 ISZERO ISZERO MUL OR SWAP1 SSTORE POP NUMBER PUSH1 0x1 DUP2 SWAP1 SSTORE POP PUSH32 0xCE61DC912E9EE10B56271CCF95798629130363284E90BC228A4F1479D838878C PUSH1 0x40 MLOAD PUSH1 0x40 MLOAD DUP1 SWAP2 SUB SWAP1 LOG1 JUMP JUMPDEST ADDRESS PUSH20 0xFFFFFFFFFFFFFFFFFFFFFFFFFFFFFFFFFFFFFFFF AND CALLER PUSH20 0xFFFFFFFFFFFFFFFFFFFFFFFFFFFFFFFFFFFFFFFF AND EQ PUSH2 0x22F JUMPI PUSH1 0x40 MLOAD PUSH32 0x8C379A000000000000000000000000000000000000000000000000000000000 DUP2 MSTORE PUSH1 0x4 ADD PUSH2 0x226 SWAP1 PUSH2 0x423 JUMP JUMPDEST PUSH1 0x40 MLOAD DUP1 SWAP2 SUB SWAP1 REVERT JUMPDEST PUSH1 0x0 DUP1 SLOAD SWAP1 PUSH2 0x100 EXP SWAP1 DIV PUSH1 0xFF AND ISZERO PUSH2 0x27D JUMPI PUSH1 0x40 MLOAD PUSH32 0x8C379A000000000000000000000000000000000000000000000000000000000 DUP2 MSTORE PUSH1 0x4 ADD PUSH2 0x274 SWAP1 PUSH2 0x403 JUMP JUMPDEST PUSH1 0x40 MLOAD DUP1 SWAP2 SUB SWAP1 REVERT JUMPDEST PUSH1 0x1 PUSH1 0x0 DUP1 PUSH2 0x100 EXP DUP2 SLOAD DUP2 PUSH1 0xFF MUL NOT AND SWAP1 DUP4 ISZERO ISZERO MUL OR SWAP1 SSTORE POP PUSH32 0xA3E4CE93D7BCB209036D3BF86F2670865F77AE23D657E78EACB622A2B70F6154 PUSH1 0x40 MLOAD PUSH1 0x40 MLOAD DUP1 SWAP2 SUB SWAP1 LOG1 JUMP JUMPDEST PUSH1 0x0 DUP1 PUSH1 0x0 SWAP1 SLOAD SWAP1 PUSH2 0x100 EXP SWAP1 DIV PUSH1 0xFF AND ISZERO PUSH2 0x316 JUMPI PUSH1 0x40 MLOAD PUSH32 0x8C379A000000000000000000000000000000000000000000000000000000000 DUP2 MSTORE PUSH1 0x4 ADD PUSH2 0x30D SWAP1 PUSH2 0x3E3 JUMP JUMPDEST PUSH1 0x40 MLOAD DUP1 SWAP2 SUB SWAP1 REVERT JUMPDEST PUSH1 0x1 SLOAD SWAP1 POP SWAP1 JUMP JUMPDEST PUSH2 0x327 DUP2 PUSH2 0x48F JUMP JUMPDEST DUP3 MSTORE POP POP JUMP JUMPDEST PUSH1 0x0 PUSH2 0x33A PUSH1 0x15 DUP4 PUSH2 0x47E JUMP JUMPDEST SWAP2 POP PUSH2 0x345 DUP3 PUSH2 0x4A5 JUMP JUMPDEST PUSH1 0x20 DUP3 ADD SWAP1 POP SWAP2 SWAP1 POP JUMP JUMPDEST PUSH1 0x0 PUSH2 0x35D PUSH1 0x17 DUP4 PUSH2 0x47E JUMP JUMPDEST SWAP2 POP PUSH2 0x368 DUP3 PUSH2 0x4CE JUMP JUMPDEST PUSH1 0x20 DUP3 ADD SWAP1 POP SWAP2 SWAP1 POP JUMP JUMPDEST PUSH1 0x0 PUSH2 0x380 PUSH1 0x31 DUP4 PUSH2 0x47E JUMP JUMPDEST SWAP2 POP PUSH2 0x38B DUP3 PUSH2 0x4F7 JUMP JUMPDEST PUSH1 0x40 DUP3 ADD SWAP1 POP SWAP2 SWAP1 POP JUMP JUMPDEST PUSH1 0x0 PUSH2 0x3A3 PUSH1 0x16 DUP4 PUSH2 0x47E JUMP JUMPDEST SWAP2 POP PUSH2 0x3AE DUP3 PUSH2 0x546 JUMP JUMPDEST PUSH1 0x20 DUP3 ADD SWAP1 POP SWAP2 SWAP1 POP JUMP JUMPDEST PUSH2 0x3C2 DUP2 PUSH2 0x49B JUMP JUMPDEST DUP3 MSTORE POP POP JUMP JUMPDEST PUSH1 0x0 PUSH1 0x20 DUP3 ADD SWAP1 POP PUSH2 0x3DD PUSH1 0x0 DUP4 ADD DUP5 PUSH2 0x31E JUMP JUMPDEST SWAP3 SWAP2 POP POP JUMP JUMPDEST PUSH1 0x0 PUSH1 0x20 DUP3 ADD SWAP1 POP DUP2 DUP2 SUB PUSH1 0x0 DUP4 ADD MSTORE PUSH2 0x3FC DUP2 PUSH2 0x32D JUMP JUMPDEST SWAP1 POP SWAP2 SWAP1 POP JUMP JUMPDEST PUSH1 0x0 PUSH1 0x20 DUP3 ADD SWAP1 POP DUP2 DUP2 SUB PUSH1 0x0 DUP4 ADD MSTORE PUSH2 0x41C DUP2 PUSH2 0x350 JUMP JUMPDEST SWAP1 POP SWAP2 SWAP1 POP JUMP JUMPDEST PUSH1 0x0 PUSH1 0x20 DUP3 ADD SWAP1 POP DUP2 DUP2 SUB PUSH1 0x0 DUP4 ADD MSTORE PUSH2 0x43C DUP2 PUSH2 0x373 JUMP JUMPDEST SWAP1 POP SWAP2 SWAP1 POP JUMP JUMPDEST PUSH1 0x0 PUSH1 0x20 DUP3 ADD SWAP1 POP DUP2 DUP2 SUB PUSH1 0x0 DUP4 ADD MSTORE PUSH2 0x45C DUP2 PUSH2 0x396 JUMP JUMPDEST SWAP1 POP SWAP2 SWAP1 POP JUMP JUMPDEST PUSH1 0x0 PUSH1 0x20 DUP3 ADD SWAP1 POP PUSH2 0x478 PUSH1 0x0 DUP4 ADD DUP5 PUSH2 0x3B9 JUMP JUMPDEST SWAP3 SWAP2 POP POP JUMP JUMPDEST PUSH1 0x0 DUP3 DUP3 MSTORE PUSH1 0x20 DUP3 ADD SWAP1 POP SWAP3 SWAP2 POP POP JUMP JUMPDEST PUSH1 0x0 DUP2 ISZERO ISZERO SWAP1 POP SWAP2 SWAP1 POP JUMP JUMPDEST PUSH1 0x0 DUP2 SWAP1 POP SWAP2 SWAP1 POP JUMP JUMPDEST PUSH32 0x43616E617279206973207374696C6C20616C6976650000000000000000000000 PUSH1 0x0 DUP3 ADD MSTORE POP JUMP JUMPDEST PUSH32 0x43616E61727920697320616C726561647920616C697665000000000000000000 PUSH1 0x0 DUP3 ADD MSTORE POP JUMP JUMPDEST PUSH32 0x4F6E6C792074686520636F6E7472616374206465706C6F7965722063616E2063 PUSH1 0x0 DUP3 ADD MSTORE PUSH32 0x616C6C20746869732066756E6374696F6E000000000000000000000000000000 PUSH1 0x20 DUP3 ADD MSTORE POP JUMP JUMPDEST PUSH32 0x43616E61727920697320616C7265616479206465616400000000000000000000 PUSH1 0x0 DUP3 ADD MSTORE POP JUMP INVALID LOG2 PUSH5 0x6970667358 0x22 SLT KECCAK256 0xD5 0xD9 0xAD 0x27 0xB7 0xD0 SWAP13 PUSH10 0x12BD16EB94364D8D8AB7 SWAP10 DUP5 PUSH23 0x3502D1B12C4834ECAA7EF864736F6C6343000807003300 "
		},
		"gasEstimates": {
			"creation": {
				"codeDepositCost": "289000",
				"executionCost": "24598",
				"totalCost": "313598"
			},
			"external": {
				"getBlockOfDeath()": "4637",
				"isAlive()": "2457",
				"kill()": "49484",
				"revive()": "27396"
			}
		},
		"methodIdentifiers": {
			"getBlockOfDeath()": "dc994461",
			"isAlive()": "4136aa35",
			"kill()": "41c0e1b5",
			"revive()": "95851a65"
		}
	},
	"abi": [
		{
			"inputs": [],
			"stateMutability": "nonpayable",
			"type": "constructor"
		},
		{
			"anonymous": false,
			"inputs": [],
			"name": "REVIVED",
			"type": "event"
		},
		{
			"anonymous": false,
			"inputs": [],
			"name": "RIP",
			"type": "event"
		},
		{
			"inputs": [],
			"name": "getBlockOfDeath",
			"outputs": [
				{
					"internalType": "uint256",
					"name": "",
					"type": "uint256"
				}
			],
			"stateMutability": "view",
			"type": "function"
		},
		{
			"inputs": [],
			"name": "isAlive",
			"outputs": [
				{
					"internalType": "bool",
					"name": "",
					"type": "bool"
				}
			],
			"stateMutability": "view",
			"type": "function"
		},
		{
			"inputs": [],
			"name": "kill",
			"outputs": [],
			"stateMutability": "nonpayable",
			"type": "function"
		},
		{
			"inputs": [],
			"name": "revive",
			"outputs": [],
			"stateMutability": "nonpayable",
			"type": "function"
		}
	]
}